{
	"data": {
		"bytecode": {
			"linkReferences": {},
			"object": "608060405260646000556040518060a001604052806064815260200160c88152602001610190815260200161012c81526020016101f481525060019060056100489291906100a5565b506040518060a001604052806064815260200161012c815260200161012c815260200160c881526020016101f481525060029060056100889291906100a5565b506028600355605060045534801561009f57600080fd5b5061010f565b8280548282559060005260206000209081019282156100e1579160200282015b828111156100e05782518255916020019190600101906100c5565b5b5090506100ee91906100f2565b5090565b5b8082111561010b5760008160009055506001016100f3565b5090565b610cec8061011e6000396000f3fe608060405234801561001057600080fd5b50600436106100625760003560e01c80638f4829561461006757806391654ea314610086578063979b602c146100b65780639aee79ff146100e6578063e574574914610117578063ee05997714610135575b600080fd5b61006f610165565b60405161007d929190610823565b60405180910390f35b6100a0600480360381019061009b91906106b3565b61021a565b6040516100ad9190610808565b60405180910390f35b6100d060048036038101906100cb91906106f4565b610304565b6040516100dd9190610808565b60405180910390f35b61010060048036038101906100fb91906106f4565b610403565b60405161010e929190610823565b60405180910390f35b61011f61047a565b60405161012c91906107ed565b60405180910390f35b61014f600480360381019061014a91906106b3565b610563565b60405161015c9190610808565b60405180910390f35b60008061021260018054806020026020016040519081016040528092919081815260200182805480156101b757602002820191906000526020600020905b8154815260200190600101908083116101a3575b5050505050600280548060200260200160405190810160405280929190818152602001828054801561020857602002820191906000526020600020905b8154815260200190600101908083116101f4575b5050505050610403565b915091509091565b60008061012c905060005b83518110156102fd576000548285838151811061026b577f4e487b7100000000000000000000000000000000000000000000000000000000600052603260045260246000fd5b602002602001015161027d9190610adf565b838684815181106102b7577f4e487b7100000000000000000000000000000000000000000000000000000000600052603260045260246000fd5b60200260200101516102c99190610adf565b6102d391906109c8565b6102dd919061095e565b836102e891906108ca565b925080806102f590610bb8565b915050610225565b5050919050565b60008061031084610563565b9050600061031d84610563565b905060005b85518110156103fa5760005482868381518110610368577f4e487b7100000000000000000000000000000000000000000000000000000000600052603260045260246000fd5b602002602001015161037a9190610adf565b848884815181106103b4577f4e487b7100000000000000000000000000000000000000000000000000000000600052603260045260246000fd5b60200260200101516103c69190610adf565b6103d091906109c8565b6103da919061095e565b846103e591906108ca565b935080806103f290610bb8565b915050610322565b50505092915050565b60008060006104118561021a565b60005461041e8787610304565b61042891906109c8565b610432919061095e565b90506000805461044187610563565b8361044c91906109c8565b610456919061095e565b61045f86610563565b6104699190610adf565b905080829350935050509250929050565b6104826105e6565b61048a6105e6565b60005b60018054905081101561055b57600054600182815481106104d7577f4e487b7100000000000000000000000000000000000000000000000000000000600052603260045260246000fd5b90600052602060002001546004546104ef91906109c8565b6104f9919061095e565b60035461050691906108ca565b82826005811061053f577f4e487b7100000000000000000000000000000000000000000000000000000000600052603260045260246000fd5b602002018181525050808061055390610bb8565b91505061048d565b508091505090565b6000805b82518110156105d1578281815181106105a9577f4e487b7100000000000000000000000000000000000000000000000000000000600052603260045260246000fd5b6020026020010151826105bc91906108ca565b915080806105c990610bb8565b915050610567565b508151816105df919061095e565b9050919050565b6040518060a00160405280600590602082028036833780820191505090505090565b600061061b61061684610871565b61084c565b9050808382526020820190508285602086028201111561063a57600080fd5b60005b8581101561066a5781610650888261069e565b84526020840193506020830192505060018101905061063d565b5050509392505050565b600082601f83011261068557600080fd5b8135610695848260208601610608565b91505092915050565b6000813590506106ad81610c9f565b92915050565b6000602082840312156106c557600080fd5b600082013567ffffffffffffffff8111156106df57600080fd5b6106eb84828501610674565b91505092915050565b6000806040838503121561070757600080fd5b600083013567ffffffffffffffff81111561072157600080fd5b61072d85828601610674565b925050602083013567ffffffffffffffff81111561074a57600080fd5b61075685828601610674565b9150509250929050565b600061076c83836107cf565b60208301905092915050565b610781816108a7565b61078b81846108bf565b92506107968261089d565b8060005b838110156107c75781516107ae8782610760565b96506107b9836108b2565b92505060018101905061079a565b505050505050565b6107d881610b73565b82525050565b6107e781610b73565b82525050565b600060a0820190506108026000830184610778565b92915050565b600060208201905061081d60008301846107de565b92915050565b600060408201905061083860008301856107de565b61084560208301846107de565b9392505050565b6000610856610867565b90506108628282610b87565b919050565b6000604051905090565b600067ffffffffffffffff82111561088c5761088b610c5f565b5b602082029050602081019050919050565b6000819050919050565b600060059050919050565b6000602082019050919050565b600081905092915050565b60006108d582610b73565b91506108e083610b73565b9250817f7fffffffffffffffffffffffffffffffffffffffffffffffffffffffffffffff0383136000831215161561091b5761091a610c01565b5b817f800000000000000000000000000000000000000000000000000000000000000003831260008312161561095357610952610c01565b5b828201905092915050565b600061096982610b73565b915061097483610b73565b92508261098457610983610c30565b5b600160000383147f8000000000000000000000000000000000000000000000000000000000000000831416156109bd576109bc610c01565b5b828205905092915050565b60006109d382610b73565b91506109de83610b73565b9250827f7fffffffffffffffffffffffffffffffffffffffffffffffffffffffffffffff0482116000841360008413161615610a1d57610a1c610c01565b5b817f80000000000000000000000000000000000000000000000000000000000000000583126000841260008413161615610a5a57610a59610c01565b5b827f80000000000000000000000000000000000000000000000000000000000000000582126000841360008412161615610a9757610a96610c01565b5b827f7fffffffffffffffffffffffffffffffffffffffffffffffffffffffffffffff0582126000841260008412161615610ad457610ad3610c01565b5b828202905092915050565b6000610aea82610b73565b9150610af583610b73565b9250827f800000000000000000000000000000000000000000000000000000000000000001821260008412151615610b3057610b2f610c01565b5b827f7fffffffffffffffffffffffffffffffffffffffffffffffffffffffffffffff018213600084121615610b6857610b67610c01565b5b828203905092915050565b6000819050919050565b6000819050919050565b610b9082610c8e565b810181811067ffffffffffffffff82111715610baf57610bae610c5f565b5b80604052505050565b6000610bc382610b7d565b91507fffffffffffffffffffffffffffffffffffffffffffffffffffffffffffffffff821415610bf657610bf5610c01565b5b600182019050919050565b7f4e487b7100000000000000000000000000000000000000000000000000000000600052601160045260246000fd5b7f4e487b7100000000000000000000000000000000000000000000000000000000600052601260045260246000fd5b7f4e487b7100000000000000000000000000000000000000000000000000000000600052604160045260246000fd5b6000601f19601f8301169050919050565b610ca881610b73565b8114610cb357600080fd5b5056fea2646970667358221220700c899284bff0d541f863576fec349b29cbd4cec6f163de9fcacd686492b92564736f6c63430008040033",
			"opcodes": "PUSH1 0x80 PUSH1 0x40 MSTORE PUSH1 0x64 PUSH1 0x0 SSTORE PUSH1 0x40 MLOAD DUP1 PUSH1 0xA0 ADD PUSH1 0x40 MSTORE DUP1 PUSH1 0x64 DUP2 MSTORE PUSH1 0x20 ADD PUSH1 0xC8 DUP2 MSTORE PUSH1 0x20 ADD PUSH2 0x190 DUP2 MSTORE PUSH1 0x20 ADD PUSH2 0x12C DUP2 MSTORE PUSH1 0x20 ADD PUSH2 0x1F4 DUP2 MSTORE POP PUSH1 0x1 SWAP1 PUSH1 0x5 PUSH2 0x48 SWAP3 SWAP2 SWAP1 PUSH2 0xA5 JUMP JUMPDEST POP PUSH1 0x40 MLOAD DUP1 PUSH1 0xA0 ADD PUSH1 0x40 MSTORE DUP1 PUSH1 0x64 DUP2 MSTORE PUSH1 0x20 ADD PUSH2 0x12C DUP2 MSTORE PUSH1 0x20 ADD PUSH2 0x12C DUP2 MSTORE PUSH1 0x20 ADD PUSH1 0xC8 DUP2 MSTORE PUSH1 0x20 ADD PUSH2 0x1F4 DUP2 MSTORE POP PUSH1 0x2 SWAP1 PUSH1 0x5 PUSH2 0x88 SWAP3 SWAP2 SWAP1 PUSH2 0xA5 JUMP JUMPDEST POP PUSH1 0x28 PUSH1 0x3 SSTORE PUSH1 0x50 PUSH1 0x4 SSTORE CALLVALUE DUP1 ISZERO PUSH2 0x9F JUMPI PUSH1 0x0 DUP1 REVERT JUMPDEST POP PUSH2 0x10F JUMP JUMPDEST DUP3 DUP1 SLOAD DUP3 DUP3 SSTORE SWAP1 PUSH1 0x0 MSTORE PUSH1 0x20 PUSH1 0x0 KECCAK256 SWAP1 DUP2 ADD SWAP3 DUP3 ISZERO PUSH2 0xE1 JUMPI SWAP2 PUSH1 0x20 MUL DUP3 ADD JUMPDEST DUP3 DUP2 GT ISZERO PUSH2 0xE0 JUMPI DUP3 MLOAD DUP3 SSTORE SWAP2 PUSH1 0x20 ADD SWAP2 SWAP1 PUSH1 0x1 ADD SWAP1 PUSH2 0xC5 JUMP JUMPDEST JUMPDEST POP SWAP1 POP PUSH2 0xEE SWAP2 SWAP1 PUSH2 0xF2 JUMP JUMPDEST POP SWAP1 JUMP JUMPDEST JUMPDEST DUP1 DUP3 GT ISZERO PUSH2 0x10B JUMPI PUSH1 0x0 DUP2 PUSH1 0x0 SWAP1 SSTORE POP PUSH1 0x1 ADD PUSH2 0xF3 JUMP JUMPDEST POP SWAP1 JUMP JUMPDEST PUSH2 0xCEC DUP1 PUSH2 0x11E PUSH1 0x0 CODECOPY PUSH1 0x0 RETURN INVALID PUSH1 0x80 PUSH1 0x40 MSTORE CALLVALUE DUP1 ISZERO PUSH2 0x10 JUMPI PUSH1 0x0 DUP1 REVERT JUMPDEST POP PUSH1 0x4 CALLDATASIZE LT PUSH2 0x62 JUMPI PUSH1 0x0 CALLDATALOAD PUSH1 0xE0 SHR DUP1 PUSH4 0x8F482956 EQ PUSH2 0x67 JUMPI DUP1 PUSH4 0x91654EA3 EQ PUSH2 0x86 JUMPI DUP1 PUSH4 0x979B602C EQ PUSH2 0xB6 JUMPI DUP1 PUSH4 0x9AEE79FF EQ PUSH2 0xE6 JUMPI DUP1 PUSH4 0xE5745749 EQ PUSH2 0x117 JUMPI DUP1 PUSH4 0xEE059977 EQ PUSH2 0x135 JUMPI JUMPDEST PUSH1 0x0 DUP1 REVERT JUMPDEST PUSH2 0x6F PUSH2 0x165 JUMP JUMPDEST PUSH1 0x40 MLOAD PUSH2 0x7D SWAP3 SWAP2 SWAP1 PUSH2 0x823 JUMP JUMPDEST PUSH1 0x40 MLOAD DUP1 SWAP2 SUB SWAP1 RETURN JUMPDEST PUSH2 0xA0 PUSH1 0x4 DUP1 CALLDATASIZE SUB DUP2 ADD SWAP1 PUSH2 0x9B SWAP2 SWAP1 PUSH2 0x6B3 JUMP JUMPDEST PUSH2 0x21A JUMP JUMPDEST PUSH1 0x40 MLOAD PUSH2 0xAD SWAP2 SWAP1 PUSH2 0x808 JUMP JUMPDEST PUSH1 0x40 MLOAD DUP1 SWAP2 SUB SWAP1 RETURN JUMPDEST PUSH2 0xD0 PUSH1 0x4 DUP1 CALLDATASIZE SUB DUP2 ADD SWAP1 PUSH2 0xCB SWAP2 SWAP1 PUSH2 0x6F4 JUMP JUMPDEST PUSH2 0x304 JUMP JUMPDEST PUSH1 0x40 MLOAD PUSH2 0xDD SWAP2 SWAP1 PUSH2 0x808 JUMP JUMPDEST PUSH1 0x40 MLOAD DUP1 SWAP2 SUB SWAP1 RETURN JUMPDEST PUSH2 0x100 PUSH1 0x4 DUP1 CALLDATASIZE SUB DUP2 ADD SWAP1 PUSH2 0xFB SWAP2 SWAP1 PUSH2 0x6F4 JUMP JUMPDEST PUSH2 0x403 JUMP JUMPDEST PUSH1 0x40 MLOAD PUSH2 0x10E SWAP3 SWAP2 SWAP1 PUSH2 0x823 JUMP JUMPDEST PUSH1 0x40 MLOAD DUP1 SWAP2 SUB SWAP1 RETURN JUMPDEST PUSH2 0x11F PUSH2 0x47A JUMP JUMPDEST PUSH1 0x40 MLOAD PUSH2 0x12C SWAP2 SWAP1 PUSH2 0x7ED JUMP JUMPDEST PUSH1 0x40 MLOAD DUP1 SWAP2 SUB SWAP1 RETURN JUMPDEST PUSH2 0x14F PUSH1 0x4 DUP1 CALLDATASIZE SUB DUP2 ADD SWAP1 PUSH2 0x14A SWAP2 SWAP1 PUSH2 0x6B3 JUMP JUMPDEST PUSH2 0x563 JUMP JUMPDEST PUSH1 0x40 MLOAD PUSH2 0x15C SWAP2 SWAP1 PUSH2 0x808 JUMP JUMPDEST PUSH1 0x40 MLOAD DUP1 SWAP2 SUB SWAP1 RETURN JUMPDEST PUSH1 0x0 DUP1 PUSH2 0x212 PUSH1 0x1 DUP1 SLOAD DUP1 PUSH1 0x20 MUL PUSH1 0x20 ADD PUSH1 0x40 MLOAD SWAP1 DUP2 ADD PUSH1 0x40 MSTORE DUP1 SWAP3 SWAP2 SWAP1 DUP2 DUP2 MSTORE PUSH1 0x20 ADD DUP3 DUP1 SLOAD DUP1 ISZERO PUSH2 0x1B7 JUMPI PUSH1 0x20 MUL DUP3 ADD SWAP2 SWAP1 PUSH1 0x0 MSTORE PUSH1 0x20 PUSH1 0x0 KECCAK256 SWAP1 JUMPDEST DUP2 SLOAD DUP2 MSTORE PUSH1 0x20 ADD SWAP1 PUSH1 0x1 ADD SWAP1 DUP1 DUP4 GT PUSH2 0x1A3 JUMPI JUMPDEST POP POP POP POP POP PUSH1 0x2 DUP1 SLOAD DUP1 PUSH1 0x20 MUL PUSH1 0x20 ADD PUSH1 0x40 MLOAD SWAP1 DUP2 ADD PUSH1 0x40 MSTORE DUP1 SWAP3 SWAP2 SWAP1 DUP2 DUP2 MSTORE PUSH1 0x20 ADD DUP3 DUP1 SLOAD DUP1 ISZERO PUSH2 0x208 JUMPI PUSH1 0x20 MUL DUP3 ADD SWAP2 SWAP1 PUSH1 0x0 MSTORE PUSH1 0x20 PUSH1 0x0 KECCAK256 SWAP1 JUMPDEST DUP2 SLOAD DUP2 MSTORE PUSH1 0x20 ADD SWAP1 PUSH1 0x1 ADD SWAP1 DUP1 DUP4 GT PUSH2 0x1F4 JUMPI JUMPDEST POP POP POP POP POP PUSH2 0x403 JUMP JUMPDEST SWAP2 POP SWAP2 POP SWAP1 SWAP2 JUMP JUMPDEST PUSH1 0x0 DUP1 PUSH2 0x12C SWAP1 POP PUSH1 0x0 JUMPDEST DUP4 MLOAD DUP2 LT ISZERO PUSH2 0x2FD JUMPI PUSH1 0x0 SLOAD DUP3 DUP6 DUP4 DUP2 MLOAD DUP2 LT PUSH2 0x26B JUMPI PUSH32 0x4E487B7100000000000000000000000000000000000000000000000000000000 PUSH1 0x0 MSTORE PUSH1 0x32 PUSH1 0x4 MSTORE PUSH1 0x24 PUSH1 0x0 REVERT JUMPDEST PUSH1 0x20 MUL PUSH1 0x20 ADD ADD MLOAD PUSH2 0x27D SWAP2 SWAP1 PUSH2 0xADF JUMP JUMPDEST DUP4 DUP7 DUP5 DUP2 MLOAD DUP2 LT PUSH2 0x2B7 JUMPI PUSH32 0x4E487B7100000000000000000000000000000000000000000000000000000000 PUSH1 0x0 MSTORE PUSH1 0x32 PUSH1 0x4 MSTORE PUSH1 0x24 PUSH1 0x0 REVERT JUMPDEST PUSH1 0x20 MUL PUSH1 0x20 ADD ADD MLOAD PUSH2 0x2C9 SWAP2 SWAP1 PUSH2 0xADF JUMP JUMPDEST PUSH2 0x2D3 SWAP2 SWAP1 PUSH2 0x9C8 JUMP JUMPDEST PUSH2 0x2DD SWAP2 SWAP1 PUSH2 0x95E JUMP JUMPDEST DUP4 PUSH2 0x2E8 SWAP2 SWAP1 PUSH2 0x8CA JUMP JUMPDEST SWAP3 POP DUP1 DUP1 PUSH2 0x2F5 SWAP1 PUSH2 0xBB8 JUMP JUMPDEST SWAP2 POP POP PUSH2 0x225 JUMP JUMPDEST POP POP SWAP2 SWAP1 POP JUMP JUMPDEST PUSH1 0x0 DUP1 PUSH2 0x310 DUP5 PUSH2 0x563 JUMP JUMPDEST SWAP1 POP PUSH1 0x0 PUSH2 0x31D DUP5 PUSH2 0x563 JUMP JUMPDEST SWAP1 POP PUSH1 0x0 JUMPDEST DUP6 MLOAD DUP2 LT ISZERO PUSH2 0x3FA JUMPI PUSH1 0x0 SLOAD DUP3 DUP7 DUP4 DUP2 MLOAD DUP2 LT PUSH2 0x368 JUMPI PUSH32 0x4E487B7100000000000000000000000000000000000000000000000000000000 PUSH1 0x0 MSTORE PUSH1 0x32 PUSH1 0x4 MSTORE PUSH1 0x24 PUSH1 0x0 REVERT JUMPDEST PUSH1 0x20 MUL PUSH1 0x20 ADD ADD MLOAD PUSH2 0x37A SWAP2 SWAP1 PUSH2 0xADF JUMP JUMPDEST DUP5 DUP9 DUP5 DUP2 MLOAD DUP2 LT PUSH2 0x3B4 JUMPI PUSH32 0x4E487B7100000000000000000000000000000000000000000000000000000000 PUSH1 0x0 MSTORE PUSH1 0x32 PUSH1 0x4 MSTORE PUSH1 0x24 PUSH1 0x0 REVERT JUMPDEST PUSH1 0x20 MUL PUSH1 0x20 ADD ADD MLOAD PUSH2 0x3C6 SWAP2 SWAP1 PUSH2 0xADF JUMP JUMPDEST PUSH2 0x3D0 SWAP2 SWAP1 PUSH2 0x9C8 JUMP JUMPDEST PUSH2 0x3DA SWAP2 SWAP1 PUSH2 0x95E JUMP JUMPDEST DUP5 PUSH2 0x3E5 SWAP2 SWAP1 PUSH2 0x8CA JUMP JUMPDEST SWAP4 POP DUP1 DUP1 PUSH2 0x3F2 SWAP1 PUSH2 0xBB8 JUMP JUMPDEST SWAP2 POP POP PUSH2 0x322 JUMP JUMPDEST POP POP POP SWAP3 SWAP2 POP POP JUMP JUMPDEST PUSH1 0x0 DUP1 PUSH1 0x0 PUSH2 0x411 DUP6 PUSH2 0x21A JUMP JUMPDEST PUSH1 0x0 SLOAD PUSH2 0x41E DUP8 DUP8 PUSH2 0x304 JUMP JUMPDEST PUSH2 0x428 SWAP2 SWAP1 PUSH2 0x9C8 JUMP JUMPDEST PUSH2 0x432 SWAP2 SWAP1 PUSH2 0x95E JUMP JUMPDEST SWAP1 POP PUSH1 0x0 DUP1 SLOAD PUSH2 0x441 DUP8 PUSH2 0x563 JUMP JUMPDEST DUP4 PUSH2 0x44C SWAP2 SWAP1 PUSH2 0x9C8 JUMP JUMPDEST PUSH2 0x456 SWAP2 SWAP1 PUSH2 0x95E JUMP JUMPDEST PUSH2 0x45F DUP7 PUSH2 0x563 JUMP JUMPDEST PUSH2 0x469 SWAP2 SWAP1 PUSH2 0xADF JUMP JUMPDEST SWAP1 POP DUP1 DUP3 SWAP4 POP SWAP4 POP POP POP SWAP3 POP SWAP3 SWAP1 POP JUMP JUMPDEST PUSH2 0x482 PUSH2 0x5E6 JUMP JUMPDEST PUSH2 0x48A PUSH2 0x5E6 JUMP JUMPDEST PUSH1 0x0 JUMPDEST PUSH1 0x1 DUP1 SLOAD SWAP1 POP DUP2 LT ISZERO PUSH2 0x55B JUMPI PUSH1 0x0 SLOAD PUSH1 0x1 DUP3 DUP2 SLOAD DUP2 LT PUSH2 0x4D7 JUMPI PUSH32 0x4E487B7100000000000000000000000000000000000000000000000000000000 PUSH1 0x0 MSTORE PUSH1 0x32 PUSH1 0x4 MSTORE PUSH1 0x24 PUSH1 0x0 REVERT JUMPDEST SWAP1 PUSH1 0x0 MSTORE PUSH1 0x20 PUSH1 0x0 KECCAK256 ADD SLOAD PUSH1 0x4 SLOAD PUSH2 0x4EF SWAP2 SWAP1 PUSH2 0x9C8 JUMP JUMPDEST PUSH2 0x4F9 SWAP2 SWAP1 PUSH2 0x95E JUMP JUMPDEST PUSH1 0x3 SLOAD PUSH2 0x506 SWAP2 SWAP1 PUSH2 0x8CA JUMP JUMPDEST DUP3 DUP3 PUSH1 0x5 DUP2 LT PUSH2 0x53F JUMPI PUSH32 0x4E487B7100000000000000000000000000000000000000000000000000000000 PUSH1 0x0 MSTORE PUSH1 0x32 PUSH1 0x4 MSTORE PUSH1 0x24 PUSH1 0x0 REVERT JUMPDEST PUSH1 0x20 MUL ADD DUP2 DUP2 MSTORE POP POP DUP1 DUP1 PUSH2 0x553 SWAP1 PUSH2 0xBB8 JUMP JUMPDEST SWAP2 POP POP PUSH2 0x48D JUMP JUMPDEST POP DUP1 SWAP2 POP POP SWAP1 JUMP JUMPDEST PUSH1 0x0 DUP1 JUMPDEST DUP3 MLOAD DUP2 LT ISZERO PUSH2 0x5D1 JUMPI DUP3 DUP2 DUP2 MLOAD DUP2 LT PUSH2 0x5A9 JUMPI PUSH32 0x4E487B7100000000000000000000000000000000000000000000000000000000 PUSH1 0x0 MSTORE PUSH1 0x32 PUSH1 0x4 MSTORE PUSH1 0x24 PUSH1 0x0 REVERT JUMPDEST PUSH1 0x20 MUL PUSH1 0x20 ADD ADD MLOAD DUP3 PUSH2 0x5BC SWAP2 SWAP1 PUSH2 0x8CA JUMP JUMPDEST SWAP2 POP DUP1 DUP1 PUSH2 0x5C9 SWAP1 PUSH2 0xBB8 JUMP JUMPDEST SWAP2 POP POP PUSH2 0x567 JUMP JUMPDEST POP DUP2 MLOAD DUP2 PUSH2 0x5DF SWAP2 SWAP1 PUSH2 0x95E JUMP JUMPDEST SWAP1 POP SWAP2 SWAP1 POP JUMP JUMPDEST PUSH1 0x40 MLOAD DUP1 PUSH1 0xA0 ADD PUSH1 0x40 MSTORE DUP1 PUSH1 0x5 SWAP1 PUSH1 0x20 DUP3 MUL DUP1 CALLDATASIZE DUP4 CALLDATACOPY DUP1 DUP3 ADD SWAP2 POP POP SWAP1 POP POP SWAP1 JUMP JUMPDEST PUSH1 0x0 PUSH2 0x61B PUSH2 0x616 DUP5 PUSH2 0x871 JUMP JUMPDEST PUSH2 0x84C JUMP JUMPDEST SWAP1 POP DUP1 DUP4 DUP3 MSTORE PUSH1 0x20 DUP3 ADD SWAP1 POP DUP3 DUP6 PUSH1 0x20 DUP7 MUL DUP3 ADD GT ISZERO PUSH2 0x63A JUMPI PUSH1 0x0 DUP1 REVERT JUMPDEST PUSH1 0x0 JUMPDEST DUP6 DUP2 LT ISZERO PUSH2 0x66A JUMPI DUP2 PUSH2 0x650 DUP9 DUP3 PUSH2 0x69E JUMP JUMPDEST DUP5 MSTORE PUSH1 0x20 DUP5 ADD SWAP4 POP PUSH1 0x20 DUP4 ADD SWAP3 POP POP PUSH1 0x1 DUP2 ADD SWAP1 POP PUSH2 0x63D JUMP JUMPDEST POP POP POP SWAP4 SWAP3 POP POP POP JUMP JUMPDEST PUSH1 0x0 DUP3 PUSH1 0x1F DUP4 ADD SLT PUSH2 0x685 JUMPI PUSH1 0x0 DUP1 REVERT JUMPDEST DUP2 CALLDATALOAD PUSH2 0x695 DUP5 DUP3 PUSH1 0x20 DUP7 ADD PUSH2 0x608 JUMP JUMPDEST SWAP2 POP POP SWAP3 SWAP2 POP POP JUMP JUMPDEST PUSH1 0x0 DUP2 CALLDATALOAD SWAP1 POP PUSH2 0x6AD DUP2 PUSH2 0xC9F JUMP JUMPDEST SWAP3 SWAP2 POP POP JUMP JUMPDEST PUSH1 0x0 PUSH1 0x20 DUP3 DUP5 SUB SLT ISZERO PUSH2 0x6C5 JUMPI PUSH1 0x0 DUP1 REVERT JUMPDEST PUSH1 0x0 DUP3 ADD CALLDATALOAD PUSH8 0xFFFFFFFFFFFFFFFF DUP2 GT ISZERO PUSH2 0x6DF JUMPI PUSH1 0x0 DUP1 REVERT JUMPDEST PUSH2 0x6EB DUP5 DUP3 DUP6 ADD PUSH2 0x674 JUMP JUMPDEST SWAP2 POP POP SWAP3 SWAP2 POP POP JUMP JUMPDEST PUSH1 0x0 DUP1 PUSH1 0x40 DUP4 DUP6 SUB SLT ISZERO PUSH2 0x707 JUMPI PUSH1 0x0 DUP1 REVERT JUMPDEST PUSH1 0x0 DUP4 ADD CALLDATALOAD PUSH8 0xFFFFFFFFFFFFFFFF DUP2 GT ISZERO PUSH2 0x721 JUMPI PUSH1 0x0 DUP1 REVERT JUMPDEST PUSH2 0x72D DUP6 DUP3 DUP7 ADD PUSH2 0x674 JUMP JUMPDEST SWAP3 POP POP PUSH1 0x20 DUP4 ADD CALLDATALOAD PUSH8 0xFFFFFFFFFFFFFFFF DUP2 GT ISZERO PUSH2 0x74A JUMPI PUSH1 0x0 DUP1 REVERT JUMPDEST PUSH2 0x756 DUP6 DUP3 DUP7 ADD PUSH2 0x674 JUMP JUMPDEST SWAP2 POP POP SWAP3 POP SWAP3 SWAP1 POP JUMP JUMPDEST PUSH1 0x0 PUSH2 0x76C DUP4 DUP4 PUSH2 0x7CF JUMP JUMPDEST PUSH1 0x20 DUP4 ADD SWAP1 POP SWAP3 SWAP2 POP POP JUMP JUMPDEST PUSH2 0x781 DUP2 PUSH2 0x8A7 JUMP JUMPDEST PUSH2 0x78B DUP2 DUP5 PUSH2 0x8BF JUMP JUMPDEST SWAP3 POP PUSH2 0x796 DUP3 PUSH2 0x89D JUMP JUMPDEST DUP1 PUSH1 0x0 JUMPDEST DUP4 DUP2 LT ISZERO PUSH2 0x7C7 JUMPI DUP2 MLOAD PUSH2 0x7AE DUP8 DUP3 PUSH2 0x760 JUMP JUMPDEST SWAP7 POP PUSH2 0x7B9 DUP4 PUSH2 0x8B2 JUMP JUMPDEST SWAP3 POP POP PUSH1 0x1 DUP2 ADD SWAP1 POP PUSH2 0x79A JUMP JUMPDEST POP POP POP POP POP POP JUMP JUMPDEST PUSH2 0x7D8 DUP2 PUSH2 0xB73 JUMP JUMPDEST DUP3 MSTORE POP POP JUMP JUMPDEST PUSH2 0x7E7 DUP2 PUSH2 0xB73 JUMP JUMPDEST DUP3 MSTORE POP POP JUMP JUMPDEST PUSH1 0x0 PUSH1 0xA0 DUP3 ADD SWAP1 POP PUSH2 0x802 PUSH1 0x0 DUP4 ADD DUP5 PUSH2 0x778 JUMP JUMPDEST SWAP3 SWAP2 POP POP JUMP JUMPDEST PUSH1 0x0 PUSH1 0x20 DUP3 ADD SWAP1 POP PUSH2 0x81D PUSH1 0x0 DUP4 ADD DUP5 PUSH2 0x7DE JUMP JUMPDEST SWAP3 SWAP2 POP POP JUMP JUMPDEST PUSH1 0x0 PUSH1 0x40 DUP3 ADD SWAP1 POP PUSH2 0x838 PUSH1 0x0 DUP4 ADD DUP6 PUSH2 0x7DE JUMP JUMPDEST PUSH2 0x845 PUSH1 0x20 DUP4 ADD DUP5 PUSH2 0x7DE JUMP JUMPDEST SWAP4 SWAP3 POP POP POP JUMP JUMPDEST PUSH1 0x0 PUSH2 0x856 PUSH2 0x867 JUMP JUMPDEST SWAP1 POP PUSH2 0x862 DUP3 DUP3 PUSH2 0xB87 JUMP JUMPDEST SWAP2 SWAP1 POP JUMP JUMPDEST PUSH1 0x0 PUSH1 0x40 MLOAD SWAP1 POP SWAP1 JUMP JUMPDEST PUSH1 0x0 PUSH8 0xFFFFFFFFFFFFFFFF DUP3 GT ISZERO PUSH2 0x88C JUMPI PUSH2 0x88B PUSH2 0xC5F JUMP JUMPDEST JUMPDEST PUSH1 0x20 DUP3 MUL SWAP1 POP PUSH1 0x20 DUP2 ADD SWAP1 POP SWAP2 SWAP1 POP JUMP JUMPDEST PUSH1 0x0 DUP2 SWAP1 POP SWAP2 SWAP1 POP JUMP JUMPDEST PUSH1 0x0 PUSH1 0x5 SWAP1 POP SWAP2 SWAP1 POP JUMP JUMPDEST PUSH1 0x0 PUSH1 0x20 DUP3 ADD SWAP1 POP SWAP2 SWAP1 POP JUMP JUMPDEST PUSH1 0x0 DUP2 SWAP1 POP SWAP3 SWAP2 POP POP JUMP JUMPDEST PUSH1 0x0 PUSH2 0x8D5 DUP3 PUSH2 0xB73 JUMP JUMPDEST SWAP2 POP PUSH2 0x8E0 DUP4 PUSH2 0xB73 JUMP JUMPDEST SWAP3 POP DUP2 PUSH32 0x7FFFFFFFFFFFFFFFFFFFFFFFFFFFFFFFFFFFFFFFFFFFFFFFFFFFFFFFFFFFFFFF SUB DUP4 SGT PUSH1 0x0 DUP4 SLT ISZERO AND ISZERO PUSH2 0x91B JUMPI PUSH2 0x91A PUSH2 0xC01 JUMP JUMPDEST JUMPDEST DUP2 PUSH32 0x8000000000000000000000000000000000000000000000000000000000000000 SUB DUP4 SLT PUSH1 0x0 DUP4 SLT AND ISZERO PUSH2 0x953 JUMPI PUSH2 0x952 PUSH2 0xC01 JUMP JUMPDEST JUMPDEST DUP3 DUP3 ADD SWAP1 POP SWAP3 SWAP2 POP POP JUMP JUMPDEST PUSH1 0x0 PUSH2 0x969 DUP3 PUSH2 0xB73 JUMP JUMPDEST SWAP2 POP PUSH2 0x974 DUP4 PUSH2 0xB73 JUMP JUMPDEST SWAP3 POP DUP3 PUSH2 0x984 JUMPI PUSH2 0x983 PUSH2 0xC30 JUMP JUMPDEST JUMPDEST PUSH1 0x1 PUSH1 0x0 SUB DUP4 EQ PUSH32 0x8000000000000000000000000000000000000000000000000000000000000000 DUP4 EQ AND ISZERO PUSH2 0x9BD JUMPI PUSH2 0x9BC PUSH2 0xC01 JUMP JUMPDEST JUMPDEST DUP3 DUP3 SDIV SWAP1 POP SWAP3 SWAP2 POP POP JUMP JUMPDEST PUSH1 0x0 PUSH2 0x9D3 DUP3 PUSH2 0xB73 JUMP JUMPDEST SWAP2 POP PUSH2 0x9DE DUP4 PUSH2 0xB73 JUMP JUMPDEST SWAP3 POP DUP3 PUSH32 0x7FFFFFFFFFFFFFFFFFFFFFFFFFFFFFFFFFFFFFFFFFFFFFFFFFFFFFFFFFFFFFFF DIV DUP3 GT PUSH1 0x0 DUP5 SGT PUSH1 0x0 DUP5 SGT AND AND ISZERO PUSH2 0xA1D JUMPI PUSH2 0xA1C PUSH2 0xC01 JUMP JUMPDEST JUMPDEST DUP2 PUSH32 0x8000000000000000000000000000000000000000000000000000000000000000 SDIV DUP4 SLT PUSH1 0x0 DUP5 SLT PUSH1 0x0 DUP5 SGT AND AND ISZERO PUSH2 0xA5A JUMPI PUSH2 0xA59 PUSH2 0xC01 JUMP JUMPDEST JUMPDEST DUP3 PUSH32 0x8000000000000000000000000000000000000000000000000000000000000000 SDIV DUP3 SLT PUSH1 0x0 DUP5 SGT PUSH1 0x0 DUP5 SLT AND AND ISZERO PUSH2 0xA97 JUMPI PUSH2 0xA96 PUSH2 0xC01 JUMP JUMPDEST JUMPDEST DUP3 PUSH32 0x7FFFFFFFFFFFFFFFFFFFFFFFFFFFFFFFFFFFFFFFFFFFFFFFFFFFFFFFFFFFFFFF SDIV DUP3 SLT PUSH1 0x0 DUP5 SLT PUSH1 0x0 DUP5 SLT AND AND ISZERO PUSH2 0xAD4 JUMPI PUSH2 0xAD3 PUSH2 0xC01 JUMP JUMPDEST JUMPDEST DUP3 DUP3 MUL SWAP1 POP SWAP3 SWAP2 POP POP JUMP JUMPDEST PUSH1 0x0 PUSH2 0xAEA DUP3 PUSH2 0xB73 JUMP JUMPDEST SWAP2 POP PUSH2 0xAF5 DUP4 PUSH2 0xB73 JUMP JUMPDEST SWAP3 POP DUP3 PUSH32 0x8000000000000000000000000000000000000000000000000000000000000000 ADD DUP3 SLT PUSH1 0x0 DUP5 SLT ISZERO AND ISZERO PUSH2 0xB30 JUMPI PUSH2 0xB2F PUSH2 0xC01 JUMP JUMPDEST JUMPDEST DUP3 PUSH32 0x7FFFFFFFFFFFFFFFFFFFFFFFFFFFFFFFFFFFFFFFFFFFFFFFFFFFFFFFFFFFFFFF ADD DUP3 SGT PUSH1 0x0 DUP5 SLT AND ISZERO PUSH2 0xB68 JUMPI PUSH2 0xB67 PUSH2 0xC01 JUMP JUMPDEST JUMPDEST DUP3 DUP3 SUB SWAP1 POP SWAP3 SWAP2 POP POP JUMP JUMPDEST PUSH1 0x0 DUP2 SWAP1 POP SWAP2 SWAP1 POP JUMP JUMPDEST PUSH1 0x0 DUP2 SWAP1 POP SWAP2 SWAP1 POP JUMP JUMPDEST PUSH2 0xB90 DUP3 PUSH2 0xC8E JUMP JUMPDEST DUP2 ADD DUP2 DUP2 LT PUSH8 0xFFFFFFFFFFFFFFFF DUP3 GT OR ISZERO PUSH2 0xBAF JUMPI PUSH2 0xBAE PUSH2 0xC5F JUMP JUMPDEST JUMPDEST DUP1 PUSH1 0x40 MSTORE POP POP POP JUMP JUMPDEST PUSH1 0x0 PUSH2 0xBC3 DUP3 PUSH2 0xB7D JUMP JUMPDEST SWAP2 POP PUSH32 0xFFFFFFFFFFFFFFFFFFFFFFFFFFFFFFFFFFFFFFFFFFFFFFFFFFFFFFFFFFFFFFFF DUP3 EQ ISZERO PUSH2 0xBF6 JUMPI PUSH2 0xBF5 PUSH2 0xC01 JUMP JUMPDEST JUMPDEST PUSH1 0x1 DUP3 ADD SWAP1 POP SWAP2 SWAP1 POP JUMP JUMPDEST PUSH32 0x4E487B7100000000000000000000000000000000000000000000000000000000 PUSH1 0x0 MSTORE PUSH1 0x11 PUSH1 0x4 MSTORE PUSH1 0x24 PUSH1 0x0 REVERT JUMPDEST PUSH32 0x4E487B7100000000000000000000000000000000000000000000000000000000 PUSH1 0x0 MSTORE PUSH1 0x12 PUSH1 0x4 MSTORE PUSH1 0x24 PUSH1 0x0 REVERT JUMPDEST PUSH32 0x4E487B7100000000000000000000000000000000000000000000000000000000 PUSH1 0x0 MSTORE PUSH1 0x41 PUSH1 0x4 MSTORE PUSH1 0x24 PUSH1 0x0 REVERT JUMPDEST PUSH1 0x0 PUSH1 0x1F NOT PUSH1 0x1F DUP4 ADD AND SWAP1 POP SWAP2 SWAP1 POP JUMP JUMPDEST PUSH2 0xCA8 DUP2 PUSH2 0xB73 JUMP JUMPDEST DUP2 EQ PUSH2 0xCB3 JUMPI PUSH1 0x0 DUP1 REVERT JUMPDEST POP JUMP INVALID LOG2 PUSH5 0x6970667358 0x22 SLT KECCAK256 PUSH17 0xC899284BFF0D541F863576FEC349B29CB 0xD4 0xCE 0xC6 CALL PUSH4 0xDE9FCACD PUSH9 0x6492B92564736F6C63 NUMBER STOP ADDMOD DIV STOP CALLER "
		},
		"gasEstimates": {
			"creation": {
				"codeDepositCost": "661600",
				"executionCost": "infinite",
				"totalCost": "infinite"
			},
			"external": {
				"coefficients(int256[],int256[])": "infinite",
				"covariance(int256[],int256[])": "infinite",
				"mean(int256[])": "infinite",
				"model_show()": "infinite",
				"simple_linear_regression()": "infinite",
				"variance(int256[])": "infinite"
			}
		},
		"methodIdentifiers": {
			"coefficients(int256[],int256[])": "9aee79ff",
			"covariance(int256[],int256[])": "979b602c",
			"mean(int256[])": "ee059977",
			"model_show()": "8f482956",
			"simple_linear_regression()": "e5745749",
			"variance(int256[])": "91654ea3"
		}
	},
	"abi": [
		{
			"inputs": [
				{
					"internalType": "int256[]",
					"name": "x",
					"type": "int256[]"
				},
				{
					"internalType": "int256[]",
					"name": "y",
					"type": "int256[]"
				}
			],
			"name": "coefficients",
			"outputs": [
				{
					"internalType": "int256",
					"name": "",
					"type": "int256"
				},
				{
					"internalType": "int256",
					"name": "",
					"type": "int256"
				}
			],
			"stateMutability": "view",
			"type": "function"
		},
		{
			"inputs": [
				{
					"internalType": "int256[]",
					"name": "x",
					"type": "int256[]"
				},
				{
					"internalType": "int256[]",
					"name": "y",
					"type": "int256[]"
				}
			],
			"name": "covariance",
			"outputs": [
				{
					"internalType": "int256",
					"name": "covar",
					"type": "int256"
				}
			],
			"stateMutability": "view",
			"type": "function"
		},
		{
			"inputs": [
				{
					"internalType": "int256[]",
					"name": "x",
					"type": "int256[]"
				}
			],
			"name": "mean",
			"outputs": [
				{
					"internalType": "int256",
					"name": "mean_value",
					"type": "int256"
				}
			],
			"stateMutability": "view",
			"type": "function"
		},
		{
			"inputs": [],
			"name": "model_show",
			"outputs": [
				{
					"internalType": "int256",
					"name": "",
					"type": "int256"
				},
				{
					"internalType": "int256",
					"name": "",
					"type": "int256"
				}
			],
			"stateMutability": "view",
			"type": "function"
		},
		{
			"inputs": [],
			"name": "simple_linear_regression",
			"outputs": [
				{
					"internalType": "int256[5]",
					"name": "",
					"type": "int256[5]"
				}
			],
			"stateMutability": "view",
			"type": "function"
		},
		{
			"inputs": [
				{
					"internalType": "int256[]",
					"name": "x",
					"type": "int256[]"
				}
			],
			"name": "variance",
			"outputs": [
				{
					"internalType": "int256",
					"name": "var_value",
					"type": "int256"
				}
			],
			"stateMutability": "view",
			"type": "function"
		}
	]
}