{
	"data": {
		"bytecode": {
			"linkReferences": {},
			"object": "6080604052670de0b6b3a76400006000556706f05b59d3b2000060015534801561002857600080fd5b5061292f806100386000396000f3fe608060405234801561001057600080fd5b506004361061007d5760003560e01c806336baacae1161005b57806336baacae146101125780635e4cc571146101425780638fcd95bb14610172578063afaa363b146101a25761007d565b806303b3a14f1461008257806307990847146100b257806330e738a7146100e2575b600080fd5b61009c6004803603810190610097919061203b565b6101d2565b6040516100a991906123a1565b60405180910390f35b6100cc60048036038101906100c79190611fd4565b610511565b6040516100d991906123a1565b60405180910390f35b6100fc60048036038101906100f7919061217b565b6109b3565b60405161010991906123de565b60405180910390f35b61012c60048036038101906101279190611f41565b6109bd565b60405161013991906123a1565b60405180910390f35b61015c6004803603810190610157919061210f565b610ba3565b60405161016991906123c3565b60405180910390f35b61018c600480360381019061018791906120ce565b610cec565b60405161019991906123a1565b60405180910390f35b6101bc60048036038101906101b79190611f00565b610cf6565b6040516101c9919061237f565b60405180910390f35b606060005b838110156105055760005b86518110156104f1576000610237888381518110610229577f4e487b7100000000000000000000000000000000000000000000000000000000600052603260045260246000fd5b602002602001015186610ba3565b9050600081898481518110610275577f4e487b7100000000000000000000000000000000000000000000000000000000600052603260045260246000fd5b602002602001015160018b86815181106102b8577f4e487b7100000000000000000000000000000000000000000000000000000000600052603260045260246000fd5b6020026020010151516102cb919061270f565b81518110610302577f4e487b7100000000000000000000000000000000000000000000000000000000600052603260045260246000fd5b6020026020010151610314919061267b565b905060005b60018a8581518110610354577f4e487b7100000000000000000000000000000000000000000000000000000000600052603260045260246000fd5b602002602001015151610367919061270f565b8110156104db5761042061039a6103876103818c86610d00565b86610d00565b85600054610395919061267b565b610d00565b8b86815181106103d3577f4e487b7100000000000000000000000000000000000000000000000000000000600052603260045260246000fd5b60200260200101518381518110610413577f4e487b7100000000000000000000000000000000000000000000000000000000600052603260045260246000fd5b6020026020010151610d00565b8760018361042e9190612625565b81518110610465577f4e487b7100000000000000000000000000000000000000000000000000000000600052603260045260246000fd5b60200260200101516104779190612591565b876001836104859190612625565b815181106104bc577f4e487b7100000000000000000000000000000000000000000000000000000000600052603260045260246000fd5b60200260200101818152505080806104d3906127ca565b915050610319565b50505080806104e9906127ca565b9150506101e2565b5080806104fd906127ca565b9150506101d7565b50819050949350505050565b606060008460008151811061054f577f4e487b7100000000000000000000000000000000000000000000000000000000600052603260045260246000fd5b602002602001015151905060008167ffffffffffffffff81111561059c577f4e487b7100000000000000000000000000000000000000000000000000000000600052604160045260246000fd5b6040519080825280602002602001820160405280156105ca5781602001602082028036833780820191505090505b50905060005b8660008151811061060a577f4e487b7100000000000000000000000000000000000000000000000000000000600052603260045260246000fd5b602002602001015151811015610674576000828281518110610655577f4e487b7100000000000000000000000000000000000000000000000000000000600052603260045260246000fd5b602002602001018181525050808061066c906127ca565b9150506105d0565b5060005b848110156109a65760005b87518110156109925760006106d88983815181106106ca577f4e487b7100000000000000000000000000000000000000000000000000000000600052603260045260246000fd5b602002602001015185610ba3565b90506000818a8481518110610716577f4e487b7100000000000000000000000000000000000000000000000000000000600052603260045260246000fd5b602002602001015160018c8681518110610759577f4e487b7100000000000000000000000000000000000000000000000000000000600052603260045260246000fd5b60200260200101515161076c919061270f565b815181106107a3577f4e487b7100000000000000000000000000000000000000000000000000000000600052603260045260246000fd5b60200260200101516107b5919061267b565b905060005b60018b85815181106107f5577f4e487b7100000000000000000000000000000000000000000000000000000000600052603260045260246000fd5b602002602001015151610808919061270f565b81101561097c576108c161083b6108286108228d86610d00565b86610d00565b85600054610836919061267b565b610d00565b8c8681518110610874577f4e487b7100000000000000000000000000000000000000000000000000000000600052603260045260246000fd5b602002602001015183815181106108b4577f4e487b7100000000000000000000000000000000000000000000000000000000600052603260045260246000fd5b6020026020010151610d00565b866001836108cf9190612625565b81518110610906577f4e487b7100000000000000000000000000000000000000000000000000000000600052603260045260246000fd5b60200260200101516109189190612591565b866001836109269190612625565b8151811061095d577f4e487b7100000000000000000000000000000000000000000000000000000000600052603260045260246000fd5b6020026020010181815250508080610974906127ca565b9150506107ba565b505050808061098a906127ca565b915050610683565b50808061099e906127ca565b915050610678565b5080925050509392505050565b6060819050919050565b60606000845167ffffffffffffffff811115610a02577f4e487b7100000000000000000000000000000000000000000000000000000000600052604160045260246000fd5b604051908082528060200260200182016040528015610a305781602001602082028036833780820191505090505b509050600086600081518110610a6f577f4e487b7100000000000000000000000000000000000000000000000000000000600052603260045260246000fd5b60200260200101515190506060610a87888787610511565b905060005b8751811015610b94576000610ae1898381518110610ad3577f4e487b7100000000000000000000000000000000000000000000000000000000600052603260045260246000fd5b602002602001015184610ba3565b90506001548112610b38576001858381518110610b27577f4e487b7100000000000000000000000000000000000000000000000000000000600052603260045260246000fd5b602002602001018181525050610b80565b6000858381518110610b73577f4e487b7100000000000000000000000000000000000000000000000000000000600052603260045260246000fd5b6020026020010181815250505b508080610b8c906127ca565b915050610a8c565b50829350505050949350505050565b60008082600081518110610be0577f4e487b7100000000000000000000000000000000000000000000000000000000600052603260045260246000fd5b6020026020010151905060005b60018551610bfb919061270f565b811015610cb857610c9884600183610c139190612625565b81518110610c4a577f4e487b7100000000000000000000000000000000000000000000000000000000600052603260045260246000fd5b6020026020010151868381518110610c8b577f4e487b7100000000000000000000000000000000000000000000000000000000600052603260045260246000fd5b6020026020010151610d00565b82610ca39190612591565b91508080610cb0906127ca565b915050610bed565b50610ce3600054610cd183610ccc90612813565b610e5d565b600054610cde9190612591565b610f46565b91505092915050565b6060819050919050565b6060819050919050565b60007f8000000000000000000000000000000000000000000000000000000000000000831480610d4f57507f800000000000000000000000000000000000000000000000000000000000000082145b15610d86576040517f3406846c00000000000000000000000000000000000000000000000000000000815260040160405180910390fd5b60008060008512610d975784610d9c565b846000035b915060008412610dac5783610db1565b836000035b90506000610dbf83836110b2565b90507f7fffffffffffffffffffffffffffffffffffffffffffffffffffffffffffffff811115610e2657806040517fbf79e8d9000000000000000000000000000000000000000000000000000000008152600401610e1d9190612400565b60405180910390fd5b600080600160000388139150600160000387139050600181831814610e4b5782610e50565b826000035b9550505050505092915050565b60007ffffffffffffffffffffffffffffffffffffffffffffffffdc0d0570925a462ce821215610e905760009050610f41565b680736ea4425c11ac6318212610edd57816040517f99bb7541000000000000000000000000000000000000000000000000000000008152600401610ed491906123c3565b60405180910390fd5b60006714057b7ef767814f83029050610f3d670de0b6b3a76400006706f05b59d3b20000830181610f37577f4e487b7100000000000000000000000000000000000000000000000000000000600052601260045260246000fd5b056111d6565b9150505b919050565b60007f8000000000000000000000000000000000000000000000000000000000000000831480610f9557507f800000000000000000000000000000000000000000000000000000000000000082145b15610fcc576040517fb3c754a300000000000000000000000000000000000000000000000000000000815260040160405180910390fd5b60008060008512610fdd5784610fe2565b846000035b915060008412610ff25783610ff7565b836000035b9050600061100e83670de0b6b3a764000084611310565b90507f7fffffffffffffffffffffffffffffffffffffffffffffffffffffffffffffff81111561107557806040517f7cb4bef500000000000000000000000000000000000000000000000000000000815260040161106c9190612400565b60405180910390fd5b60008060016000038813915060016000038713905060018183181461109a57826110a5565b826110a490612813565b5b9550505050505092915050565b60008060008019848609848602925082811083820303915050670de0b6b3a7640000811061111757806040517fd31b340200000000000000000000000000000000000000000000000000000000815260040161110e9190612400565b60405180910390fd5b600080670de0b6b3a764000086880991506706f05b59d3b1ffff82119050600083141561118a5780670de0b6b3a7640000858161117d577f4e487b7100000000000000000000000000000000000000000000000000000000600052601260045260246000fd5b04019450505050506111d0565b807faccb18165bd6fe31ae1cf318dc5b51eee0e1ba569b88cd74c1773b91fac1066960016204000080600003040186851186030262040000858803041702019450505050505b92915050565b600080821215611269577ffffffffffffffffffffffffffffffffffffffffffffffffcc22e87f6eb468eeb821215611211576000905061130b565b61121d826000036111d6565b6ec097ce7bc90715b34b9f100000000081611261577f4e487b7100000000000000000000000000000000000000000000000000000000600052601260045260246000fd5b05905061130a565b680a688906bd8b00000082126112b657816040517fe69458f90000000000000000000000000000000000000000000000000000000081526004016112ad91906123c3565b60405180910390fd5b6000670de0b6b3a7640000604084901b816112fa577f4e487b7100000000000000000000000000000000000000000000000000000000600052601260045260246000fd5b0490506113068161144c565b9150505b5b919050565b60008060008019858709858702925082811083820303915050600081141561137257838281611368577f4e487b7100000000000000000000000000000000000000000000000000000000600052601260045260246000fd5b0492505050611445565b8381106113b85780846040517f773cc18c0000000000000000000000000000000000000000000000000000000081526004016113af92919061241b565b60405180910390fd5b60008486880990508281118203915080830392506000600186190186169050808604955080840493506001818260000304019050808302841793506000600287600302189050808702600203810290508087026002038102905080870260020381029050808702600203810290508087026002038102905080870260020381029050808502955050505050505b9392505050565b600077800000000000000000000000000000000000000000000000905060006780000000000000008316111561148f57604068016a09e667f3bcc9098202901c90505b6000674000000000000000831611156114b55760406801306fe0a31b7152df8202901c90505b6000672000000000000000831611156114db5760406801172b83c7d517adce8202901c90505b60006710000000000000008316111561150157604068010b5586cf9890f62a8202901c90505b6000670800000000000000831611156115275760406801059b0d31585743ae8202901c90505b60006704000000000000008316111561154d576040680102c9a3e778060ee78202901c90505b60006702000000000000008316111561157357604068010163da9fb33356d88202901c90505b600067010000000000000083161115611599576040680100b1afa5abcbed618202901c90505b60006680000000000000831611156115be57604068010058c86da1c09ea28202901c90505b60006640000000000000831611156115e35760406801002c605e2e8cec508202901c90505b6000662000000000000083161115611608576040680100162f3904051fa18202901c90505b600066100000000000008316111561162d5760406801000b175effdc76ba8202901c90505b6000660800000000000083161115611652576040680100058ba01fb9f96d8202901c90505b600066040000000000008316111561167757604068010002c5cc37da94928202901c90505b600066020000000000008316111561169c5760406801000162e525ee05478202901c90505b60006601000000000000831611156116c157604068010000b17255775c048202901c90505b600065800000000000831611156116e55760406801000058b91b5bc9ae8202901c90505b60006540000000000083161115611709576040680100002c5c89d5ec6d8202901c90505b6000652000000000008316111561172d57604068010000162e43f4f8318202901c90505b60006510000000000083161115611751576040680100000b1721bcfc9a8202901c90505b6000650800000000008316111561177557604068010000058b90cf1e6e8202901c90505b600065040000000000831611156117995760406801000002c5c863b73f8202901c90505b600065020000000000831611156117bd576040680100000162e430e5a28202901c90505b600065010000000000831611156117e15760406801000000b1721835518202901c90505b600064800000000083161115611804576040680100000058b90c0b498202901c90505b60006440000000008316111561182757604068010000002c5c8601cc8202901c90505b60006420000000008316111561184a5760406801000000162e42fff08202901c90505b60006410000000008316111561186d57604068010000000b17217fbb8202901c90505b6000640800000000831611156118905760406801000000058b90bfce8202901c90505b6000640400000000831611156118b3576040680100000002c5c85fe38202901c90505b6000640200000000831611156118d657604068010000000162e42ff18202901c90505b6000640100000000831611156118f9576040680100000000b17217f88202901c90505b600063800000008316111561191b57604068010000000058b90bfc8202901c90505b600063400000008316111561193d5760406801000000002c5c85fe8202901c90505b600063200000008316111561195f576040680100000000162e42ff8202901c90505b60006310000000831611156119815760406801000000000b17217f8202901c90505b60006308000000831611156119a3576040680100000000058b90c08202901c90505b60006304000000831611156119c557604068010000000002c5c8608202901c90505b60006302000000831611156119e75760406801000000000162e4308202901c90505b6000630100000083161115611a0957604068010000000000b172188202901c90505b60006280000083161115611a2a5760406801000000000058b90c8202901c90505b60006240000083161115611a4b576040680100000000002c5c868202901c90505b60006220000083161115611a6c57604068010000000000162e438202901c90505b60006210000083161115611a8d576040680100000000000b17218202901c90505b60006208000083161115611aae57604068010000000000058b918202901c90505b60006204000083161115611acf5760406801000000000002c5c88202901c90505b60006202000083161115611af0576040680100000000000162e48202901c90505b60006201000083161115611b115760406801000000000000b1728202901c90505b600061800083161115611b31576040680100000000000058b98202901c90505b600061400083161115611b5157604068010000000000002c5d8202901c90505b600061200083161115611b715760406801000000000000162e8202901c90505b600061100083161115611b9157604068010000000000000b178202901c90505b600061080083161115611bb15760406801000000000000058c8202901c90505b600061040083161115611bd1576040680100000000000002c68202901c90505b600061020083161115611bf1576040680100000000000001638202901c90505b600061010083161115611c11576040680100000000000000b18202901c90505b6000608083161115611c30576040680100000000000000598202901c90505b6000604083161115611c4f5760406801000000000000002c8202901c90505b6000602083161115611c6e576040680100000000000000168202901c90505b6000601083161115611c8d5760406801000000000000000b8202901c90505b6000600883161115611cac576040680100000000000000068202901c90505b6000600483161115611ccb576040680100000000000000038202901c90505b6000600283161115611cea576040680100000000000000018202901c90505b6000600183161115611d09576040680100000000000000018202901c90505b670de0b6b3a764000081029050604082901c60bf0381901c9050919050565b6000611d3b611d3684612469565b612444565b90508083825260208201905082856020860282011115611d5a57600080fd5b60005b85811015611da457813567ffffffffffffffff811115611d7c57600080fd5b808601611d898982611e82565b85526020850194506020840193505050600181019050611d5d565b5050509392505050565b6000611dc1611dbc84612495565b612444565b90508083825260208201905082856020860282011115611de057600080fd5b60005b85811015611e105781611df68882611eac565b845260208401935060208301925050600181019050611de3565b5050509392505050565b6000611e2d611e28846124c1565b612444565b905082815260208101848484011115611e4557600080fd5b611e50848285612757565b509392505050565b600082601f830112611e6957600080fd5b8135611e79848260208601611d28565b91505092915050565b600082601f830112611e9357600080fd5b8135611ea3848260208601611dae565b91505092915050565b600081359050611ebb816128cb565b92915050565b600082601f830112611ed257600080fd5b8135611ee2848260208601611e1a565b91505092915050565b600081359050611efa816128e2565b92915050565b600060208284031215611f1257600080fd5b600082013567ffffffffffffffff811115611f2c57600080fd5b611f3884828501611e58565b91505092915050565b60008060008060808587031215611f5757600080fd5b600085013567ffffffffffffffff811115611f7157600080fd5b611f7d87828801611e58565b945050602085013567ffffffffffffffff811115611f9a57600080fd5b611fa687828801611e58565b9350506040611fb787828801611eac565b9250506060611fc887828801611eeb565b91505092959194509250565b600080600060608486031215611fe957600080fd5b600084013567ffffffffffffffff81111561200357600080fd5b61200f86828701611e58565b935050602061202086828701611eac565b925050604061203186828701611eeb565b9150509250925092565b6000806000806080858703121561205157600080fd5b600085013567ffffffffffffffff81111561206b57600080fd5b61207787828801611e58565b945050602061208887828801611eac565b935050604061209987828801611eeb565b925050606085013567ffffffffffffffff8111156120b657600080fd5b6120c287828801611e82565b91505092959194509250565b6000602082840312156120e057600080fd5b600082013567ffffffffffffffff8111156120fa57600080fd5b61210684828501611e82565b91505092915050565b6000806040838503121561212257600080fd5b600083013567ffffffffffffffff81111561213c57600080fd5b61214885828601611e82565b925050602083013567ffffffffffffffff81111561216557600080fd5b61217185828601611e82565b9150509250929050565b60006020828403121561218d57600080fd5b600082013567ffffffffffffffff8111156121a757600080fd5b6121b384828501611ec1565b91505092915050565b60006121c8838361225d565b905092915050565b60006121dc8383612319565b60208301905092915050565b60006121f382612512565b6121fd818561254d565b93508360208202850161220f856124f2565b8060005b8581101561224b578484038952815161222c85826121bc565b945061223783612533565b925060208a01995050600181019050612213565b50829750879550505050505092915050565b60006122688261251d565b612272818561255e565b935061227d83612502565b8060005b838110156122ae57815161229588826121d0565b97506122a083612540565b925050600181019050612281565b5085935050505092915050565b60006122c68261251d565b6122d0818561256f565b93506122db83612502565b8060005b8381101561230c5781516122f388826121d0565b97506122fe83612540565b9250506001810190506122df565b5085935050505092915050565b61232281612743565b82525050565b61233181612743565b82525050565b600061234282612528565b61234c8185612580565b935061235c818560208601612766565b612365816128ba565b840191505092915050565b6123798161274d565b82525050565b6000602082019050818103600083015261239981846121e8565b905092915050565b600060208201905081810360008301526123bb81846122bb565b905092915050565b60006020820190506123d86000830184612328565b92915050565b600060208201905081810360008301526123f88184612337565b905092915050565b60006020820190506124156000830184612370565b92915050565b60006040820190506124306000830185612370565b61243d6020830184612370565b9392505050565b600061244e61245f565b905061245a8282612799565b919050565b6000604051905090565b600067ffffffffffffffff8211156124845761248361288b565b5b602082029050602081019050919050565b600067ffffffffffffffff8211156124b0576124af61288b565b5b602082029050602081019050919050565b600067ffffffffffffffff8211156124dc576124db61288b565b5b6124e5826128ba565b9050602081019050919050565b6000819050602082019050919050565b6000819050602082019050919050565b600081519050919050565b600081519050919050565b600081519050919050565b6000602082019050919050565b6000602082019050919050565b600082825260208201905092915050565b600082825260208201905092915050565b600082825260208201905092915050565b600082825260208201905092915050565b600061259c82612743565b91506125a783612743565b9250817f7fffffffffffffffffffffffffffffffffffffffffffffffffffffffffffffff038313600083121516156125e2576125e161285c565b5b817f800000000000000000000000000000000000000000000000000000000000000003831260008312161561261a5761261961285c565b5b828201905092915050565b60006126308261274d565b915061263b8361274d565b9250827fffffffffffffffffffffffffffffffffffffffffffffffffffffffffffffffff038211156126705761266f61285c565b5b828201905092915050565b600061268682612743565b915061269183612743565b9250827f8000000000000000000000000000000000000000000000000000000000000000018212600084121516156126cc576126cb61285c565b5b827f7fffffffffffffffffffffffffffffffffffffffffffffffffffffffffffffff0182136000841216156127045761270361285c565b5b828203905092915050565b600061271a8261274d565b91506127258361274d565b9250828210156127385761273761285c565b5b828203905092915050565b6000819050919050565b6000819050919050565b82818337600083830152505050565b60005b83811015612784578082015181840152602081019050612769565b83811115612793576000848401525b50505050565b6127a2826128ba565b810181811067ffffffffffffffff821117156127c1576127c061288b565b5b80604052505050565b60006127d58261274d565b91507fffffffffffffffffffffffffffffffffffffffffffffffffffffffffffffffff8214156128085761280761285c565b5b600182019050919050565b600061281e82612743565b91507f80000000000000000000000000000000000000000000000000000000000000008214156128515761285061285c565b5b816000039050919050565b7f4e487b7100000000000000000000000000000000000000000000000000000000600052601160045260246000fd5b7f4e487b7100000000000000000000000000000000000000000000000000000000600052604160045260246000fd5b6000601f19601f8301169050919050565b6128d481612743565b81146128df57600080fd5b50565b6128eb8161274d565b81146128f657600080fd5b5056fea2646970667358221220155fe34bf8573d61845db76297ef7c716612992aca8b2e1361d1bddc76f4098e64736f6c63430008040033",
			"opcodes": "PUSH1 0x80 PUSH1 0x40 MSTORE PUSH8 0xDE0B6B3A7640000 PUSH1 0x0 SSTORE PUSH8 0x6F05B59D3B20000 PUSH1 0x1 SSTORE CALLVALUE DUP1 ISZERO PUSH2 0x28 JUMPI PUSH1 0x0 DUP1 REVERT JUMPDEST POP PUSH2 0x292F DUP1 PUSH2 0x38 PUSH1 0x0 CODECOPY PUSH1 0x0 RETURN INVALID PUSH1 0x80 PUSH1 0x40 MSTORE CALLVALUE DUP1 ISZERO PUSH2 0x10 JUMPI PUSH1 0x0 DUP1 REVERT JUMPDEST POP PUSH1 0x4 CALLDATASIZE LT PUSH2 0x7D JUMPI PUSH1 0x0 CALLDATALOAD PUSH1 0xE0 SHR DUP1 PUSH4 0x36BAACAE GT PUSH2 0x5B JUMPI DUP1 PUSH4 0x36BAACAE EQ PUSH2 0x112 JUMPI DUP1 PUSH4 0x5E4CC571 EQ PUSH2 0x142 JUMPI DUP1 PUSH4 0x8FCD95BB EQ PUSH2 0x172 JUMPI DUP1 PUSH4 0xAFAA363B EQ PUSH2 0x1A2 JUMPI PUSH2 0x7D JUMP JUMPDEST DUP1 PUSH4 0x3B3A14F EQ PUSH2 0x82 JUMPI DUP1 PUSH4 0x7990847 EQ PUSH2 0xB2 JUMPI DUP1 PUSH4 0x30E738A7 EQ PUSH2 0xE2 JUMPI JUMPDEST PUSH1 0x0 DUP1 REVERT JUMPDEST PUSH2 0x9C PUSH1 0x4 DUP1 CALLDATASIZE SUB DUP2 ADD SWAP1 PUSH2 0x97 SWAP2 SWAP1 PUSH2 0x203B JUMP JUMPDEST PUSH2 0x1D2 JUMP JUMPDEST PUSH1 0x40 MLOAD PUSH2 0xA9 SWAP2 SWAP1 PUSH2 0x23A1 JUMP JUMPDEST PUSH1 0x40 MLOAD DUP1 SWAP2 SUB SWAP1 RETURN JUMPDEST PUSH2 0xCC PUSH1 0x4 DUP1 CALLDATASIZE SUB DUP2 ADD SWAP1 PUSH2 0xC7 SWAP2 SWAP1 PUSH2 0x1FD4 JUMP JUMPDEST PUSH2 0x511 JUMP JUMPDEST PUSH1 0x40 MLOAD PUSH2 0xD9 SWAP2 SWAP1 PUSH2 0x23A1 JUMP JUMPDEST PUSH1 0x40 MLOAD DUP1 SWAP2 SUB SWAP1 RETURN JUMPDEST PUSH2 0xFC PUSH1 0x4 DUP1 CALLDATASIZE SUB DUP2 ADD SWAP1 PUSH2 0xF7 SWAP2 SWAP1 PUSH2 0x217B JUMP JUMPDEST PUSH2 0x9B3 JUMP JUMPDEST PUSH1 0x40 MLOAD PUSH2 0x109 SWAP2 SWAP1 PUSH2 0x23DE JUMP JUMPDEST PUSH1 0x40 MLOAD DUP1 SWAP2 SUB SWAP1 RETURN JUMPDEST PUSH2 0x12C PUSH1 0x4 DUP1 CALLDATASIZE SUB DUP2 ADD SWAP1 PUSH2 0x127 SWAP2 SWAP1 PUSH2 0x1F41 JUMP JUMPDEST PUSH2 0x9BD JUMP JUMPDEST PUSH1 0x40 MLOAD PUSH2 0x139 SWAP2 SWAP1 PUSH2 0x23A1 JUMP JUMPDEST PUSH1 0x40 MLOAD DUP1 SWAP2 SUB SWAP1 RETURN JUMPDEST PUSH2 0x15C PUSH1 0x4 DUP1 CALLDATASIZE SUB DUP2 ADD SWAP1 PUSH2 0x157 SWAP2 SWAP1 PUSH2 0x210F JUMP JUMPDEST PUSH2 0xBA3 JUMP JUMPDEST PUSH1 0x40 MLOAD PUSH2 0x169 SWAP2 SWAP1 PUSH2 0x23C3 JUMP JUMPDEST PUSH1 0x40 MLOAD DUP1 SWAP2 SUB SWAP1 RETURN JUMPDEST PUSH2 0x18C PUSH1 0x4 DUP1 CALLDATASIZE SUB DUP2 ADD SWAP1 PUSH2 0x187 SWAP2 SWAP1 PUSH2 0x20CE JUMP JUMPDEST PUSH2 0xCEC JUMP JUMPDEST PUSH1 0x40 MLOAD PUSH2 0x199 SWAP2 SWAP1 PUSH2 0x23A1 JUMP JUMPDEST PUSH1 0x40 MLOAD DUP1 SWAP2 SUB SWAP1 RETURN JUMPDEST PUSH2 0x1BC PUSH1 0x4 DUP1 CALLDATASIZE SUB DUP2 ADD SWAP1 PUSH2 0x1B7 SWAP2 SWAP1 PUSH2 0x1F00 JUMP JUMPDEST PUSH2 0xCF6 JUMP JUMPDEST PUSH1 0x40 MLOAD PUSH2 0x1C9 SWAP2 SWAP1 PUSH2 0x237F JUMP JUMPDEST PUSH1 0x40 MLOAD DUP1 SWAP2 SUB SWAP1 RETURN JUMPDEST PUSH1 0x60 PUSH1 0x0 JUMPDEST DUP4 DUP2 LT ISZERO PUSH2 0x505 JUMPI PUSH1 0x0 JUMPDEST DUP7 MLOAD DUP2 LT ISZERO PUSH2 0x4F1 JUMPI PUSH1 0x0 PUSH2 0x237 DUP9 DUP4 DUP2 MLOAD DUP2 LT PUSH2 0x229 JUMPI PUSH32 0x4E487B7100000000000000000000000000000000000000000000000000000000 PUSH1 0x0 MSTORE PUSH1 0x32 PUSH1 0x4 MSTORE PUSH1 0x24 PUSH1 0x0 REVERT JUMPDEST PUSH1 0x20 MUL PUSH1 0x20 ADD ADD MLOAD DUP7 PUSH2 0xBA3 JUMP JUMPDEST SWAP1 POP PUSH1 0x0 DUP2 DUP10 DUP5 DUP2 MLOAD DUP2 LT PUSH2 0x275 JUMPI PUSH32 0x4E487B7100000000000000000000000000000000000000000000000000000000 PUSH1 0x0 MSTORE PUSH1 0x32 PUSH1 0x4 MSTORE PUSH1 0x24 PUSH1 0x0 REVERT JUMPDEST PUSH1 0x20 MUL PUSH1 0x20 ADD ADD MLOAD PUSH1 0x1 DUP12 DUP7 DUP2 MLOAD DUP2 LT PUSH2 0x2B8 JUMPI PUSH32 0x4E487B7100000000000000000000000000000000000000000000000000000000 PUSH1 0x0 MSTORE PUSH1 0x32 PUSH1 0x4 MSTORE PUSH1 0x24 PUSH1 0x0 REVERT JUMPDEST PUSH1 0x20 MUL PUSH1 0x20 ADD ADD MLOAD MLOAD PUSH2 0x2CB SWAP2 SWAP1 PUSH2 0x270F JUMP JUMPDEST DUP2 MLOAD DUP2 LT PUSH2 0x302 JUMPI PUSH32 0x4E487B7100000000000000000000000000000000000000000000000000000000 PUSH1 0x0 MSTORE PUSH1 0x32 PUSH1 0x4 MSTORE PUSH1 0x24 PUSH1 0x0 REVERT JUMPDEST PUSH1 0x20 MUL PUSH1 0x20 ADD ADD MLOAD PUSH2 0x314 SWAP2 SWAP1 PUSH2 0x267B JUMP JUMPDEST SWAP1 POP PUSH1 0x0 JUMPDEST PUSH1 0x1 DUP11 DUP6 DUP2 MLOAD DUP2 LT PUSH2 0x354 JUMPI PUSH32 0x4E487B7100000000000000000000000000000000000000000000000000000000 PUSH1 0x0 MSTORE PUSH1 0x32 PUSH1 0x4 MSTORE PUSH1 0x24 PUSH1 0x0 REVERT JUMPDEST PUSH1 0x20 MUL PUSH1 0x20 ADD ADD MLOAD MLOAD PUSH2 0x367 SWAP2 SWAP1 PUSH2 0x270F JUMP JUMPDEST DUP2 LT ISZERO PUSH2 0x4DB JUMPI PUSH2 0x420 PUSH2 0x39A PUSH2 0x387 PUSH2 0x381 DUP13 DUP7 PUSH2 0xD00 JUMP JUMPDEST DUP7 PUSH2 0xD00 JUMP JUMPDEST DUP6 PUSH1 0x0 SLOAD PUSH2 0x395 SWAP2 SWAP1 PUSH2 0x267B JUMP JUMPDEST PUSH2 0xD00 JUMP JUMPDEST DUP12 DUP7 DUP2 MLOAD DUP2 LT PUSH2 0x3D3 JUMPI PUSH32 0x4E487B7100000000000000000000000000000000000000000000000000000000 PUSH1 0x0 MSTORE PUSH1 0x32 PUSH1 0x4 MSTORE PUSH1 0x24 PUSH1 0x0 REVERT JUMPDEST PUSH1 0x20 MUL PUSH1 0x20 ADD ADD MLOAD DUP4 DUP2 MLOAD DUP2 LT PUSH2 0x413 JUMPI PUSH32 0x4E487B7100000000000000000000000000000000000000000000000000000000 PUSH1 0x0 MSTORE PUSH1 0x32 PUSH1 0x4 MSTORE PUSH1 0x24 PUSH1 0x0 REVERT JUMPDEST PUSH1 0x20 MUL PUSH1 0x20 ADD ADD MLOAD PUSH2 0xD00 JUMP JUMPDEST DUP8 PUSH1 0x1 DUP4 PUSH2 0x42E SWAP2 SWAP1 PUSH2 0x2625 JUMP JUMPDEST DUP2 MLOAD DUP2 LT PUSH2 0x465 JUMPI PUSH32 0x4E487B7100000000000000000000000000000000000000000000000000000000 PUSH1 0x0 MSTORE PUSH1 0x32 PUSH1 0x4 MSTORE PUSH1 0x24 PUSH1 0x0 REVERT JUMPDEST PUSH1 0x20 MUL PUSH1 0x20 ADD ADD MLOAD PUSH2 0x477 SWAP2 SWAP1 PUSH2 0x2591 JUMP JUMPDEST DUP8 PUSH1 0x1 DUP4 PUSH2 0x485 SWAP2 SWAP1 PUSH2 0x2625 JUMP JUMPDEST DUP2 MLOAD DUP2 LT PUSH2 0x4BC JUMPI PUSH32 0x4E487B7100000000000000000000000000000000000000000000000000000000 PUSH1 0x0 MSTORE PUSH1 0x32 PUSH1 0x4 MSTORE PUSH1 0x24 PUSH1 0x0 REVERT JUMPDEST PUSH1 0x20 MUL PUSH1 0x20 ADD ADD DUP2 DUP2 MSTORE POP POP DUP1 DUP1 PUSH2 0x4D3 SWAP1 PUSH2 0x27CA JUMP JUMPDEST SWAP2 POP POP PUSH2 0x319 JUMP JUMPDEST POP POP POP DUP1 DUP1 PUSH2 0x4E9 SWAP1 PUSH2 0x27CA JUMP JUMPDEST SWAP2 POP POP PUSH2 0x1E2 JUMP JUMPDEST POP DUP1 DUP1 PUSH2 0x4FD SWAP1 PUSH2 0x27CA JUMP JUMPDEST SWAP2 POP POP PUSH2 0x1D7 JUMP JUMPDEST POP DUP2 SWAP1 POP SWAP5 SWAP4 POP POP POP POP JUMP JUMPDEST PUSH1 0x60 PUSH1 0x0 DUP5 PUSH1 0x0 DUP2 MLOAD DUP2 LT PUSH2 0x54F JUMPI PUSH32 0x4E487B7100000000000000000000000000000000000000000000000000000000 PUSH1 0x0 MSTORE PUSH1 0x32 PUSH1 0x4 MSTORE PUSH1 0x24 PUSH1 0x0 REVERT JUMPDEST PUSH1 0x20 MUL PUSH1 0x20 ADD ADD MLOAD MLOAD SWAP1 POP PUSH1 0x0 DUP2 PUSH8 0xFFFFFFFFFFFFFFFF DUP2 GT ISZERO PUSH2 0x59C JUMPI PUSH32 0x4E487B7100000000000000000000000000000000000000000000000000000000 PUSH1 0x0 MSTORE PUSH1 0x41 PUSH1 0x4 MSTORE PUSH1 0x24 PUSH1 0x0 REVERT JUMPDEST PUSH1 0x40 MLOAD SWAP1 DUP1 DUP3 MSTORE DUP1 PUSH1 0x20 MUL PUSH1 0x20 ADD DUP3 ADD PUSH1 0x40 MSTORE DUP1 ISZERO PUSH2 0x5CA JUMPI DUP2 PUSH1 0x20 ADD PUSH1 0x20 DUP3 MUL DUP1 CALLDATASIZE DUP4 CALLDATACOPY DUP1 DUP3 ADD SWAP2 POP POP SWAP1 POP JUMPDEST POP SWAP1 POP PUSH1 0x0 JUMPDEST DUP7 PUSH1 0x0 DUP2 MLOAD DUP2 LT PUSH2 0x60A JUMPI PUSH32 0x4E487B7100000000000000000000000000000000000000000000000000000000 PUSH1 0x0 MSTORE PUSH1 0x32 PUSH1 0x4 MSTORE PUSH1 0x24 PUSH1 0x0 REVERT JUMPDEST PUSH1 0x20 MUL PUSH1 0x20 ADD ADD MLOAD MLOAD DUP2 LT ISZERO PUSH2 0x674 JUMPI PUSH1 0x0 DUP3 DUP3 DUP2 MLOAD DUP2 LT PUSH2 0x655 JUMPI PUSH32 0x4E487B7100000000000000000000000000000000000000000000000000000000 PUSH1 0x0 MSTORE PUSH1 0x32 PUSH1 0x4 MSTORE PUSH1 0x24 PUSH1 0x0 REVERT JUMPDEST PUSH1 0x20 MUL PUSH1 0x20 ADD ADD DUP2 DUP2 MSTORE POP POP DUP1 DUP1 PUSH2 0x66C SWAP1 PUSH2 0x27CA JUMP JUMPDEST SWAP2 POP POP PUSH2 0x5D0 JUMP JUMPDEST POP PUSH1 0x0 JUMPDEST DUP5 DUP2 LT ISZERO PUSH2 0x9A6 JUMPI PUSH1 0x0 JUMPDEST DUP8 MLOAD DUP2 LT ISZERO PUSH2 0x992 JUMPI PUSH1 0x0 PUSH2 0x6D8 DUP10 DUP4 DUP2 MLOAD DUP2 LT PUSH2 0x6CA JUMPI PUSH32 0x4E487B7100000000000000000000000000000000000000000000000000000000 PUSH1 0x0 MSTORE PUSH1 0x32 PUSH1 0x4 MSTORE PUSH1 0x24 PUSH1 0x0 REVERT JUMPDEST PUSH1 0x20 MUL PUSH1 0x20 ADD ADD MLOAD DUP6 PUSH2 0xBA3 JUMP JUMPDEST SWAP1 POP PUSH1 0x0 DUP2 DUP11 DUP5 DUP2 MLOAD DUP2 LT PUSH2 0x716 JUMPI PUSH32 0x4E487B7100000000000000000000000000000000000000000000000000000000 PUSH1 0x0 MSTORE PUSH1 0x32 PUSH1 0x4 MSTORE PUSH1 0x24 PUSH1 0x0 REVERT JUMPDEST PUSH1 0x20 MUL PUSH1 0x20 ADD ADD MLOAD PUSH1 0x1 DUP13 DUP7 DUP2 MLOAD DUP2 LT PUSH2 0x759 JUMPI PUSH32 0x4E487B7100000000000000000000000000000000000000000000000000000000 PUSH1 0x0 MSTORE PUSH1 0x32 PUSH1 0x4 MSTORE PUSH1 0x24 PUSH1 0x0 REVERT JUMPDEST PUSH1 0x20 MUL PUSH1 0x20 ADD ADD MLOAD MLOAD PUSH2 0x76C SWAP2 SWAP1 PUSH2 0x270F JUMP JUMPDEST DUP2 MLOAD DUP2 LT PUSH2 0x7A3 JUMPI PUSH32 0x4E487B7100000000000000000000000000000000000000000000000000000000 PUSH1 0x0 MSTORE PUSH1 0x32 PUSH1 0x4 MSTORE PUSH1 0x24 PUSH1 0x0 REVERT JUMPDEST PUSH1 0x20 MUL PUSH1 0x20 ADD ADD MLOAD PUSH2 0x7B5 SWAP2 SWAP1 PUSH2 0x267B JUMP JUMPDEST SWAP1 POP PUSH1 0x0 JUMPDEST PUSH1 0x1 DUP12 DUP6 DUP2 MLOAD DUP2 LT PUSH2 0x7F5 JUMPI PUSH32 0x4E487B7100000000000000000000000000000000000000000000000000000000 PUSH1 0x0 MSTORE PUSH1 0x32 PUSH1 0x4 MSTORE PUSH1 0x24 PUSH1 0x0 REVERT JUMPDEST PUSH1 0x20 MUL PUSH1 0x20 ADD ADD MLOAD MLOAD PUSH2 0x808 SWAP2 SWAP1 PUSH2 0x270F JUMP JUMPDEST DUP2 LT ISZERO PUSH2 0x97C JUMPI PUSH2 0x8C1 PUSH2 0x83B PUSH2 0x828 PUSH2 0x822 DUP14 DUP7 PUSH2 0xD00 JUMP JUMPDEST DUP7 PUSH2 0xD00 JUMP JUMPDEST DUP6 PUSH1 0x0 SLOAD PUSH2 0x836 SWAP2 SWAP1 PUSH2 0x267B JUMP JUMPDEST PUSH2 0xD00 JUMP JUMPDEST DUP13 DUP7 DUP2 MLOAD DUP2 LT PUSH2 0x874 JUMPI PUSH32 0x4E487B7100000000000000000000000000000000000000000000000000000000 PUSH1 0x0 MSTORE PUSH1 0x32 PUSH1 0x4 MSTORE PUSH1 0x24 PUSH1 0x0 REVERT JUMPDEST PUSH1 0x20 MUL PUSH1 0x20 ADD ADD MLOAD DUP4 DUP2 MLOAD DUP2 LT PUSH2 0x8B4 JUMPI PUSH32 0x4E487B7100000000000000000000000000000000000000000000000000000000 PUSH1 0x0 MSTORE PUSH1 0x32 PUSH1 0x4 MSTORE PUSH1 0x24 PUSH1 0x0 REVERT JUMPDEST PUSH1 0x20 MUL PUSH1 0x20 ADD ADD MLOAD PUSH2 0xD00 JUMP JUMPDEST DUP7 PUSH1 0x1 DUP4 PUSH2 0x8CF SWAP2 SWAP1 PUSH2 0x2625 JUMP JUMPDEST DUP2 MLOAD DUP2 LT PUSH2 0x906 JUMPI PUSH32 0x4E487B7100000000000000000000000000000000000000000000000000000000 PUSH1 0x0 MSTORE PUSH1 0x32 PUSH1 0x4 MSTORE PUSH1 0x24 PUSH1 0x0 REVERT JUMPDEST PUSH1 0x20 MUL PUSH1 0x20 ADD ADD MLOAD PUSH2 0x918 SWAP2 SWAP1 PUSH2 0x2591 JUMP JUMPDEST DUP7 PUSH1 0x1 DUP4 PUSH2 0x926 SWAP2 SWAP1 PUSH2 0x2625 JUMP JUMPDEST DUP2 MLOAD DUP2 LT PUSH2 0x95D JUMPI PUSH32 0x4E487B7100000000000000000000000000000000000000000000000000000000 PUSH1 0x0 MSTORE PUSH1 0x32 PUSH1 0x4 MSTORE PUSH1 0x24 PUSH1 0x0 REVERT JUMPDEST PUSH1 0x20 MUL PUSH1 0x20 ADD ADD DUP2 DUP2 MSTORE POP POP DUP1 DUP1 PUSH2 0x974 SWAP1 PUSH2 0x27CA JUMP JUMPDEST SWAP2 POP POP PUSH2 0x7BA JUMP JUMPDEST POP POP POP DUP1 DUP1 PUSH2 0x98A SWAP1 PUSH2 0x27CA JUMP JUMPDEST SWAP2 POP POP PUSH2 0x683 JUMP JUMPDEST POP DUP1 DUP1 PUSH2 0x99E SWAP1 PUSH2 0x27CA JUMP JUMPDEST SWAP2 POP POP PUSH2 0x678 JUMP JUMPDEST POP DUP1 SWAP3 POP POP POP SWAP4 SWAP3 POP POP POP JUMP JUMPDEST PUSH1 0x60 DUP2 SWAP1 POP SWAP2 SWAP1 POP JUMP JUMPDEST PUSH1 0x60 PUSH1 0x0 DUP5 MLOAD PUSH8 0xFFFFFFFFFFFFFFFF DUP2 GT ISZERO PUSH2 0xA02 JUMPI PUSH32 0x4E487B7100000000000000000000000000000000000000000000000000000000 PUSH1 0x0 MSTORE PUSH1 0x41 PUSH1 0x4 MSTORE PUSH1 0x24 PUSH1 0x0 REVERT JUMPDEST PUSH1 0x40 MLOAD SWAP1 DUP1 DUP3 MSTORE DUP1 PUSH1 0x20 MUL PUSH1 0x20 ADD DUP3 ADD PUSH1 0x40 MSTORE DUP1 ISZERO PUSH2 0xA30 JUMPI DUP2 PUSH1 0x20 ADD PUSH1 0x20 DUP3 MUL DUP1 CALLDATASIZE DUP4 CALLDATACOPY DUP1 DUP3 ADD SWAP2 POP POP SWAP1 POP JUMPDEST POP SWAP1 POP PUSH1 0x0 DUP7 PUSH1 0x0 DUP2 MLOAD DUP2 LT PUSH2 0xA6F JUMPI PUSH32 0x4E487B7100000000000000000000000000000000000000000000000000000000 PUSH1 0x0 MSTORE PUSH1 0x32 PUSH1 0x4 MSTORE PUSH1 0x24 PUSH1 0x0 REVERT JUMPDEST PUSH1 0x20 MUL PUSH1 0x20 ADD ADD MLOAD MLOAD SWAP1 POP PUSH1 0x60 PUSH2 0xA87 DUP9 DUP8 DUP8 PUSH2 0x511 JUMP JUMPDEST SWAP1 POP PUSH1 0x0 JUMPDEST DUP8 MLOAD DUP2 LT ISZERO PUSH2 0xB94 JUMPI PUSH1 0x0 PUSH2 0xAE1 DUP10 DUP4 DUP2 MLOAD DUP2 LT PUSH2 0xAD3 JUMPI PUSH32 0x4E487B7100000000000000000000000000000000000000000000000000000000 PUSH1 0x0 MSTORE PUSH1 0x32 PUSH1 0x4 MSTORE PUSH1 0x24 PUSH1 0x0 REVERT JUMPDEST PUSH1 0x20 MUL PUSH1 0x20 ADD ADD MLOAD DUP5 PUSH2 0xBA3 JUMP JUMPDEST SWAP1 POP PUSH1 0x1 SLOAD DUP2 SLT PUSH2 0xB38 JUMPI PUSH1 0x1 DUP6 DUP4 DUP2 MLOAD DUP2 LT PUSH2 0xB27 JUMPI PUSH32 0x4E487B7100000000000000000000000000000000000000000000000000000000 PUSH1 0x0 MSTORE PUSH1 0x32 PUSH1 0x4 MSTORE PUSH1 0x24 PUSH1 0x0 REVERT JUMPDEST PUSH1 0x20 MUL PUSH1 0x20 ADD ADD DUP2 DUP2 MSTORE POP POP PUSH2 0xB80 JUMP JUMPDEST PUSH1 0x0 DUP6 DUP4 DUP2 MLOAD DUP2 LT PUSH2 0xB73 JUMPI PUSH32 0x4E487B7100000000000000000000000000000000000000000000000000000000 PUSH1 0x0 MSTORE PUSH1 0x32 PUSH1 0x4 MSTORE PUSH1 0x24 PUSH1 0x0 REVERT JUMPDEST PUSH1 0x20 MUL PUSH1 0x20 ADD ADD DUP2 DUP2 MSTORE POP POP JUMPDEST POP DUP1 DUP1 PUSH2 0xB8C SWAP1 PUSH2 0x27CA JUMP JUMPDEST SWAP2 POP POP PUSH2 0xA8C JUMP JUMPDEST POP DUP3 SWAP4 POP POP POP POP SWAP5 SWAP4 POP POP POP POP JUMP JUMPDEST PUSH1 0x0 DUP1 DUP3 PUSH1 0x0 DUP2 MLOAD DUP2 LT PUSH2 0xBE0 JUMPI PUSH32 0x4E487B7100000000000000000000000000000000000000000000000000000000 PUSH1 0x0 MSTORE PUSH1 0x32 PUSH1 0x4 MSTORE PUSH1 0x24 PUSH1 0x0 REVERT JUMPDEST PUSH1 0x20 MUL PUSH1 0x20 ADD ADD MLOAD SWAP1 POP PUSH1 0x0 JUMPDEST PUSH1 0x1 DUP6 MLOAD PUSH2 0xBFB SWAP2 SWAP1 PUSH2 0x270F JUMP JUMPDEST DUP2 LT ISZERO PUSH2 0xCB8 JUMPI PUSH2 0xC98 DUP5 PUSH1 0x1 DUP4 PUSH2 0xC13 SWAP2 SWAP1 PUSH2 0x2625 JUMP JUMPDEST DUP2 MLOAD DUP2 LT PUSH2 0xC4A JUMPI PUSH32 0x4E487B7100000000000000000000000000000000000000000000000000000000 PUSH1 0x0 MSTORE PUSH1 0x32 PUSH1 0x4 MSTORE PUSH1 0x24 PUSH1 0x0 REVERT JUMPDEST PUSH1 0x20 MUL PUSH1 0x20 ADD ADD MLOAD DUP7 DUP4 DUP2 MLOAD DUP2 LT PUSH2 0xC8B JUMPI PUSH32 0x4E487B7100000000000000000000000000000000000000000000000000000000 PUSH1 0x0 MSTORE PUSH1 0x32 PUSH1 0x4 MSTORE PUSH1 0x24 PUSH1 0x0 REVERT JUMPDEST PUSH1 0x20 MUL PUSH1 0x20 ADD ADD MLOAD PUSH2 0xD00 JUMP JUMPDEST DUP3 PUSH2 0xCA3 SWAP2 SWAP1 PUSH2 0x2591 JUMP JUMPDEST SWAP2 POP DUP1 DUP1 PUSH2 0xCB0 SWAP1 PUSH2 0x27CA JUMP JUMPDEST SWAP2 POP POP PUSH2 0xBED JUMP JUMPDEST POP PUSH2 0xCE3 PUSH1 0x0 SLOAD PUSH2 0xCD1 DUP4 PUSH2 0xCCC SWAP1 PUSH2 0x2813 JUMP JUMPDEST PUSH2 0xE5D JUMP JUMPDEST PUSH1 0x0 SLOAD PUSH2 0xCDE SWAP2 SWAP1 PUSH2 0x2591 JUMP JUMPDEST PUSH2 0xF46 JUMP JUMPDEST SWAP2 POP POP SWAP3 SWAP2 POP POP JUMP JUMPDEST PUSH1 0x60 DUP2 SWAP1 POP SWAP2 SWAP1 POP JUMP JUMPDEST PUSH1 0x60 DUP2 SWAP1 POP SWAP2 SWAP1 POP JUMP JUMPDEST PUSH1 0x0 PUSH32 0x8000000000000000000000000000000000000000000000000000000000000000 DUP4 EQ DUP1 PUSH2 0xD4F JUMPI POP PUSH32 0x8000000000000000000000000000000000000000000000000000000000000000 DUP3 EQ JUMPDEST ISZERO PUSH2 0xD86 JUMPI PUSH1 0x40 MLOAD PUSH32 0x3406846C00000000000000000000000000000000000000000000000000000000 DUP2 MSTORE PUSH1 0x4 ADD PUSH1 0x40 MLOAD DUP1 SWAP2 SUB SWAP1 REVERT JUMPDEST PUSH1 0x0 DUP1 PUSH1 0x0 DUP6 SLT PUSH2 0xD97 JUMPI DUP5 PUSH2 0xD9C JUMP JUMPDEST DUP5 PUSH1 0x0 SUB JUMPDEST SWAP2 POP PUSH1 0x0 DUP5 SLT PUSH2 0xDAC JUMPI DUP4 PUSH2 0xDB1 JUMP JUMPDEST DUP4 PUSH1 0x0 SUB JUMPDEST SWAP1 POP PUSH1 0x0 PUSH2 0xDBF DUP4 DUP4 PUSH2 0x10B2 JUMP JUMPDEST SWAP1 POP PUSH32 0x7FFFFFFFFFFFFFFFFFFFFFFFFFFFFFFFFFFFFFFFFFFFFFFFFFFFFFFFFFFFFFFF DUP2 GT ISZERO PUSH2 0xE26 JUMPI DUP1 PUSH1 0x40 MLOAD PUSH32 0xBF79E8D900000000000000000000000000000000000000000000000000000000 DUP2 MSTORE PUSH1 0x4 ADD PUSH2 0xE1D SWAP2 SWAP1 PUSH2 0x2400 JUMP JUMPDEST PUSH1 0x40 MLOAD DUP1 SWAP2 SUB SWAP1 REVERT JUMPDEST PUSH1 0x0 DUP1 PUSH1 0x1 PUSH1 0x0 SUB DUP9 SGT SWAP2 POP PUSH1 0x1 PUSH1 0x0 SUB DUP8 SGT SWAP1 POP PUSH1 0x1 DUP2 DUP4 XOR EQ PUSH2 0xE4B JUMPI DUP3 PUSH2 0xE50 JUMP JUMPDEST DUP3 PUSH1 0x0 SUB JUMPDEST SWAP6 POP POP POP POP POP POP SWAP3 SWAP2 POP POP JUMP JUMPDEST PUSH1 0x0 PUSH32 0xFFFFFFFFFFFFFFFFFFFFFFFFFFFFFFFFFFFFFFFFFFFFFFFDC0D0570925A462CE DUP3 SLT ISZERO PUSH2 0xE90 JUMPI PUSH1 0x0 SWAP1 POP PUSH2 0xF41 JUMP JUMPDEST PUSH9 0x736EA4425C11AC631 DUP3 SLT PUSH2 0xEDD JUMPI DUP2 PUSH1 0x40 MLOAD PUSH32 0x99BB754100000000000000000000000000000000000000000000000000000000 DUP2 MSTORE PUSH1 0x4 ADD PUSH2 0xED4 SWAP2 SWAP1 PUSH2 0x23C3 JUMP JUMPDEST PUSH1 0x40 MLOAD DUP1 SWAP2 SUB SWAP1 REVERT JUMPDEST PUSH1 0x0 PUSH8 0x14057B7EF767814F DUP4 MUL SWAP1 POP PUSH2 0xF3D PUSH8 0xDE0B6B3A7640000 PUSH8 0x6F05B59D3B20000 DUP4 ADD DUP2 PUSH2 0xF37 JUMPI PUSH32 0x4E487B7100000000000000000000000000000000000000000000000000000000 PUSH1 0x0 MSTORE PUSH1 0x12 PUSH1 0x4 MSTORE PUSH1 0x24 PUSH1 0x0 REVERT JUMPDEST SDIV PUSH2 0x11D6 JUMP JUMPDEST SWAP2 POP POP JUMPDEST SWAP2 SWAP1 POP JUMP JUMPDEST PUSH1 0x0 PUSH32 0x8000000000000000000000000000000000000000000000000000000000000000 DUP4 EQ DUP1 PUSH2 0xF95 JUMPI POP PUSH32 0x8000000000000000000000000000000000000000000000000000000000000000 DUP3 EQ JUMPDEST ISZERO PUSH2 0xFCC JUMPI PUSH1 0x40 MLOAD PUSH32 0xB3C754A300000000000000000000000000000000000000000000000000000000 DUP2 MSTORE PUSH1 0x4 ADD PUSH1 0x40 MLOAD DUP1 SWAP2 SUB SWAP1 REVERT JUMPDEST PUSH1 0x0 DUP1 PUSH1 0x0 DUP6 SLT PUSH2 0xFDD JUMPI DUP5 PUSH2 0xFE2 JUMP JUMPDEST DUP5 PUSH1 0x0 SUB JUMPDEST SWAP2 POP PUSH1 0x0 DUP5 SLT PUSH2 0xFF2 JUMPI DUP4 PUSH2 0xFF7 JUMP JUMPDEST DUP4 PUSH1 0x0 SUB JUMPDEST SWAP1 POP PUSH1 0x0 PUSH2 0x100E DUP4 PUSH8 0xDE0B6B3A7640000 DUP5 PUSH2 0x1310 JUMP JUMPDEST SWAP1 POP PUSH32 0x7FFFFFFFFFFFFFFFFFFFFFFFFFFFFFFFFFFFFFFFFFFFFFFFFFFFFFFFFFFFFFFF DUP2 GT ISZERO PUSH2 0x1075 JUMPI DUP1 PUSH1 0x40 MLOAD PUSH32 0x7CB4BEF500000000000000000000000000000000000000000000000000000000 DUP2 MSTORE PUSH1 0x4 ADD PUSH2 0x106C SWAP2 SWAP1 PUSH2 0x2400 JUMP JUMPDEST PUSH1 0x40 MLOAD DUP1 SWAP2 SUB SWAP1 REVERT JUMPDEST PUSH1 0x0 DUP1 PUSH1 0x1 PUSH1 0x0 SUB DUP9 SGT SWAP2 POP PUSH1 0x1 PUSH1 0x0 SUB DUP8 SGT SWAP1 POP PUSH1 0x1 DUP2 DUP4 XOR EQ PUSH2 0x109A JUMPI DUP3 PUSH2 0x10A5 JUMP JUMPDEST DUP3 PUSH2 0x10A4 SWAP1 PUSH2 0x2813 JUMP JUMPDEST JUMPDEST SWAP6 POP POP POP POP POP POP SWAP3 SWAP2 POP POP JUMP JUMPDEST PUSH1 0x0 DUP1 PUSH1 0x0 DUP1 NOT DUP5 DUP7 MULMOD DUP5 DUP7 MUL SWAP3 POP DUP3 DUP2 LT DUP4 DUP3 SUB SUB SWAP2 POP POP PUSH8 0xDE0B6B3A7640000 DUP2 LT PUSH2 0x1117 JUMPI DUP1 PUSH1 0x40 MLOAD PUSH32 0xD31B340200000000000000000000000000000000000000000000000000000000 DUP2 MSTORE PUSH1 0x4 ADD PUSH2 0x110E SWAP2 SWAP1 PUSH2 0x2400 JUMP JUMPDEST PUSH1 0x40 MLOAD DUP1 SWAP2 SUB SWAP1 REVERT JUMPDEST PUSH1 0x0 DUP1 PUSH8 0xDE0B6B3A7640000 DUP7 DUP9 MULMOD SWAP2 POP PUSH8 0x6F05B59D3B1FFFF DUP3 GT SWAP1 POP PUSH1 0x0 DUP4 EQ ISZERO PUSH2 0x118A JUMPI DUP1 PUSH8 0xDE0B6B3A7640000 DUP6 DUP2 PUSH2 0x117D JUMPI PUSH32 0x4E487B7100000000000000000000000000000000000000000000000000000000 PUSH1 0x0 MSTORE PUSH1 0x12 PUSH1 0x4 MSTORE PUSH1 0x24 PUSH1 0x0 REVERT JUMPDEST DIV ADD SWAP5 POP POP POP POP POP PUSH2 0x11D0 JUMP JUMPDEST DUP1 PUSH32 0xACCB18165BD6FE31AE1CF318DC5B51EEE0E1BA569B88CD74C1773B91FAC10669 PUSH1 0x1 PUSH3 0x40000 DUP1 PUSH1 0x0 SUB DIV ADD DUP7 DUP6 GT DUP7 SUB MUL PUSH3 0x40000 DUP6 DUP9 SUB DIV OR MUL ADD SWAP5 POP POP POP POP POP JUMPDEST SWAP3 SWAP2 POP POP JUMP JUMPDEST PUSH1 0x0 DUP1 DUP3 SLT ISZERO PUSH2 0x1269 JUMPI PUSH32 0xFFFFFFFFFFFFFFFFFFFFFFFFFFFFFFFFFFFFFFFFFFFFFFFCC22E87F6EB468EEB DUP3 SLT ISZERO PUSH2 0x1211 JUMPI PUSH1 0x0 SWAP1 POP PUSH2 0x130B JUMP JUMPDEST PUSH2 0x121D DUP3 PUSH1 0x0 SUB PUSH2 0x11D6 JUMP JUMPDEST PUSH15 0xC097CE7BC90715B34B9F1000000000 DUP2 PUSH2 0x1261 JUMPI PUSH32 0x4E487B7100000000000000000000000000000000000000000000000000000000 PUSH1 0x0 MSTORE PUSH1 0x12 PUSH1 0x4 MSTORE PUSH1 0x24 PUSH1 0x0 REVERT JUMPDEST SDIV SWAP1 POP PUSH2 0x130A JUMP JUMPDEST PUSH9 0xA688906BD8B000000 DUP3 SLT PUSH2 0x12B6 JUMPI DUP2 PUSH1 0x40 MLOAD PUSH32 0xE69458F900000000000000000000000000000000000000000000000000000000 DUP2 MSTORE PUSH1 0x4 ADD PUSH2 0x12AD SWAP2 SWAP1 PUSH2 0x23C3 JUMP JUMPDEST PUSH1 0x40 MLOAD DUP1 SWAP2 SUB SWAP1 REVERT JUMPDEST PUSH1 0x0 PUSH8 0xDE0B6B3A7640000 PUSH1 0x40 DUP5 SWAP1 SHL DUP2 PUSH2 0x12FA JUMPI PUSH32 0x4E487B7100000000000000000000000000000000000000000000000000000000 PUSH1 0x0 MSTORE PUSH1 0x12 PUSH1 0x4 MSTORE PUSH1 0x24 PUSH1 0x0 REVERT JUMPDEST DIV SWAP1 POP PUSH2 0x1306 DUP2 PUSH2 0x144C JUMP JUMPDEST SWAP2 POP POP JUMPDEST JUMPDEST SWAP2 SWAP1 POP JUMP JUMPDEST PUSH1 0x0 DUP1 PUSH1 0x0 DUP1 NOT DUP6 DUP8 MULMOD DUP6 DUP8 MUL SWAP3 POP DUP3 DUP2 LT DUP4 DUP3 SUB SUB SWAP2 POP POP PUSH1 0x0 DUP2 EQ ISZERO PUSH2 0x1372 JUMPI DUP4 DUP3 DUP2 PUSH2 0x1368 JUMPI PUSH32 0x4E487B7100000000000000000000000000000000000000000000000000000000 PUSH1 0x0 MSTORE PUSH1 0x12 PUSH1 0x4 MSTORE PUSH1 0x24 PUSH1 0x0 REVERT JUMPDEST DIV SWAP3 POP POP POP PUSH2 0x1445 JUMP JUMPDEST DUP4 DUP2 LT PUSH2 0x13B8 JUMPI DUP1 DUP5 PUSH1 0x40 MLOAD PUSH32 0x773CC18C00000000000000000000000000000000000000000000000000000000 DUP2 MSTORE PUSH1 0x4 ADD PUSH2 0x13AF SWAP3 SWAP2 SWAP1 PUSH2 0x241B JUMP JUMPDEST PUSH1 0x40 MLOAD DUP1 SWAP2 SUB SWAP1 REVERT JUMPDEST PUSH1 0x0 DUP5 DUP7 DUP9 MULMOD SWAP1 POP DUP3 DUP2 GT DUP3 SUB SWAP2 POP DUP1 DUP4 SUB SWAP3 POP PUSH1 0x0 PUSH1 0x1 DUP7 NOT ADD DUP7 AND SWAP1 POP DUP1 DUP7 DIV SWAP6 POP DUP1 DUP5 DIV SWAP4 POP PUSH1 0x1 DUP2 DUP3 PUSH1 0x0 SUB DIV ADD SWAP1 POP DUP1 DUP4 MUL DUP5 OR SWAP4 POP PUSH1 0x0 PUSH1 0x2 DUP8 PUSH1 0x3 MUL XOR SWAP1 POP DUP1 DUP8 MUL PUSH1 0x2 SUB DUP2 MUL SWAP1 POP DUP1 DUP8 MUL PUSH1 0x2 SUB DUP2 MUL SWAP1 POP DUP1 DUP8 MUL PUSH1 0x2 SUB DUP2 MUL SWAP1 POP DUP1 DUP8 MUL PUSH1 0x2 SUB DUP2 MUL SWAP1 POP DUP1 DUP8 MUL PUSH1 0x2 SUB DUP2 MUL SWAP1 POP DUP1 DUP8 MUL PUSH1 0x2 SUB DUP2 MUL SWAP1 POP DUP1 DUP6 MUL SWAP6 POP POP POP POP POP POP JUMPDEST SWAP4 SWAP3 POP POP POP JUMP JUMPDEST PUSH1 0x0 PUSH24 0x800000000000000000000000000000000000000000000000 SWAP1 POP PUSH1 0x0 PUSH8 0x8000000000000000 DUP4 AND GT ISZERO PUSH2 0x148F JUMPI PUSH1 0x40 PUSH9 0x16A09E667F3BCC909 DUP3 MUL SWAP1 SHR SWAP1 POP JUMPDEST PUSH1 0x0 PUSH8 0x4000000000000000 DUP4 AND GT ISZERO PUSH2 0x14B5 JUMPI PUSH1 0x40 PUSH9 0x1306FE0A31B7152DF DUP3 MUL SWAP1 SHR SWAP1 POP JUMPDEST PUSH1 0x0 PUSH8 0x2000000000000000 DUP4 AND GT ISZERO PUSH2 0x14DB JUMPI PUSH1 0x40 PUSH9 0x1172B83C7D517ADCE DUP3 MUL SWAP1 SHR SWAP1 POP JUMPDEST PUSH1 0x0 PUSH8 0x1000000000000000 DUP4 AND GT ISZERO PUSH2 0x1501 JUMPI PUSH1 0x40 PUSH9 0x10B5586CF9890F62A DUP3 MUL SWAP1 SHR SWAP1 POP JUMPDEST PUSH1 0x0 PUSH8 0x800000000000000 DUP4 AND GT ISZERO PUSH2 0x1527 JUMPI PUSH1 0x40 PUSH9 0x1059B0D31585743AE DUP3 MUL SWAP1 SHR SWAP1 POP JUMPDEST PUSH1 0x0 PUSH8 0x400000000000000 DUP4 AND GT ISZERO PUSH2 0x154D JUMPI PUSH1 0x40 PUSH9 0x102C9A3E778060EE7 DUP3 MUL SWAP1 SHR SWAP1 POP JUMPDEST PUSH1 0x0 PUSH8 0x200000000000000 DUP4 AND GT ISZERO PUSH2 0x1573 JUMPI PUSH1 0x40 PUSH9 0x10163DA9FB33356D8 DUP3 MUL SWAP1 SHR SWAP1 POP JUMPDEST PUSH1 0x0 PUSH8 0x100000000000000 DUP4 AND GT ISZERO PUSH2 0x1599 JUMPI PUSH1 0x40 PUSH9 0x100B1AFA5ABCBED61 DUP3 MUL SWAP1 SHR SWAP1 POP JUMPDEST PUSH1 0x0 PUSH7 0x80000000000000 DUP4 AND GT ISZERO PUSH2 0x15BE JUMPI PUSH1 0x40 PUSH9 0x10058C86DA1C09EA2 DUP3 MUL SWAP1 SHR SWAP1 POP JUMPDEST PUSH1 0x0 PUSH7 0x40000000000000 DUP4 AND GT ISZERO PUSH2 0x15E3 JUMPI PUSH1 0x40 PUSH9 0x1002C605E2E8CEC50 DUP3 MUL SWAP1 SHR SWAP1 POP JUMPDEST PUSH1 0x0 PUSH7 0x20000000000000 DUP4 AND GT ISZERO PUSH2 0x1608 JUMPI PUSH1 0x40 PUSH9 0x100162F3904051FA1 DUP3 MUL SWAP1 SHR SWAP1 POP JUMPDEST PUSH1 0x0 PUSH7 0x10000000000000 DUP4 AND GT ISZERO PUSH2 0x162D JUMPI PUSH1 0x40 PUSH9 0x1000B175EFFDC76BA DUP3 MUL SWAP1 SHR SWAP1 POP JUMPDEST PUSH1 0x0 PUSH7 0x8000000000000 DUP4 AND GT ISZERO PUSH2 0x1652 JUMPI PUSH1 0x40 PUSH9 0x100058BA01FB9F96D DUP3 MUL SWAP1 SHR SWAP1 POP JUMPDEST PUSH1 0x0 PUSH7 0x4000000000000 DUP4 AND GT ISZERO PUSH2 0x1677 JUMPI PUSH1 0x40 PUSH9 0x10002C5CC37DA9492 DUP3 MUL SWAP1 SHR SWAP1 POP JUMPDEST PUSH1 0x0 PUSH7 0x2000000000000 DUP4 AND GT ISZERO PUSH2 0x169C JUMPI PUSH1 0x40 PUSH9 0x1000162E525EE0547 DUP3 MUL SWAP1 SHR SWAP1 POP JUMPDEST PUSH1 0x0 PUSH7 0x1000000000000 DUP4 AND GT ISZERO PUSH2 0x16C1 JUMPI PUSH1 0x40 PUSH9 0x10000B17255775C04 DUP3 MUL SWAP1 SHR SWAP1 POP JUMPDEST PUSH1 0x0 PUSH6 0x800000000000 DUP4 AND GT ISZERO PUSH2 0x16E5 JUMPI PUSH1 0x40 PUSH9 0x1000058B91B5BC9AE DUP3 MUL SWAP1 SHR SWAP1 POP JUMPDEST PUSH1 0x0 PUSH6 0x400000000000 DUP4 AND GT ISZERO PUSH2 0x1709 JUMPI PUSH1 0x40 PUSH9 0x100002C5C89D5EC6D DUP3 MUL SWAP1 SHR SWAP1 POP JUMPDEST PUSH1 0x0 PUSH6 0x200000000000 DUP4 AND GT ISZERO PUSH2 0x172D JUMPI PUSH1 0x40 PUSH9 0x10000162E43F4F831 DUP3 MUL SWAP1 SHR SWAP1 POP JUMPDEST PUSH1 0x0 PUSH6 0x100000000000 DUP4 AND GT ISZERO PUSH2 0x1751 JUMPI PUSH1 0x40 PUSH9 0x100000B1721BCFC9A DUP3 MUL SWAP1 SHR SWAP1 POP JUMPDEST PUSH1 0x0 PUSH6 0x80000000000 DUP4 AND GT ISZERO PUSH2 0x1775 JUMPI PUSH1 0x40 PUSH9 0x10000058B90CF1E6E DUP3 MUL SWAP1 SHR SWAP1 POP JUMPDEST PUSH1 0x0 PUSH6 0x40000000000 DUP4 AND GT ISZERO PUSH2 0x1799 JUMPI PUSH1 0x40 PUSH9 0x1000002C5C863B73F DUP3 MUL SWAP1 SHR SWAP1 POP JUMPDEST PUSH1 0x0 PUSH6 0x20000000000 DUP4 AND GT ISZERO PUSH2 0x17BD JUMPI PUSH1 0x40 PUSH9 0x100000162E430E5A2 DUP3 MUL SWAP1 SHR SWAP1 POP JUMPDEST PUSH1 0x0 PUSH6 0x10000000000 DUP4 AND GT ISZERO PUSH2 0x17E1 JUMPI PUSH1 0x40 PUSH9 0x1000000B172183551 DUP3 MUL SWAP1 SHR SWAP1 POP JUMPDEST PUSH1 0x0 PUSH5 0x8000000000 DUP4 AND GT ISZERO PUSH2 0x1804 JUMPI PUSH1 0x40 PUSH9 0x100000058B90C0B49 DUP3 MUL SWAP1 SHR SWAP1 POP JUMPDEST PUSH1 0x0 PUSH5 0x4000000000 DUP4 AND GT ISZERO PUSH2 0x1827 JUMPI PUSH1 0x40 PUSH9 0x10000002C5C8601CC DUP3 MUL SWAP1 SHR SWAP1 POP JUMPDEST PUSH1 0x0 PUSH5 0x2000000000 DUP4 AND GT ISZERO PUSH2 0x184A JUMPI PUSH1 0x40 PUSH9 0x1000000162E42FFF0 DUP3 MUL SWAP1 SHR SWAP1 POP JUMPDEST PUSH1 0x0 PUSH5 0x1000000000 DUP4 AND GT ISZERO PUSH2 0x186D JUMPI PUSH1 0x40 PUSH9 0x10000000B17217FBB DUP3 MUL SWAP1 SHR SWAP1 POP JUMPDEST PUSH1 0x0 PUSH5 0x800000000 DUP4 AND GT ISZERO PUSH2 0x1890 JUMPI PUSH1 0x40 PUSH9 0x1000000058B90BFCE DUP3 MUL SWAP1 SHR SWAP1 POP JUMPDEST PUSH1 0x0 PUSH5 0x400000000 DUP4 AND GT ISZERO PUSH2 0x18B3 JUMPI PUSH1 0x40 PUSH9 0x100000002C5C85FE3 DUP3 MUL SWAP1 SHR SWAP1 POP JUMPDEST PUSH1 0x0 PUSH5 0x200000000 DUP4 AND GT ISZERO PUSH2 0x18D6 JUMPI PUSH1 0x40 PUSH9 0x10000000162E42FF1 DUP3 MUL SWAP1 SHR SWAP1 POP JUMPDEST PUSH1 0x0 PUSH5 0x100000000 DUP4 AND GT ISZERO PUSH2 0x18F9 JUMPI PUSH1 0x40 PUSH9 0x100000000B17217F8 DUP3 MUL SWAP1 SHR SWAP1 POP JUMPDEST PUSH1 0x0 PUSH4 0x80000000 DUP4 AND GT ISZERO PUSH2 0x191B JUMPI PUSH1 0x40 PUSH9 0x10000000058B90BFC DUP3 MUL SWAP1 SHR SWAP1 POP JUMPDEST PUSH1 0x0 PUSH4 0x40000000 DUP4 AND GT ISZERO PUSH2 0x193D JUMPI PUSH1 0x40 PUSH9 0x1000000002C5C85FE DUP3 MUL SWAP1 SHR SWAP1 POP JUMPDEST PUSH1 0x0 PUSH4 0x20000000 DUP4 AND GT ISZERO PUSH2 0x195F JUMPI PUSH1 0x40 PUSH9 0x100000000162E42FF DUP3 MUL SWAP1 SHR SWAP1 POP JUMPDEST PUSH1 0x0 PUSH4 0x10000000 DUP4 AND GT ISZERO PUSH2 0x1981 JUMPI PUSH1 0x40 PUSH9 0x1000000000B17217F DUP3 MUL SWAP1 SHR SWAP1 POP JUMPDEST PUSH1 0x0 PUSH4 0x8000000 DUP4 AND GT ISZERO PUSH2 0x19A3 JUMPI PUSH1 0x40 PUSH9 0x100000000058B90C0 DUP3 MUL SWAP1 SHR SWAP1 POP JUMPDEST PUSH1 0x0 PUSH4 0x4000000 DUP4 AND GT ISZERO PUSH2 0x19C5 JUMPI PUSH1 0x40 PUSH9 0x10000000002C5C860 DUP3 MUL SWAP1 SHR SWAP1 POP JUMPDEST PUSH1 0x0 PUSH4 0x2000000 DUP4 AND GT ISZERO PUSH2 0x19E7 JUMPI PUSH1 0x40 PUSH9 0x1000000000162E430 DUP3 MUL SWAP1 SHR SWAP1 POP JUMPDEST PUSH1 0x0 PUSH4 0x1000000 DUP4 AND GT ISZERO PUSH2 0x1A09 JUMPI PUSH1 0x40 PUSH9 0x10000000000B17218 DUP3 MUL SWAP1 SHR SWAP1 POP JUMPDEST PUSH1 0x0 PUSH3 0x800000 DUP4 AND GT ISZERO PUSH2 0x1A2A JUMPI PUSH1 0x40 PUSH9 0x1000000000058B90C DUP3 MUL SWAP1 SHR SWAP1 POP JUMPDEST PUSH1 0x0 PUSH3 0x400000 DUP4 AND GT ISZERO PUSH2 0x1A4B JUMPI PUSH1 0x40 PUSH9 0x100000000002C5C86 DUP3 MUL SWAP1 SHR SWAP1 POP JUMPDEST PUSH1 0x0 PUSH3 0x200000 DUP4 AND GT ISZERO PUSH2 0x1A6C JUMPI PUSH1 0x40 PUSH9 0x10000000000162E43 DUP3 MUL SWAP1 SHR SWAP1 POP JUMPDEST PUSH1 0x0 PUSH3 0x100000 DUP4 AND GT ISZERO PUSH2 0x1A8D JUMPI PUSH1 0x40 PUSH9 0x100000000000B1721 DUP3 MUL SWAP1 SHR SWAP1 POP JUMPDEST PUSH1 0x0 PUSH3 0x80000 DUP4 AND GT ISZERO PUSH2 0x1AAE JUMPI PUSH1 0x40 PUSH9 0x10000000000058B91 DUP3 MUL SWAP1 SHR SWAP1 POP JUMPDEST PUSH1 0x0 PUSH3 0x40000 DUP4 AND GT ISZERO PUSH2 0x1ACF JUMPI PUSH1 0x40 PUSH9 0x1000000000002C5C8 DUP3 MUL SWAP1 SHR SWAP1 POP JUMPDEST PUSH1 0x0 PUSH3 0x20000 DUP4 AND GT ISZERO PUSH2 0x1AF0 JUMPI PUSH1 0x40 PUSH9 0x100000000000162E4 DUP3 MUL SWAP1 SHR SWAP1 POP JUMPDEST PUSH1 0x0 PUSH3 0x10000 DUP4 AND GT ISZERO PUSH2 0x1B11 JUMPI PUSH1 0x40 PUSH9 0x1000000000000B172 DUP3 MUL SWAP1 SHR SWAP1 POP JUMPDEST PUSH1 0x0 PUSH2 0x8000 DUP4 AND GT ISZERO PUSH2 0x1B31 JUMPI PUSH1 0x40 PUSH9 0x100000000000058B9 DUP3 MUL SWAP1 SHR SWAP1 POP JUMPDEST PUSH1 0x0 PUSH2 0x4000 DUP4 AND GT ISZERO PUSH2 0x1B51 JUMPI PUSH1 0x40 PUSH9 0x10000000000002C5D DUP3 MUL SWAP1 SHR SWAP1 POP JUMPDEST PUSH1 0x0 PUSH2 0x2000 DUP4 AND GT ISZERO PUSH2 0x1B71 JUMPI PUSH1 0x40 PUSH9 0x1000000000000162E DUP3 MUL SWAP1 SHR SWAP1 POP JUMPDEST PUSH1 0x0 PUSH2 0x1000 DUP4 AND GT ISZERO PUSH2 0x1B91 JUMPI PUSH1 0x40 PUSH9 0x10000000000000B17 DUP3 MUL SWAP1 SHR SWAP1 POP JUMPDEST PUSH1 0x0 PUSH2 0x800 DUP4 AND GT ISZERO PUSH2 0x1BB1 JUMPI PUSH1 0x40 PUSH9 0x1000000000000058C DUP3 MUL SWAP1 SHR SWAP1 POP JUMPDEST PUSH1 0x0 PUSH2 0x400 DUP4 AND GT ISZERO PUSH2 0x1BD1 JUMPI PUSH1 0x40 PUSH9 0x100000000000002C6 DUP3 MUL SWAP1 SHR SWAP1 POP JUMPDEST PUSH1 0x0 PUSH2 0x200 DUP4 AND GT ISZERO PUSH2 0x1BF1 JUMPI PUSH1 0x40 PUSH9 0x10000000000000163 DUP3 MUL SWAP1 SHR SWAP1 POP JUMPDEST PUSH1 0x0 PUSH2 0x100 DUP4 AND GT ISZERO PUSH2 0x1C11 JUMPI PUSH1 0x40 PUSH9 0x100000000000000B1 DUP3 MUL SWAP1 SHR SWAP1 POP JUMPDEST PUSH1 0x0 PUSH1 0x80 DUP4 AND GT ISZERO PUSH2 0x1C30 JUMPI PUSH1 0x40 PUSH9 0x10000000000000059 DUP3 MUL SWAP1 SHR SWAP1 POP JUMPDEST PUSH1 0x0 PUSH1 0x40 DUP4 AND GT ISZERO PUSH2 0x1C4F JUMPI PUSH1 0x40 PUSH9 0x1000000000000002C DUP3 MUL SWAP1 SHR SWAP1 POP JUMPDEST PUSH1 0x0 PUSH1 0x20 DUP4 AND GT ISZERO PUSH2 0x1C6E JUMPI PUSH1 0x40 PUSH9 0x10000000000000016 DUP3 MUL SWAP1 SHR SWAP1 POP JUMPDEST PUSH1 0x0 PUSH1 0x10 DUP4 AND GT ISZERO PUSH2 0x1C8D JUMPI PUSH1 0x40 PUSH9 0x1000000000000000B DUP3 MUL SWAP1 SHR SWAP1 POP JUMPDEST PUSH1 0x0 PUSH1 0x8 DUP4 AND GT ISZERO PUSH2 0x1CAC JUMPI PUSH1 0x40 PUSH9 0x10000000000000006 DUP3 MUL SWAP1 SHR SWAP1 POP JUMPDEST PUSH1 0x0 PUSH1 0x4 DUP4 AND GT ISZERO PUSH2 0x1CCB JUMPI PUSH1 0x40 PUSH9 0x10000000000000003 DUP3 MUL SWAP1 SHR SWAP1 POP JUMPDEST PUSH1 0x0 PUSH1 0x2 DUP4 AND GT ISZERO PUSH2 0x1CEA JUMPI PUSH1 0x40 PUSH9 0x10000000000000001 DUP3 MUL SWAP1 SHR SWAP1 POP JUMPDEST PUSH1 0x0 PUSH1 0x1 DUP4 AND GT ISZERO PUSH2 0x1D09 JUMPI PUSH1 0x40 PUSH9 0x10000000000000001 DUP3 MUL SWAP1 SHR SWAP1 POP JUMPDEST PUSH8 0xDE0B6B3A7640000 DUP2 MUL SWAP1 POP PUSH1 0x40 DUP3 SWAP1 SHR PUSH1 0xBF SUB DUP2 SWAP1 SHR SWAP1 POP SWAP2 SWAP1 POP JUMP JUMPDEST PUSH1 0x0 PUSH2 0x1D3B PUSH2 0x1D36 DUP5 PUSH2 0x2469 JUMP JUMPDEST PUSH2 0x2444 JUMP JUMPDEST SWAP1 POP DUP1 DUP4 DUP3 MSTORE PUSH1 0x20 DUP3 ADD SWAP1 POP DUP3 DUP6 PUSH1 0x20 DUP7 MUL DUP3 ADD GT ISZERO PUSH2 0x1D5A JUMPI PUSH1 0x0 DUP1 REVERT JUMPDEST PUSH1 0x0 JUMPDEST DUP6 DUP2 LT ISZERO PUSH2 0x1DA4 JUMPI DUP2 CALLDATALOAD PUSH8 0xFFFFFFFFFFFFFFFF DUP2 GT ISZERO PUSH2 0x1D7C JUMPI PUSH1 0x0 DUP1 REVERT JUMPDEST DUP1 DUP7 ADD PUSH2 0x1D89 DUP10 DUP3 PUSH2 0x1E82 JUMP JUMPDEST DUP6 MSTORE PUSH1 0x20 DUP6 ADD SWAP5 POP PUSH1 0x20 DUP5 ADD SWAP4 POP POP POP PUSH1 0x1 DUP2 ADD SWAP1 POP PUSH2 0x1D5D JUMP JUMPDEST POP POP POP SWAP4 SWAP3 POP POP POP JUMP JUMPDEST PUSH1 0x0 PUSH2 0x1DC1 PUSH2 0x1DBC DUP5 PUSH2 0x2495 JUMP JUMPDEST PUSH2 0x2444 JUMP JUMPDEST SWAP1 POP DUP1 DUP4 DUP3 MSTORE PUSH1 0x20 DUP3 ADD SWAP1 POP DUP3 DUP6 PUSH1 0x20 DUP7 MUL DUP3 ADD GT ISZERO PUSH2 0x1DE0 JUMPI PUSH1 0x0 DUP1 REVERT JUMPDEST PUSH1 0x0 JUMPDEST DUP6 DUP2 LT ISZERO PUSH2 0x1E10 JUMPI DUP2 PUSH2 0x1DF6 DUP9 DUP3 PUSH2 0x1EAC JUMP JUMPDEST DUP5 MSTORE PUSH1 0x20 DUP5 ADD SWAP4 POP PUSH1 0x20 DUP4 ADD SWAP3 POP POP PUSH1 0x1 DUP2 ADD SWAP1 POP PUSH2 0x1DE3 JUMP JUMPDEST POP POP POP SWAP4 SWAP3 POP POP POP JUMP JUMPDEST PUSH1 0x0 PUSH2 0x1E2D PUSH2 0x1E28 DUP5 PUSH2 0x24C1 JUMP JUMPDEST PUSH2 0x2444 JUMP JUMPDEST SWAP1 POP DUP3 DUP2 MSTORE PUSH1 0x20 DUP2 ADD DUP5 DUP5 DUP5 ADD GT ISZERO PUSH2 0x1E45 JUMPI PUSH1 0x0 DUP1 REVERT JUMPDEST PUSH2 0x1E50 DUP5 DUP3 DUP6 PUSH2 0x2757 JUMP JUMPDEST POP SWAP4 SWAP3 POP POP POP JUMP JUMPDEST PUSH1 0x0 DUP3 PUSH1 0x1F DUP4 ADD SLT PUSH2 0x1E69 JUMPI PUSH1 0x0 DUP1 REVERT JUMPDEST DUP2 CALLDATALOAD PUSH2 0x1E79 DUP5 DUP3 PUSH1 0x20 DUP7 ADD PUSH2 0x1D28 JUMP JUMPDEST SWAP2 POP POP SWAP3 SWAP2 POP POP JUMP JUMPDEST PUSH1 0x0 DUP3 PUSH1 0x1F DUP4 ADD SLT PUSH2 0x1E93 JUMPI PUSH1 0x0 DUP1 REVERT JUMPDEST DUP2 CALLDATALOAD PUSH2 0x1EA3 DUP5 DUP3 PUSH1 0x20 DUP7 ADD PUSH2 0x1DAE JUMP JUMPDEST SWAP2 POP POP SWAP3 SWAP2 POP POP JUMP JUMPDEST PUSH1 0x0 DUP2 CALLDATALOAD SWAP1 POP PUSH2 0x1EBB DUP2 PUSH2 0x28CB JUMP JUMPDEST SWAP3 SWAP2 POP POP JUMP JUMPDEST PUSH1 0x0 DUP3 PUSH1 0x1F DUP4 ADD SLT PUSH2 0x1ED2 JUMPI PUSH1 0x0 DUP1 REVERT JUMPDEST DUP2 CALLDATALOAD PUSH2 0x1EE2 DUP5 DUP3 PUSH1 0x20 DUP7 ADD PUSH2 0x1E1A JUMP JUMPDEST SWAP2 POP POP SWAP3 SWAP2 POP POP JUMP JUMPDEST PUSH1 0x0 DUP2 CALLDATALOAD SWAP1 POP PUSH2 0x1EFA DUP2 PUSH2 0x28E2 JUMP JUMPDEST SWAP3 SWAP2 POP POP JUMP JUMPDEST PUSH1 0x0 PUSH1 0x20 DUP3 DUP5 SUB SLT ISZERO PUSH2 0x1F12 JUMPI PUSH1 0x0 DUP1 REVERT JUMPDEST PUSH1 0x0 DUP3 ADD CALLDATALOAD PUSH8 0xFFFFFFFFFFFFFFFF DUP2 GT ISZERO PUSH2 0x1F2C JUMPI PUSH1 0x0 DUP1 REVERT JUMPDEST PUSH2 0x1F38 DUP5 DUP3 DUP6 ADD PUSH2 0x1E58 JUMP JUMPDEST SWAP2 POP POP SWAP3 SWAP2 POP POP JUMP JUMPDEST PUSH1 0x0 DUP1 PUSH1 0x0 DUP1 PUSH1 0x80 DUP6 DUP8 SUB SLT ISZERO PUSH2 0x1F57 JUMPI PUSH1 0x0 DUP1 REVERT JUMPDEST PUSH1 0x0 DUP6 ADD CALLDATALOAD PUSH8 0xFFFFFFFFFFFFFFFF DUP2 GT ISZERO PUSH2 0x1F71 JUMPI PUSH1 0x0 DUP1 REVERT JUMPDEST PUSH2 0x1F7D DUP8 DUP3 DUP9 ADD PUSH2 0x1E58 JUMP JUMPDEST SWAP5 POP POP PUSH1 0x20 DUP6 ADD CALLDATALOAD PUSH8 0xFFFFFFFFFFFFFFFF DUP2 GT ISZERO PUSH2 0x1F9A JUMPI PUSH1 0x0 DUP1 REVERT JUMPDEST PUSH2 0x1FA6 DUP8 DUP3 DUP9 ADD PUSH2 0x1E58 JUMP JUMPDEST SWAP4 POP POP PUSH1 0x40 PUSH2 0x1FB7 DUP8 DUP3 DUP9 ADD PUSH2 0x1EAC JUMP JUMPDEST SWAP3 POP POP PUSH1 0x60 PUSH2 0x1FC8 DUP8 DUP3 DUP9 ADD PUSH2 0x1EEB JUMP JUMPDEST SWAP2 POP POP SWAP3 SWAP6 SWAP2 SWAP5 POP SWAP3 POP JUMP JUMPDEST PUSH1 0x0 DUP1 PUSH1 0x0 PUSH1 0x60 DUP5 DUP7 SUB SLT ISZERO PUSH2 0x1FE9 JUMPI PUSH1 0x0 DUP1 REVERT JUMPDEST PUSH1 0x0 DUP5 ADD CALLDATALOAD PUSH8 0xFFFFFFFFFFFFFFFF DUP2 GT ISZERO PUSH2 0x2003 JUMPI PUSH1 0x0 DUP1 REVERT JUMPDEST PUSH2 0x200F DUP7 DUP3 DUP8 ADD PUSH2 0x1E58 JUMP JUMPDEST SWAP4 POP POP PUSH1 0x20 PUSH2 0x2020 DUP7 DUP3 DUP8 ADD PUSH2 0x1EAC JUMP JUMPDEST SWAP3 POP POP PUSH1 0x40 PUSH2 0x2031 DUP7 DUP3 DUP8 ADD PUSH2 0x1EEB JUMP JUMPDEST SWAP2 POP POP SWAP3 POP SWAP3 POP SWAP3 JUMP JUMPDEST PUSH1 0x0 DUP1 PUSH1 0x0 DUP1 PUSH1 0x80 DUP6 DUP8 SUB SLT ISZERO PUSH2 0x2051 JUMPI PUSH1 0x0 DUP1 REVERT JUMPDEST PUSH1 0x0 DUP6 ADD CALLDATALOAD PUSH8 0xFFFFFFFFFFFFFFFF DUP2 GT ISZERO PUSH2 0x206B JUMPI PUSH1 0x0 DUP1 REVERT JUMPDEST PUSH2 0x2077 DUP8 DUP3 DUP9 ADD PUSH2 0x1E58 JUMP JUMPDEST SWAP5 POP POP PUSH1 0x20 PUSH2 0x2088 DUP8 DUP3 DUP9 ADD PUSH2 0x1EAC JUMP JUMPDEST SWAP4 POP POP PUSH1 0x40 PUSH2 0x2099 DUP8 DUP3 DUP9 ADD PUSH2 0x1EEB JUMP JUMPDEST SWAP3 POP POP PUSH1 0x60 DUP6 ADD CALLDATALOAD PUSH8 0xFFFFFFFFFFFFFFFF DUP2 GT ISZERO PUSH2 0x20B6 JUMPI PUSH1 0x0 DUP1 REVERT JUMPDEST PUSH2 0x20C2 DUP8 DUP3 DUP9 ADD PUSH2 0x1E82 JUMP JUMPDEST SWAP2 POP POP SWAP3 SWAP6 SWAP2 SWAP5 POP SWAP3 POP JUMP JUMPDEST PUSH1 0x0 PUSH1 0x20 DUP3 DUP5 SUB SLT ISZERO PUSH2 0x20E0 JUMPI PUSH1 0x0 DUP1 REVERT JUMPDEST PUSH1 0x0 DUP3 ADD CALLDATALOAD PUSH8 0xFFFFFFFFFFFFFFFF DUP2 GT ISZERO PUSH2 0x20FA JUMPI PUSH1 0x0 DUP1 REVERT JUMPDEST PUSH2 0x2106 DUP5 DUP3 DUP6 ADD PUSH2 0x1E82 JUMP JUMPDEST SWAP2 POP POP SWAP3 SWAP2 POP POP JUMP JUMPDEST PUSH1 0x0 DUP1 PUSH1 0x40 DUP4 DUP6 SUB SLT ISZERO PUSH2 0x2122 JUMPI PUSH1 0x0 DUP1 REVERT JUMPDEST PUSH1 0x0 DUP4 ADD CALLDATALOAD PUSH8 0xFFFFFFFFFFFFFFFF DUP2 GT ISZERO PUSH2 0x213C JUMPI PUSH1 0x0 DUP1 REVERT JUMPDEST PUSH2 0x2148 DUP6 DUP3 DUP7 ADD PUSH2 0x1E82 JUMP JUMPDEST SWAP3 POP POP PUSH1 0x20 DUP4 ADD CALLDATALOAD PUSH8 0xFFFFFFFFFFFFFFFF DUP2 GT ISZERO PUSH2 0x2165 JUMPI PUSH1 0x0 DUP1 REVERT JUMPDEST PUSH2 0x2171 DUP6 DUP3 DUP7 ADD PUSH2 0x1E82 JUMP JUMPDEST SWAP2 POP POP SWAP3 POP SWAP3 SWAP1 POP JUMP JUMPDEST PUSH1 0x0 PUSH1 0x20 DUP3 DUP5 SUB SLT ISZERO PUSH2 0x218D JUMPI PUSH1 0x0 DUP1 REVERT JUMPDEST PUSH1 0x0 DUP3 ADD CALLDATALOAD PUSH8 0xFFFFFFFFFFFFFFFF DUP2 GT ISZERO PUSH2 0x21A7 JUMPI PUSH1 0x0 DUP1 REVERT JUMPDEST PUSH2 0x21B3 DUP5 DUP3 DUP6 ADD PUSH2 0x1EC1 JUMP JUMPDEST SWAP2 POP POP SWAP3 SWAP2 POP POP JUMP JUMPDEST PUSH1 0x0 PUSH2 0x21C8 DUP4 DUP4 PUSH2 0x225D JUMP JUMPDEST SWAP1 POP SWAP3 SWAP2 POP POP JUMP JUMPDEST PUSH1 0x0 PUSH2 0x21DC DUP4 DUP4 PUSH2 0x2319 JUMP JUMPDEST PUSH1 0x20 DUP4 ADD SWAP1 POP SWAP3 SWAP2 POP POP JUMP JUMPDEST PUSH1 0x0 PUSH2 0x21F3 DUP3 PUSH2 0x2512 JUMP JUMPDEST PUSH2 0x21FD DUP2 DUP6 PUSH2 0x254D JUMP JUMPDEST SWAP4 POP DUP4 PUSH1 0x20 DUP3 MUL DUP6 ADD PUSH2 0x220F DUP6 PUSH2 0x24F2 JUMP JUMPDEST DUP1 PUSH1 0x0 JUMPDEST DUP6 DUP2 LT ISZERO PUSH2 0x224B JUMPI DUP5 DUP5 SUB DUP10 MSTORE DUP2 MLOAD PUSH2 0x222C DUP6 DUP3 PUSH2 0x21BC JUMP JUMPDEST SWAP5 POP PUSH2 0x2237 DUP4 PUSH2 0x2533 JUMP JUMPDEST SWAP3 POP PUSH1 0x20 DUP11 ADD SWAP10 POP POP PUSH1 0x1 DUP2 ADD SWAP1 POP PUSH2 0x2213 JUMP JUMPDEST POP DUP3 SWAP8 POP DUP8 SWAP6 POP POP POP POP POP POP SWAP3 SWAP2 POP POP JUMP JUMPDEST PUSH1 0x0 PUSH2 0x2268 DUP3 PUSH2 0x251D JUMP JUMPDEST PUSH2 0x2272 DUP2 DUP6 PUSH2 0x255E JUMP JUMPDEST SWAP4 POP PUSH2 0x227D DUP4 PUSH2 0x2502 JUMP JUMPDEST DUP1 PUSH1 0x0 JUMPDEST DUP4 DUP2 LT ISZERO PUSH2 0x22AE JUMPI DUP2 MLOAD PUSH2 0x2295 DUP9 DUP3 PUSH2 0x21D0 JUMP JUMPDEST SWAP8 POP PUSH2 0x22A0 DUP4 PUSH2 0x2540 JUMP JUMPDEST SWAP3 POP POP PUSH1 0x1 DUP2 ADD SWAP1 POP PUSH2 0x2281 JUMP JUMPDEST POP DUP6 SWAP4 POP POP POP POP SWAP3 SWAP2 POP POP JUMP JUMPDEST PUSH1 0x0 PUSH2 0x22C6 DUP3 PUSH2 0x251D JUMP JUMPDEST PUSH2 0x22D0 DUP2 DUP6 PUSH2 0x256F JUMP JUMPDEST SWAP4 POP PUSH2 0x22DB DUP4 PUSH2 0x2502 JUMP JUMPDEST DUP1 PUSH1 0x0 JUMPDEST DUP4 DUP2 LT ISZERO PUSH2 0x230C JUMPI DUP2 MLOAD PUSH2 0x22F3 DUP9 DUP3 PUSH2 0x21D0 JUMP JUMPDEST SWAP8 POP PUSH2 0x22FE DUP4 PUSH2 0x2540 JUMP JUMPDEST SWAP3 POP POP PUSH1 0x1 DUP2 ADD SWAP1 POP PUSH2 0x22DF JUMP JUMPDEST POP DUP6 SWAP4 POP POP POP POP SWAP3 SWAP2 POP POP JUMP JUMPDEST PUSH2 0x2322 DUP2 PUSH2 0x2743 JUMP JUMPDEST DUP3 MSTORE POP POP JUMP JUMPDEST PUSH2 0x2331 DUP2 PUSH2 0x2743 JUMP JUMPDEST DUP3 MSTORE POP POP JUMP JUMPDEST PUSH1 0x0 PUSH2 0x2342 DUP3 PUSH2 0x2528 JUMP JUMPDEST PUSH2 0x234C DUP2 DUP6 PUSH2 0x2580 JUMP JUMPDEST SWAP4 POP PUSH2 0x235C DUP2 DUP6 PUSH1 0x20 DUP7 ADD PUSH2 0x2766 JUMP JUMPDEST PUSH2 0x2365 DUP2 PUSH2 0x28BA JUMP JUMPDEST DUP5 ADD SWAP2 POP POP SWAP3 SWAP2 POP POP JUMP JUMPDEST PUSH2 0x2379 DUP2 PUSH2 0x274D JUMP JUMPDEST DUP3 MSTORE POP POP JUMP JUMPDEST PUSH1 0x0 PUSH1 0x20 DUP3 ADD SWAP1 POP DUP2 DUP2 SUB PUSH1 0x0 DUP4 ADD MSTORE PUSH2 0x2399 DUP2 DUP5 PUSH2 0x21E8 JUMP JUMPDEST SWAP1 POP SWAP3 SWAP2 POP POP JUMP JUMPDEST PUSH1 0x0 PUSH1 0x20 DUP3 ADD SWAP1 POP DUP2 DUP2 SUB PUSH1 0x0 DUP4 ADD MSTORE PUSH2 0x23BB DUP2 DUP5 PUSH2 0x22BB JUMP JUMPDEST SWAP1 POP SWAP3 SWAP2 POP POP JUMP JUMPDEST PUSH1 0x0 PUSH1 0x20 DUP3 ADD SWAP1 POP PUSH2 0x23D8 PUSH1 0x0 DUP4 ADD DUP5 PUSH2 0x2328 JUMP JUMPDEST SWAP3 SWAP2 POP POP JUMP JUMPDEST PUSH1 0x0 PUSH1 0x20 DUP3 ADD SWAP1 POP DUP2 DUP2 SUB PUSH1 0x0 DUP4 ADD MSTORE PUSH2 0x23F8 DUP2 DUP5 PUSH2 0x2337 JUMP JUMPDEST SWAP1 POP SWAP3 SWAP2 POP POP JUMP JUMPDEST PUSH1 0x0 PUSH1 0x20 DUP3 ADD SWAP1 POP PUSH2 0x2415 PUSH1 0x0 DUP4 ADD DUP5 PUSH2 0x2370 JUMP JUMPDEST SWAP3 SWAP2 POP POP JUMP JUMPDEST PUSH1 0x0 PUSH1 0x40 DUP3 ADD SWAP1 POP PUSH2 0x2430 PUSH1 0x0 DUP4 ADD DUP6 PUSH2 0x2370 JUMP JUMPDEST PUSH2 0x243D PUSH1 0x20 DUP4 ADD DUP5 PUSH2 0x2370 JUMP JUMPDEST SWAP4 SWAP3 POP POP POP JUMP JUMPDEST PUSH1 0x0 PUSH2 0x244E PUSH2 0x245F JUMP JUMPDEST SWAP1 POP PUSH2 0x245A DUP3 DUP3 PUSH2 0x2799 JUMP JUMPDEST SWAP2 SWAP1 POP JUMP JUMPDEST PUSH1 0x0 PUSH1 0x40 MLOAD SWAP1 POP SWAP1 JUMP JUMPDEST PUSH1 0x0 PUSH8 0xFFFFFFFFFFFFFFFF DUP3 GT ISZERO PUSH2 0x2484 JUMPI PUSH2 0x2483 PUSH2 0x288B JUMP JUMPDEST JUMPDEST PUSH1 0x20 DUP3 MUL SWAP1 POP PUSH1 0x20 DUP2 ADD SWAP1 POP SWAP2 SWAP1 POP JUMP JUMPDEST PUSH1 0x0 PUSH8 0xFFFFFFFFFFFFFFFF DUP3 GT ISZERO PUSH2 0x24B0 JUMPI PUSH2 0x24AF PUSH2 0x288B JUMP JUMPDEST JUMPDEST PUSH1 0x20 DUP3 MUL SWAP1 POP PUSH1 0x20 DUP2 ADD SWAP1 POP SWAP2 SWAP1 POP JUMP JUMPDEST PUSH1 0x0 PUSH8 0xFFFFFFFFFFFFFFFF DUP3 GT ISZERO PUSH2 0x24DC JUMPI PUSH2 0x24DB PUSH2 0x288B JUMP JUMPDEST JUMPDEST PUSH2 0x24E5 DUP3 PUSH2 0x28BA JUMP JUMPDEST SWAP1 POP PUSH1 0x20 DUP2 ADD SWAP1 POP SWAP2 SWAP1 POP JUMP JUMPDEST PUSH1 0x0 DUP2 SWAP1 POP PUSH1 0x20 DUP3 ADD SWAP1 POP SWAP2 SWAP1 POP JUMP JUMPDEST PUSH1 0x0 DUP2 SWAP1 POP PUSH1 0x20 DUP3 ADD SWAP1 POP SWAP2 SWAP1 POP JUMP JUMPDEST PUSH1 0x0 DUP2 MLOAD SWAP1 POP SWAP2 SWAP1 POP JUMP JUMPDEST PUSH1 0x0 DUP2 MLOAD SWAP1 POP SWAP2 SWAP1 POP JUMP JUMPDEST PUSH1 0x0 DUP2 MLOAD SWAP1 POP SWAP2 SWAP1 POP JUMP JUMPDEST PUSH1 0x0 PUSH1 0x20 DUP3 ADD SWAP1 POP SWAP2 SWAP1 POP JUMP JUMPDEST PUSH1 0x0 PUSH1 0x20 DUP3 ADD SWAP1 POP SWAP2 SWAP1 POP JUMP JUMPDEST PUSH1 0x0 DUP3 DUP3 MSTORE PUSH1 0x20 DUP3 ADD SWAP1 POP SWAP3 SWAP2 POP POP JUMP JUMPDEST PUSH1 0x0 DUP3 DUP3 MSTORE PUSH1 0x20 DUP3 ADD SWAP1 POP SWAP3 SWAP2 POP POP JUMP JUMPDEST PUSH1 0x0 DUP3 DUP3 MSTORE PUSH1 0x20 DUP3 ADD SWAP1 POP SWAP3 SWAP2 POP POP JUMP JUMPDEST PUSH1 0x0 DUP3 DUP3 MSTORE PUSH1 0x20 DUP3 ADD SWAP1 POP SWAP3 SWAP2 POP POP JUMP JUMPDEST PUSH1 0x0 PUSH2 0x259C DUP3 PUSH2 0x2743 JUMP JUMPDEST SWAP2 POP PUSH2 0x25A7 DUP4 PUSH2 0x2743 JUMP JUMPDEST SWAP3 POP DUP2 PUSH32 0x7FFFFFFFFFFFFFFFFFFFFFFFFFFFFFFFFFFFFFFFFFFFFFFFFFFFFFFFFFFFFFFF SUB DUP4 SGT PUSH1 0x0 DUP4 SLT ISZERO AND ISZERO PUSH2 0x25E2 JUMPI PUSH2 0x25E1 PUSH2 0x285C JUMP JUMPDEST JUMPDEST DUP2 PUSH32 0x8000000000000000000000000000000000000000000000000000000000000000 SUB DUP4 SLT PUSH1 0x0 DUP4 SLT AND ISZERO PUSH2 0x261A JUMPI PUSH2 0x2619 PUSH2 0x285C JUMP JUMPDEST JUMPDEST DUP3 DUP3 ADD SWAP1 POP SWAP3 SWAP2 POP POP JUMP JUMPDEST PUSH1 0x0 PUSH2 0x2630 DUP3 PUSH2 0x274D JUMP JUMPDEST SWAP2 POP PUSH2 0x263B DUP4 PUSH2 0x274D JUMP JUMPDEST SWAP3 POP DUP3 PUSH32 0xFFFFFFFFFFFFFFFFFFFFFFFFFFFFFFFFFFFFFFFFFFFFFFFFFFFFFFFFFFFFFFFF SUB DUP3 GT ISZERO PUSH2 0x2670 JUMPI PUSH2 0x266F PUSH2 0x285C JUMP JUMPDEST JUMPDEST DUP3 DUP3 ADD SWAP1 POP SWAP3 SWAP2 POP POP JUMP JUMPDEST PUSH1 0x0 PUSH2 0x2686 DUP3 PUSH2 0x2743 JUMP JUMPDEST SWAP2 POP PUSH2 0x2691 DUP4 PUSH2 0x2743 JUMP JUMPDEST SWAP3 POP DUP3 PUSH32 0x8000000000000000000000000000000000000000000000000000000000000000 ADD DUP3 SLT PUSH1 0x0 DUP5 SLT ISZERO AND ISZERO PUSH2 0x26CC JUMPI PUSH2 0x26CB PUSH2 0x285C JUMP JUMPDEST JUMPDEST DUP3 PUSH32 0x7FFFFFFFFFFFFFFFFFFFFFFFFFFFFFFFFFFFFFFFFFFFFFFFFFFFFFFFFFFFFFFF ADD DUP3 SGT PUSH1 0x0 DUP5 SLT AND ISZERO PUSH2 0x2704 JUMPI PUSH2 0x2703 PUSH2 0x285C JUMP JUMPDEST JUMPDEST DUP3 DUP3 SUB SWAP1 POP SWAP3 SWAP2 POP POP JUMP JUMPDEST PUSH1 0x0 PUSH2 0x271A DUP3 PUSH2 0x274D JUMP JUMPDEST SWAP2 POP PUSH2 0x2725 DUP4 PUSH2 0x274D JUMP JUMPDEST SWAP3 POP DUP3 DUP3 LT ISZERO PUSH2 0x2738 JUMPI PUSH2 0x2737 PUSH2 0x285C JUMP JUMPDEST JUMPDEST DUP3 DUP3 SUB SWAP1 POP SWAP3 SWAP2 POP POP JUMP JUMPDEST PUSH1 0x0 DUP2 SWAP1 POP SWAP2 SWAP1 POP JUMP JUMPDEST PUSH1 0x0 DUP2 SWAP1 POP SWAP2 SWAP1 POP JUMP JUMPDEST DUP3 DUP2 DUP4 CALLDATACOPY PUSH1 0x0 DUP4 DUP4 ADD MSTORE POP POP POP JUMP JUMPDEST PUSH1 0x0 JUMPDEST DUP4 DUP2 LT ISZERO PUSH2 0x2784 JUMPI DUP1 DUP3 ADD MLOAD DUP2 DUP5 ADD MSTORE PUSH1 0x20 DUP2 ADD SWAP1 POP PUSH2 0x2769 JUMP JUMPDEST DUP4 DUP2 GT ISZERO PUSH2 0x2793 JUMPI PUSH1 0x0 DUP5 DUP5 ADD MSTORE JUMPDEST POP POP POP POP JUMP JUMPDEST PUSH2 0x27A2 DUP3 PUSH2 0x28BA JUMP JUMPDEST DUP2 ADD DUP2 DUP2 LT PUSH8 0xFFFFFFFFFFFFFFFF DUP3 GT OR ISZERO PUSH2 0x27C1 JUMPI PUSH2 0x27C0 PUSH2 0x288B JUMP JUMPDEST JUMPDEST DUP1 PUSH1 0x40 MSTORE POP POP POP JUMP JUMPDEST PUSH1 0x0 PUSH2 0x27D5 DUP3 PUSH2 0x274D JUMP JUMPDEST SWAP2 POP PUSH32 0xFFFFFFFFFFFFFFFFFFFFFFFFFFFFFFFFFFFFFFFFFFFFFFFFFFFFFFFFFFFFFFFF DUP3 EQ ISZERO PUSH2 0x2808 JUMPI PUSH2 0x2807 PUSH2 0x285C JUMP JUMPDEST JUMPDEST PUSH1 0x1 DUP3 ADD SWAP1 POP SWAP2 SWAP1 POP JUMP JUMPDEST PUSH1 0x0 PUSH2 0x281E DUP3 PUSH2 0x2743 JUMP JUMPDEST SWAP2 POP PUSH32 0x8000000000000000000000000000000000000000000000000000000000000000 DUP3 EQ ISZERO PUSH2 0x2851 JUMPI PUSH2 0x2850 PUSH2 0x285C JUMP JUMPDEST JUMPDEST DUP2 PUSH1 0x0 SUB SWAP1 POP SWAP2 SWAP1 POP JUMP JUMPDEST PUSH32 0x4E487B7100000000000000000000000000000000000000000000000000000000 PUSH1 0x0 MSTORE PUSH1 0x11 PUSH1 0x4 MSTORE PUSH1 0x24 PUSH1 0x0 REVERT JUMPDEST PUSH32 0x4E487B7100000000000000000000000000000000000000000000000000000000 PUSH1 0x0 MSTORE PUSH1 0x41 PUSH1 0x4 MSTORE PUSH1 0x24 PUSH1 0x0 REVERT JUMPDEST PUSH1 0x0 PUSH1 0x1F NOT PUSH1 0x1F DUP4 ADD AND SWAP1 POP SWAP2 SWAP1 POP JUMP JUMPDEST PUSH2 0x28D4 DUP2 PUSH2 0x2743 JUMP JUMPDEST DUP2 EQ PUSH2 0x28DF JUMPI PUSH1 0x0 DUP1 REVERT JUMPDEST POP JUMP JUMPDEST PUSH2 0x28EB DUP2 PUSH2 0x274D JUMP JUMPDEST DUP2 EQ PUSH2 0x28F6 JUMPI PUSH1 0x0 DUP1 REVERT JUMPDEST POP JUMP INVALID LOG2 PUSH5 0x6970667358 0x22 SLT KECCAK256 ISZERO 0x5F 0xE3 0x4B 0xF8 JUMPI RETURNDATASIZE PUSH2 0x845D 0xB7 PUSH3 0x97EF7C PUSH18 0x6612992ACA8B2E1361D1BDDC76F4098E6473 PUSH16 0x6C634300080400330000000000000000 "
		},
		"gasEstimates": {
			"creation": {
				"codeDepositCost": "2108600",
				"executionCost": "42255",
				"totalCost": "2150855"
			},
			"external": {
				"coefficients_sgd(int256[][],int256,uint256)": "infinite",
				"incremental_coefficients_sgd(int256[][],int256,uint256,int256[])": "infinite",
				"logistic_regression(int256[][],int256[][],int256,uint256)": "infinite",
				"predict(int256[],int256[])": "infinite",
				"test1(int256[])": "infinite",
				"test2(string)": "infinite",
				"test3(int256[][])": "infinite"
			}
		},
		"methodIdentifiers": {
			"coefficients_sgd(int256[][],int256,uint256)": "07990847",
			"incremental_coefficients_sgd(int256[][],int256,uint256,int256[])": "03b3a14f",
			"logistic_regression(int256[][],int256[][],int256,uint256)": "36baacae",
			"predict(int256[],int256[])": "5e4cc571",
			"test1(int256[])": "8fcd95bb",
			"test2(string)": "30e738a7",
			"test3(int256[][])": "afaa363b"
		}
	},
	"abi": [
		{
			"inputs": [],
			"stateMutability": "nonpayable",
			"type": "constructor"
		},
		{
			"inputs": [],
			"name": "PRBMathSD59x18__DivInputTooSmall",
			"type": "error"
		},
		{
			"inputs": [
				{
					"internalType": "uint256",
					"name": "rAbs",
					"type": "uint256"
				}
			],
			"name": "PRBMathSD59x18__DivOverflow",
			"type": "error"
		},
		{
			"inputs": [
				{
					"internalType": "int256",
					"name": "x",
					"type": "int256"
				}
			],
			"name": "PRBMathSD59x18__Exp2InputTooBig",
			"type": "error"
		},
		{
			"inputs": [
				{
					"internalType": "int256",
					"name": "x",
					"type": "int256"
				}
			],
			"name": "PRBMathSD59x18__ExpInputTooBig",
			"type": "error"
		},
		{
			"inputs": [],
			"name": "PRBMathSD59x18__MulInputTooSmall",
			"type": "error"
		},
		{
			"inputs": [
				{
					"internalType": "uint256",
					"name": "rAbs",
					"type": "uint256"
				}
			],
			"name": "PRBMathSD59x18__MulOverflow",
			"type": "error"
		},
		{
			"inputs": [
				{
					"internalType": "uint256",
					"name": "prod1",
					"type": "uint256"
				}
			],
			"name": "PRBMath__MulDivFixedPointOverflow",
			"type": "error"
		},
		{
			"inputs": [
				{
					"internalType": "uint256",
					"name": "prod1",
					"type": "uint256"
				},
				{
					"internalType": "uint256",
					"name": "denominator",
					"type": "uint256"
				}
			],
			"name": "PRBMath__MulDivOverflow",
			"type": "error"
		},
		{
			"inputs": [
				{
					"internalType": "int256[][]",
					"name": "train",
					"type": "int256[][]"
				},
				{
					"internalType": "int256",
					"name": "l_rate",
					"type": "int256"
				},
				{
					"internalType": "uint256",
					"name": "n_epoch",
					"type": "uint256"
				}
			],
			"name": "coefficients_sgd",
			"outputs": [
				{
					"internalType": "int256[]",
					"name": "",
					"type": "int256[]"
				}
			],
			"stateMutability": "view",
			"type": "function"
		},
		{
			"inputs": [
				{
					"internalType": "int256[][]",
					"name": "train",
					"type": "int256[][]"
				},
				{
					"internalType": "int256",
					"name": "l_rate",
					"type": "int256"
				},
				{
					"internalType": "uint256",
					"name": "n_epoch",
					"type": "uint256"
				},
				{
					"internalType": "int256[]",
					"name": "coef",
					"type": "int256[]"
				}
			],
			"name": "incremental_coefficients_sgd",
			"outputs": [
				{
					"internalType": "int256[]",
					"name": "",
					"type": "int256[]"
				}
			],
			"stateMutability": "view",
			"type": "function"
		},
		{
			"inputs": [
				{
					"internalType": "int256[][]",
					"name": "train",
					"type": "int256[][]"
				},
				{
					"internalType": "int256[][]",
					"name": "test",
					"type": "int256[][]"
				},
				{
					"internalType": "int256",
					"name": "l_rate",
					"type": "int256"
				},
				{
					"internalType": "uint256",
					"name": "n_epoch",
					"type": "uint256"
				}
			],
			"name": "logistic_regression",
			"outputs": [
				{
					"internalType": "int256[]",
					"name": "",
					"type": "int256[]"
				}
			],
			"stateMutability": "view",
			"type": "function"
		},
		{
			"inputs": [
				{
					"internalType": "int256[]",
					"name": "row",
					"type": "int256[]"
				},
				{
					"internalType": "int256[]",
					"name": "coefficients",
					"type": "int256[]"
				}
			],
			"name": "predict",
			"outputs": [
				{
					"internalType": "int256",
					"name": "",
					"type": "int256"
				}
			],
			"stateMutability": "view",
			"type": "function"
		},
		{
			"inputs": [
				{
					"internalType": "int256[]",
					"name": "x",
					"type": "int256[]"
				}
			],
			"name": "test1",
			"outputs": [
				{
					"internalType": "int256[]",
					"name": "",
					"type": "int256[]"
				}
			],
			"stateMutability": "view",
			"type": "function"
		},
		{
			"inputs": [
				{
					"internalType": "string",
					"name": "x",
					"type": "string"
				}
			],
			"name": "test2",
			"outputs": [
				{
					"internalType": "string",
					"name": "",
					"type": "string"
				}
			],
			"stateMutability": "view",
			"type": "function"
		},
		{
			"inputs": [
				{
					"internalType": "int256[][]",
					"name": "x",
					"type": "int256[][]"
				}
			],
			"name": "test3",
			"outputs": [
				{
					"internalType": "int256[][]",
					"name": "",
					"type": "int256[][]"
				}
			],
			"stateMutability": "view",
			"type": "function"
		}
	]
}