{
	"data": {
		"bytecode": {
			"linkReferences": {},
			"object": "6080604052670de0b6b3a76400006000556706f05b59d3b2000060015534801561002857600080fd5b50612e08806100386000396000f3fe608060405234801561001057600080fd5b506004361061007d5760003560e01c8063714124461161005b57806371412446146101135780638ab4aa4e146101435780639101116614610173578063e4762499146101a35761007d565b80630f4475e5146100825780632b013ad9146100b25780633e73e217146100e3575b600080fd5b61009c6004803603810190610097919061220d565b6101d3565b6040516100a991906123b6565b60405180910390f35b6100cc60048036038101906100c791906123d8565b6104e2565b6040516100da929190612581565b60405180910390f35b6100fd60048036038101906100f891906125b8565b610684565b60405161010a91906125f4565b60405180910390f35b61012d6004803603810190610128919061260f565b6106aa565b60405161013a91906123b6565b60405180910390f35b61015d60048036038101906101589190612687565b61083b565b60405161016a919061272e565b60405180910390f35b61018d60048036038101906101889190612750565b610c25565b60405161019a91906123b6565b60405180910390f35b6101bd60048036038101906101b89190612892565b610d01565b6040516101ca9190612abb565b60405180910390f35b606060005b86518110156104d8576000865167ffffffffffffffff8111156101fe576101fd611ed2565b5b60405190808252806020026020018201604052801561022c5781602001602082028036833780820191505090505b50905060005b87518110156102885787818151811061024e5761024d612add565b5b602002602001015182828151811061026957610268612add565b5b602002602001018181525050808061028090612b3b565b915050610232565b50600082146102f55760005b856001846102a29190612b83565b815181106102b3576102b2612add565b5b6020026020010151518110156102f3578581815181106102d6576102d5612add565b5b6020026020010151915080806102eb90612b3b565b915050610294565b505b60005b88838151811061030b5761030a612add565b5b6020026020010151518110156104c35760005b89848151811061033157610330612add565b5b6020026020010151828151811061034b5761034a612add565b5b6020026020010151518110156104af576103f061039c8988878151811061037557610374612add565b5b6020026020010151858151811061038f5761038e612add565b5b6020026020010151610f40565b8b86815181106103af576103ae612add565b5b602002602001015184815181106103c9576103c8612add565b5b602002602001015183815181106103e3576103e2612add565b5b6020026020010151610f40565b8a858151811061040357610402612add565b5b6020026020010151838151811061041d5761041c612add565b5b6020026020010151828151811061043757610436612add565b5b60200260200101516104499190612bb7565b8a858151811061045c5761045b612add565b5b6020026020010151838151811061047657610475612add565b5b602002602001015182815181106104905761048f612add565b5b60200260200101818152505080806104a790612b3b565b91505061031e565b5080806104bb90612b3b565b9150506102f8565b505080806104d090612b3b565b9150506101d8565b5095945050505050565b60608060008390506000855167ffffffffffffffff81111561050757610506611ed2565b5b60405190808252806020026020018201604052801561053a57816020015b60608152602001906001900390816105255790505b50905060005b86518110156106745760005b87828151811061055f5761055e612add565b5b6020026020010151518110156105d257600061059589848151811061058757610586612add565b5b6020026020010151866106aa565b90506105a081610c25565b8484815181106105b3576105b2612add565b5b60200260200101819052505080806105ca90612b3b565b91505061054c565b5060005b8782815181106105e9576105e8612add565b5b6020026020010151518110156106605782828151811061060c5761060b612add565b5b6020026020010151818151811061062657610625612add565b5b602002602001015184828151811061064157610640612add565b5b602002602001018181525050808061065890612b3b565b9150506105d6565b50808061066c90612b3b565b915050610540565b5081819350935050509250929050565b60006106a38283670de0b6b3a764000061069e9190612bb7565b610f40565b9050919050565b60606000835167ffffffffffffffff8111156106c9576106c8611ed2565b5b6040519080825280602002602001820160405280156106f75781602001602082028036833780820191505090505b50905060005b845181101561073a57600082828151811061071b5761071a612add565b5b602002602001018181525050808061073290612b3b565b9150506106fd565b5060005b84518110156108305760005b85828151811061075d5761075c612add565b5b60200260200101515181101561081c576107c586838151811061078357610782612add565b5b6020026020010151828151811061079d5761079c612add565b5b60200260200101518683815181106107b8576107b7612add565b5b6020026020010151610f40565b8383815181106107d8576107d7612add565b5b60200260200101516107ea9190612c4b565b8383815181106107fd576107fc612add565b5b602002602001018181525050808061081490612b3b565b91505061074a565b50808061082890612b3b565b91505061073e565b508091505092915050565b60606000845167ffffffffffffffff81111561085a57610859611ed2565b5b60405190808252806020026020018201604052801561088d57816020015b60608152602001906001900390816108785790505b5090506000855190505b6000811115610c19576000866001836108b09190612b83565b815181106108c1576108c0612add565b5b602002602001015190506000815167ffffffffffffffff8111156108e8576108e7611ed2565b5b6040519080825280602002602001820160405280156109165781602001602082028036833780820191505090505b5090506000825167ffffffffffffffff81111561093657610935611ed2565b5b6040519080825280602002602001820160405280156109645781602001602082028036833780820191505090505b50905088518414610a875760005b8351811015610a81576000805b8b60018861098d9190612b83565b8151811061099e5761099d612add565b5b602002602001015151811015610a4c57610a2c8c6001896109bf9190612b83565b815181106109d0576109cf612add565b5b602002602001015182815181106109ea576109e9612add565b5b60200260200101518481518110610a0457610a03612add565b5b6020026020010151858381518110610a1f57610a1e612add565b5b6020026020010151610f40565b82610a379190612c4b565b91508080610a4490612b3b565b91505061097f565b5080848381518110610a6157610a60612add565b5b602002602001018181525050508080610a7990612b3b565b915050610972565b50610b2d565b60005b8351811015610b2b57888181518110610aa657610aa5612add565b5b602002602001015188600187610abc9190612b83565b81518110610acd57610acc612add565b5b60200260200101518281518110610ae757610ae6612add565b5b6020026020010151610af99190612bb7565b838281518110610b0c57610b0b612add565b5b6020026020010181815250508080610b2390612b3b565b915050610a8a565b505b60005b8351811015610bd757610ba5838281518110610b4f57610b4e612add565b5b6020026020010151610ba08a600189610b689190612b83565b81518110610b7957610b78612add565b5b60200260200101518481518110610b9357610b92612add565b5b6020026020010151610684565b610f40565b828281518110610bb857610bb7612add565b5b6020026020010181815250508080610bcf90612b3b565b915050610b30565b508085600186610be79190612b83565b81518110610bf857610bf7612add565b5b60200260200101819052505050508080610c1190612cdf565b915050610897565b50809150509392505050565b60606000825167ffffffffffffffff811115610c4457610c43611ed2565b5b604051908082528060200260200182016040528015610c725781602001602082028036833780820191505090505b50905060005b8351811015610cf757610cc5600054610cb3868481518110610c9d57610c9c612add565b5b6020026020010151610cae90612d08565b61109d565b600054610cc09190612c4b565b611160565b828281518110610cd857610cd7612add565b5b6020026020010181815250508080610cef90612b3b565b915050610c78565b5080915050919050565b606060005b83811015610f3257600060608060008667ffffffffffffffff811115610d2f57610d2e611ed2565b5b604051908082528060200260200182016040528015610d5d5781602001602082028036833780820191505090505b509050606060005b8c51811015610f1957610d928e8e8381518110610d8557610d84612add565b5b60200260200101516104e2565b809650819350505060005b89811015610dd9576000848281518110610dba57610db9612add565b5b6020026020010181815250508080610dd190612b3b565b915050610d9d565b50670de0b6b3a7640000838d8381518110610df757610df6612add565b5b602002602001015181518110610e1057610e0f612add565b5b60200260200101818152505060005b8351811015610ed057610eb0838981518110610e3e57610e3d612add565b5b6020026020010151858381518110610e5957610e58612add565b5b6020026020010151610e6b9190612bb7565b848a81518110610e7e57610e7d612add565b5b6020026020010151868481518110610e9957610e98612add565b5b6020026020010151610eab9190612bb7565b610f40565b87610ebb9190612c4b565b96508080610ec890612b3b565b915050610e1f565b50610edc8e848761083b565b9350610f058e8e8381518110610ef557610ef4612add565b5b60200260200101518d88886101d3565b508080610f1190612b3b565b915050610d65565b5050505050508080610f2a90612b3b565b915050610d06565b508690509695505050505050565b60007f8000000000000000000000000000000000000000000000000000000000000000831480610f8f57507f800000000000000000000000000000000000000000000000000000000000000082145b15610fc6576040517f3406846c00000000000000000000000000000000000000000000000000000000815260040160405180910390fd5b60008060008512610fd75784610fdc565b846000035b915060008412610fec5783610ff1565b836000035b90506000610fff83836112cc565b90507f7fffffffffffffffffffffffffffffffffffffffffffffffffffffffffffffff81111561106657806040517fbf79e8d900000000000000000000000000000000000000000000000000000000815260040161105d9190612d5f565b60405180910390fd5b60008060016000038813915060016000038713905060018183181461108b5782611090565b826000035b9550505050505092915050565b60007ffffffffffffffffffffffffffffffffffffffffffffffffdc0d0570925a462ce8212156110d0576000905061115b565b680736ea4425c11ac631821261111d57816040517f99bb754100000000000000000000000000000000000000000000000000000000815260040161111491906125f4565b60405180910390fd5b60006714057b7ef767814f83029050611157670de0b6b3a76400006706f05b59d3b2000083018161115157611150612d7a565b5b056113c9565b9150505b919050565b60007f80000000000000000000000000000000000000000000000000000000000000008314806111af57507f800000000000000000000000000000000000000000000000000000000000000082145b156111e6576040517fb3c754a300000000000000000000000000000000000000000000000000000000815260040160405180910390fd5b600080600085126111f757846111fc565b846000035b91506000841261120c5783611211565b836000035b9050600061122883670de0b6b3a7640000846114b7565b90507f7fffffffffffffffffffffffffffffffffffffffffffffffffffffffffffffff81111561128f57806040517f7cb4bef50000000000000000000000000000000000000000000000000000000081526004016112869190612d5f565b60405180910390fd5b6000806001600003881391506001600003871390506001818318146112b457826112bf565b826112be90612d08565b5b9550505050505092915050565b60008060008019848609848602925082811083820303915050670de0b6b3a7640000811061133157806040517fd31b34020000000000000000000000000000000000000000000000000000000081526004016113289190612d5f565b60405180910390fd5b600080670de0b6b3a764000086880991506706f05b59d3b1ffff821190506000830361137d5780670de0b6b3a764000085816113705761136f612d7a565b5b04019450505050506113c3565b807faccb18165bd6fe31ae1cf318dc5b51eee0e1ba569b88cd74c1773b91fac1066960016204000080600003040186851186030262040000858803041702019450505050505b92915050565b600080821215611436577ffffffffffffffffffffffffffffffffffffffffffffffffcc22e87f6eb468eeb82121561140457600090506114b2565b611410826000036113c9565b6ec097ce7bc90715b34b9f10000000008161142e5761142d612d7a565b5b0590506114b1565b680a688906bd8b000000821261148357816040517fe69458f900000000000000000000000000000000000000000000000000000000815260040161147a91906125f4565b60405180910390fd5b6000670de0b6b3a7640000604084901b816114a1576114a0612d7a565b5b0490506114ad816115cc565b9150505b5b919050565b60008060008019858709858702925082811083820303915050600081036114f2578382816114e8576114e7612d7a565b5b04925050506115c5565b8381106115385780846040517f773cc18c00000000000000000000000000000000000000000000000000000000815260040161152f929190612da9565b60405180910390fd5b60008486880990508281118203915080830392506000600186190186169050808604955080840493506001818260000304019050808302841793506000600287600302189050808702600203810290508087026002038102905080870260020381029050808702600203810290508087026002038102905080870260020381029050808502955050505050505b9392505050565b600077800000000000000000000000000000000000000000000000905060006780000000000000008316111561160f57604068016a09e667f3bcc9098202901c90505b6000674000000000000000831611156116355760406801306fe0a31b7152df8202901c90505b60006720000000000000008316111561165b5760406801172b83c7d517adce8202901c90505b60006710000000000000008316111561168157604068010b5586cf9890f62a8202901c90505b6000670800000000000000831611156116a75760406801059b0d31585743ae8202901c90505b6000670400000000000000831611156116cd576040680102c9a3e778060ee78202901c90505b6000670200000000000000831611156116f357604068010163da9fb33356d88202901c90505b600067010000000000000083161115611719576040680100b1afa5abcbed618202901c90505b600066800000000000008316111561173e57604068010058c86da1c09ea28202901c90505b60006640000000000000831611156117635760406801002c605e2e8cec508202901c90505b6000662000000000000083161115611788576040680100162f3904051fa18202901c90505b60006610000000000000831611156117ad5760406801000b175effdc76ba8202901c90505b60006608000000000000831611156117d2576040680100058ba01fb9f96d8202901c90505b60006604000000000000831611156117f757604068010002c5cc37da94928202901c90505b600066020000000000008316111561181c5760406801000162e525ee05478202901c90505b600066010000000000008316111561184157604068010000b17255775c048202901c90505b600065800000000000831611156118655760406801000058b91b5bc9ae8202901c90505b60006540000000000083161115611889576040680100002c5c89d5ec6d8202901c90505b600065200000000000831611156118ad57604068010000162e43f4f8318202901c90505b600065100000000000831611156118d1576040680100000b1721bcfc9a8202901c90505b600065080000000000831611156118f557604068010000058b90cf1e6e8202901c90505b600065040000000000831611156119195760406801000002c5c863b73f8202901c90505b6000650200000000008316111561193d576040680100000162e430e5a28202901c90505b600065010000000000831611156119615760406801000000b1721835518202901c90505b600064800000000083161115611984576040680100000058b90c0b498202901c90505b6000644000000000831611156119a757604068010000002c5c8601cc8202901c90505b6000642000000000831611156119ca5760406801000000162e42fff08202901c90505b6000641000000000831611156119ed57604068010000000b17217fbb8202901c90505b600064080000000083161115611a105760406801000000058b90bfce8202901c90505b600064040000000083161115611a33576040680100000002c5c85fe38202901c90505b600064020000000083161115611a5657604068010000000162e42ff18202901c90505b600064010000000083161115611a79576040680100000000b17217f88202901c90505b6000638000000083161115611a9b57604068010000000058b90bfc8202901c90505b6000634000000083161115611abd5760406801000000002c5c85fe8202901c90505b6000632000000083161115611adf576040680100000000162e42ff8202901c90505b6000631000000083161115611b015760406801000000000b17217f8202901c90505b6000630800000083161115611b23576040680100000000058b90c08202901c90505b6000630400000083161115611b4557604068010000000002c5c8608202901c90505b6000630200000083161115611b675760406801000000000162e4308202901c90505b6000630100000083161115611b8957604068010000000000b172188202901c90505b60006280000083161115611baa5760406801000000000058b90c8202901c90505b60006240000083161115611bcb576040680100000000002c5c868202901c90505b60006220000083161115611bec57604068010000000000162e438202901c90505b60006210000083161115611c0d576040680100000000000b17218202901c90505b60006208000083161115611c2e57604068010000000000058b918202901c90505b60006204000083161115611c4f5760406801000000000002c5c88202901c90505b60006202000083161115611c70576040680100000000000162e48202901c90505b60006201000083161115611c915760406801000000000000b1728202901c90505b600061800083161115611cb1576040680100000000000058b98202901c90505b600061400083161115611cd157604068010000000000002c5d8202901c90505b600061200083161115611cf15760406801000000000000162e8202901c90505b600061100083161115611d1157604068010000000000000b178202901c90505b600061080083161115611d315760406801000000000000058c8202901c90505b600061040083161115611d51576040680100000000000002c68202901c90505b600061020083161115611d71576040680100000000000001638202901c90505b600061010083161115611d91576040680100000000000000b18202901c90505b6000608083161115611db0576040680100000000000000598202901c90505b6000604083161115611dcf5760406801000000000000002c8202901c90505b6000602083161115611dee576040680100000000000000168202901c90505b6000601083161115611e0d5760406801000000000000000b8202901c90505b6000600883161115611e2c576040680100000000000000068202901c90505b6000600483161115611e4b576040680100000000000000038202901c90505b6000600283161115611e6a576040680100000000000000018202901c90505b6000600183161115611e89576040680100000000000000018202901c90505b670de0b6b3a764000081029050604082901c60bf0381901c9050919050565b6000604051905090565b600080fd5b600080fd5b600080fd5b6000601f19601f8301169050919050565b7f4e487b7100000000000000000000000000000000000000000000000000000000600052604160045260246000fd5b611f0a82611ec1565b810181811067ffffffffffffffff82111715611f2957611f28611ed2565b5b80604052505050565b6000611f3c611ea8565b9050611f488282611f01565b919050565b600067ffffffffffffffff821115611f6857611f67611ed2565b5b602082029050602081019050919050565b600080fd5b600067ffffffffffffffff821115611f9957611f98611ed2565b5b602082029050602081019050919050565b600067ffffffffffffffff821115611fc557611fc4611ed2565b5b602082029050602081019050919050565b6000819050919050565b611fe981611fd6565b8114611ff457600080fd5b50565b60008135905061200681611fe0565b92915050565b600061201f61201a84611faa565b611f32565b9050808382526020820190506020840283018581111561204257612041611f79565b5b835b8181101561206b57806120578882611ff7565b845260208401935050602081019050612044565b5050509392505050565b600082601f83011261208a57612089611ebc565b5b813561209a84826020860161200c565b91505092915050565b60006120b66120b184611f7e565b611f32565b905080838252602082019050602084028301858111156120d9576120d8611f79565b5b835b8181101561212057803567ffffffffffffffff8111156120fe576120fd611ebc565b5b80860161210b8982612075565b855260208501945050506020810190506120db565b5050509392505050565b600082601f83011261213f5761213e611ebc565b5b813561214f8482602086016120a3565b91505092915050565b600061216b61216684611f4d565b611f32565b9050808382526020820190506020840283018581111561218e5761218d611f79565b5b835b818110156121d557803567ffffffffffffffff8111156121b3576121b2611ebc565b5b8086016121c0898261212a565b85526020850194505050602081019050612190565b5050509392505050565b600082601f8301126121f4576121f3611ebc565b5b8135612204848260208601612158565b91505092915050565b600080600080600060a0868803121561222957612228611eb2565b5b600086013567ffffffffffffffff81111561224757612246611eb7565b5b612253888289016121df565b955050602086013567ffffffffffffffff81111561227457612273611eb7565b5b61228088828901612075565b945050604061229188828901611ff7565b935050606086013567ffffffffffffffff8111156122b2576122b1611eb7565b5b6122be8882890161212a565b925050608086013567ffffffffffffffff8111156122df576122de611eb7565b5b6122eb8882890161212a565b9150509295509295909350565b600081519050919050565b600082825260208201905092915050565b6000819050602082019050919050565b61232d81611fd6565b82525050565b600061233f8383612324565b60208301905092915050565b6000602082019050919050565b6000612363826122f8565b61236d8185612303565b935061237883612314565b8060005b838110156123a95781516123908882612333565b975061239b8361234b565b92505060018101905061237c565b5085935050505092915050565b600060208201905081810360008301526123d08184612358565b905092915050565b600080604083850312156123ef576123ee611eb2565b5b600083013567ffffffffffffffff81111561240d5761240c611eb7565b5b612419858286016121df565b925050602083013567ffffffffffffffff81111561243a57612439611eb7565b5b61244685828601612075565b9150509250929050565b600081519050919050565b600082825260208201905092915050565b6000819050602082019050919050565b600082825260208201905092915050565b6000612498826122f8565b6124a2818561247c565b93506124ad83612314565b8060005b838110156124de5781516124c58882612333565b97506124d08361234b565b9250506001810190506124b1565b5085935050505092915050565b60006124f7838361248d565b905092915050565b6000602082019050919050565b600061251782612450565b612521818561245b565b9350836020820285016125338561246c565b8060005b8581101561256f578484038952815161255085826124eb565b945061255b836124ff565b925060208a01995050600181019050612537565b50829750879550505050505092915050565b6000604082019050818103600083015261259b8185612358565b905081810360208301526125af818461250c565b90509392505050565b6000602082840312156125ce576125cd611eb2565b5b60006125dc84828501611ff7565b91505092915050565b6125ee81611fd6565b82525050565b600060208201905061260960008301846125e5565b92915050565b6000806040838503121561262657612625611eb2565b5b600083013567ffffffffffffffff81111561264457612643611eb7565b5b6126508582860161212a565b925050602083013567ffffffffffffffff81111561267157612670611eb7565b5b61267d85828601612075565b9150509250929050565b6000806000606084860312156126a05761269f611eb2565b5b600084013567ffffffffffffffff8111156126be576126bd611eb7565b5b6126ca868287016121df565b935050602084013567ffffffffffffffff8111156126eb576126ea611eb7565b5b6126f786828701612075565b925050604084013567ffffffffffffffff81111561271857612717611eb7565b5b6127248682870161212a565b9150509250925092565b60006020820190508181036000830152612748818461250c565b905092915050565b60006020828403121561276657612765611eb2565b5b600082013567ffffffffffffffff81111561278457612783611eb7565b5b61279084828501612075565b91505092915050565b600067ffffffffffffffff8211156127b4576127b3611ed2565b5b602082029050602081019050919050565b6000819050919050565b6127d8816127c5565b81146127e357600080fd5b50565b6000813590506127f5816127cf565b92915050565b600061280e61280984612799565b611f32565b9050808382526020820190506020840283018581111561283157612830611f79565b5b835b8181101561285a578061284688826127e6565b845260208401935050602081019050612833565b5050509392505050565b600082601f83011261287957612878611ebc565b5b81356128898482602086016127fb565b91505092915050565b60008060008060008060c087890312156128af576128ae611eb2565b5b600087013567ffffffffffffffff8111156128cd576128cc611eb7565b5b6128d989828a016121df565b965050602087013567ffffffffffffffff8111156128fa576128f9611eb7565b5b61290689828a0161212a565b955050604087013567ffffffffffffffff81111561292757612926611eb7565b5b61293389828a01612864565b945050606061294489828a01611ff7565b935050608061295589828a016127e6565b92505060a061296689828a016127e6565b9150509295509295509295565b600081519050919050565b600082825260208201905092915050565b6000819050602082019050919050565b600082825260208201905092915050565b60006129bb82612450565b6129c5818561299f565b9350836020820285016129d78561246c565b8060005b85811015612a1357848403895281516129f485826124eb565b94506129ff836124ff565b925060208a019950506001810190506129db565b50829750879550505050505092915050565b6000612a3183836129b0565b905092915050565b6000602082019050919050565b6000612a5182612973565b612a5b818561297e565b935083602082028501612a6d8561298f565b8060005b85811015612aa95784840389528151612a8a8582612a25565b9450612a9583612a39565b925060208a01995050600181019050612a71565b50829750879550505050505092915050565b60006020820190508181036000830152612ad58184612a46565b905092915050565b7f4e487b7100000000000000000000000000000000000000000000000000000000600052603260045260246000fd5b7f4e487b7100000000000000000000000000000000000000000000000000000000600052601160045260246000fd5b6000612b46826127c5565b91507fffffffffffffffffffffffffffffffffffffffffffffffffffffffffffffffff8203612b7857612b77612b0c565b5b600182019050919050565b6000612b8e826127c5565b9150612b99836127c5565b925082821015612bac57612bab612b0c565b5b828203905092915050565b6000612bc282611fd6565b9150612bcd83611fd6565b9250827f800000000000000000000000000000000000000000000000000000000000000001821260008412151615612c0857612c07612b0c565b5b827f7fffffffffffffffffffffffffffffffffffffffffffffffffffffffffffffff018213600084121615612c4057612c3f612b0c565b5b828203905092915050565b6000612c5682611fd6565b9150612c6183611fd6565b9250817f7fffffffffffffffffffffffffffffffffffffffffffffffffffffffffffffff03831360008312151615612c9c57612c9b612b0c565b5b817f8000000000000000000000000000000000000000000000000000000000000000038312600083121615612cd457612cd3612b0c565b5b828201905092915050565b6000612cea826127c5565b915060008203612cfd57612cfc612b0c565b5b600182039050919050565b6000612d1382611fd6565b91507f80000000000000000000000000000000000000000000000000000000000000008203612d4557612d44612b0c565b5b816000039050919050565b612d59816127c5565b82525050565b6000602082019050612d746000830184612d50565b92915050565b7f4e487b7100000000000000000000000000000000000000000000000000000000600052601260045260246000fd5b6000604082019050612dbe6000830185612d50565b612dcb6020830184612d50565b939250505056fea2646970667358221220fc3b9115e781380ba3c94036d031907989883dd11c2c5a43bf533fbbebe4393064736f6c634300080d0033",
			"opcodes": "PUSH1 0x80 PUSH1 0x40 MSTORE PUSH8 0xDE0B6B3A7640000 PUSH1 0x0 SSTORE PUSH8 0x6F05B59D3B20000 PUSH1 0x1 SSTORE CALLVALUE DUP1 ISZERO PUSH2 0x28 JUMPI PUSH1 0x0 DUP1 REVERT JUMPDEST POP PUSH2 0x2E08 DUP1 PUSH2 0x38 PUSH1 0x0 CODECOPY PUSH1 0x0 RETURN INVALID PUSH1 0x80 PUSH1 0x40 MSTORE CALLVALUE DUP1 ISZERO PUSH2 0x10 JUMPI PUSH1 0x0 DUP1 REVERT JUMPDEST POP PUSH1 0x4 CALLDATASIZE LT PUSH2 0x7D JUMPI PUSH1 0x0 CALLDATALOAD PUSH1 0xE0 SHR DUP1 PUSH4 0x71412446 GT PUSH2 0x5B JUMPI DUP1 PUSH4 0x71412446 EQ PUSH2 0x113 JUMPI DUP1 PUSH4 0x8AB4AA4E EQ PUSH2 0x143 JUMPI DUP1 PUSH4 0x91011166 EQ PUSH2 0x173 JUMPI DUP1 PUSH4 0xE4762499 EQ PUSH2 0x1A3 JUMPI PUSH2 0x7D JUMP JUMPDEST DUP1 PUSH4 0xF4475E5 EQ PUSH2 0x82 JUMPI DUP1 PUSH4 0x2B013AD9 EQ PUSH2 0xB2 JUMPI DUP1 PUSH4 0x3E73E217 EQ PUSH2 0xE3 JUMPI JUMPDEST PUSH1 0x0 DUP1 REVERT JUMPDEST PUSH2 0x9C PUSH1 0x4 DUP1 CALLDATASIZE SUB DUP2 ADD SWAP1 PUSH2 0x97 SWAP2 SWAP1 PUSH2 0x220D JUMP JUMPDEST PUSH2 0x1D3 JUMP JUMPDEST PUSH1 0x40 MLOAD PUSH2 0xA9 SWAP2 SWAP1 PUSH2 0x23B6 JUMP JUMPDEST PUSH1 0x40 MLOAD DUP1 SWAP2 SUB SWAP1 RETURN JUMPDEST PUSH2 0xCC PUSH1 0x4 DUP1 CALLDATASIZE SUB DUP2 ADD SWAP1 PUSH2 0xC7 SWAP2 SWAP1 PUSH2 0x23D8 JUMP JUMPDEST PUSH2 0x4E2 JUMP JUMPDEST PUSH1 0x40 MLOAD PUSH2 0xDA SWAP3 SWAP2 SWAP1 PUSH2 0x2581 JUMP JUMPDEST PUSH1 0x40 MLOAD DUP1 SWAP2 SUB SWAP1 RETURN JUMPDEST PUSH2 0xFD PUSH1 0x4 DUP1 CALLDATASIZE SUB DUP2 ADD SWAP1 PUSH2 0xF8 SWAP2 SWAP1 PUSH2 0x25B8 JUMP JUMPDEST PUSH2 0x684 JUMP JUMPDEST PUSH1 0x40 MLOAD PUSH2 0x10A SWAP2 SWAP1 PUSH2 0x25F4 JUMP JUMPDEST PUSH1 0x40 MLOAD DUP1 SWAP2 SUB SWAP1 RETURN JUMPDEST PUSH2 0x12D PUSH1 0x4 DUP1 CALLDATASIZE SUB DUP2 ADD SWAP1 PUSH2 0x128 SWAP2 SWAP1 PUSH2 0x260F JUMP JUMPDEST PUSH2 0x6AA JUMP JUMPDEST PUSH1 0x40 MLOAD PUSH2 0x13A SWAP2 SWAP1 PUSH2 0x23B6 JUMP JUMPDEST PUSH1 0x40 MLOAD DUP1 SWAP2 SUB SWAP1 RETURN JUMPDEST PUSH2 0x15D PUSH1 0x4 DUP1 CALLDATASIZE SUB DUP2 ADD SWAP1 PUSH2 0x158 SWAP2 SWAP1 PUSH2 0x2687 JUMP JUMPDEST PUSH2 0x83B JUMP JUMPDEST PUSH1 0x40 MLOAD PUSH2 0x16A SWAP2 SWAP1 PUSH2 0x272E JUMP JUMPDEST PUSH1 0x40 MLOAD DUP1 SWAP2 SUB SWAP1 RETURN JUMPDEST PUSH2 0x18D PUSH1 0x4 DUP1 CALLDATASIZE SUB DUP2 ADD SWAP1 PUSH2 0x188 SWAP2 SWAP1 PUSH2 0x2750 JUMP JUMPDEST PUSH2 0xC25 JUMP JUMPDEST PUSH1 0x40 MLOAD PUSH2 0x19A SWAP2 SWAP1 PUSH2 0x23B6 JUMP JUMPDEST PUSH1 0x40 MLOAD DUP1 SWAP2 SUB SWAP1 RETURN JUMPDEST PUSH2 0x1BD PUSH1 0x4 DUP1 CALLDATASIZE SUB DUP2 ADD SWAP1 PUSH2 0x1B8 SWAP2 SWAP1 PUSH2 0x2892 JUMP JUMPDEST PUSH2 0xD01 JUMP JUMPDEST PUSH1 0x40 MLOAD PUSH2 0x1CA SWAP2 SWAP1 PUSH2 0x2ABB JUMP JUMPDEST PUSH1 0x40 MLOAD DUP1 SWAP2 SUB SWAP1 RETURN JUMPDEST PUSH1 0x60 PUSH1 0x0 JUMPDEST DUP7 MLOAD DUP2 LT ISZERO PUSH2 0x4D8 JUMPI PUSH1 0x0 DUP7 MLOAD PUSH8 0xFFFFFFFFFFFFFFFF DUP2 GT ISZERO PUSH2 0x1FE JUMPI PUSH2 0x1FD PUSH2 0x1ED2 JUMP JUMPDEST JUMPDEST PUSH1 0x40 MLOAD SWAP1 DUP1 DUP3 MSTORE DUP1 PUSH1 0x20 MUL PUSH1 0x20 ADD DUP3 ADD PUSH1 0x40 MSTORE DUP1 ISZERO PUSH2 0x22C JUMPI DUP2 PUSH1 0x20 ADD PUSH1 0x20 DUP3 MUL DUP1 CALLDATASIZE DUP4 CALLDATACOPY DUP1 DUP3 ADD SWAP2 POP POP SWAP1 POP JUMPDEST POP SWAP1 POP PUSH1 0x0 JUMPDEST DUP8 MLOAD DUP2 LT ISZERO PUSH2 0x288 JUMPI DUP8 DUP2 DUP2 MLOAD DUP2 LT PUSH2 0x24E JUMPI PUSH2 0x24D PUSH2 0x2ADD JUMP JUMPDEST JUMPDEST PUSH1 0x20 MUL PUSH1 0x20 ADD ADD MLOAD DUP3 DUP3 DUP2 MLOAD DUP2 LT PUSH2 0x269 JUMPI PUSH2 0x268 PUSH2 0x2ADD JUMP JUMPDEST JUMPDEST PUSH1 0x20 MUL PUSH1 0x20 ADD ADD DUP2 DUP2 MSTORE POP POP DUP1 DUP1 PUSH2 0x280 SWAP1 PUSH2 0x2B3B JUMP JUMPDEST SWAP2 POP POP PUSH2 0x232 JUMP JUMPDEST POP PUSH1 0x0 DUP3 EQ PUSH2 0x2F5 JUMPI PUSH1 0x0 JUMPDEST DUP6 PUSH1 0x1 DUP5 PUSH2 0x2A2 SWAP2 SWAP1 PUSH2 0x2B83 JUMP JUMPDEST DUP2 MLOAD DUP2 LT PUSH2 0x2B3 JUMPI PUSH2 0x2B2 PUSH2 0x2ADD JUMP JUMPDEST JUMPDEST PUSH1 0x20 MUL PUSH1 0x20 ADD ADD MLOAD MLOAD DUP2 LT ISZERO PUSH2 0x2F3 JUMPI DUP6 DUP2 DUP2 MLOAD DUP2 LT PUSH2 0x2D6 JUMPI PUSH2 0x2D5 PUSH2 0x2ADD JUMP JUMPDEST JUMPDEST PUSH1 0x20 MUL PUSH1 0x20 ADD ADD MLOAD SWAP2 POP DUP1 DUP1 PUSH2 0x2EB SWAP1 PUSH2 0x2B3B JUMP JUMPDEST SWAP2 POP POP PUSH2 0x294 JUMP JUMPDEST POP JUMPDEST PUSH1 0x0 JUMPDEST DUP9 DUP4 DUP2 MLOAD DUP2 LT PUSH2 0x30B JUMPI PUSH2 0x30A PUSH2 0x2ADD JUMP JUMPDEST JUMPDEST PUSH1 0x20 MUL PUSH1 0x20 ADD ADD MLOAD MLOAD DUP2 LT ISZERO PUSH2 0x4C3 JUMPI PUSH1 0x0 JUMPDEST DUP10 DUP5 DUP2 MLOAD DUP2 LT PUSH2 0x331 JUMPI PUSH2 0x330 PUSH2 0x2ADD JUMP JUMPDEST JUMPDEST PUSH1 0x20 MUL PUSH1 0x20 ADD ADD MLOAD DUP3 DUP2 MLOAD DUP2 LT PUSH2 0x34B JUMPI PUSH2 0x34A PUSH2 0x2ADD JUMP JUMPDEST JUMPDEST PUSH1 0x20 MUL PUSH1 0x20 ADD ADD MLOAD MLOAD DUP2 LT ISZERO PUSH2 0x4AF JUMPI PUSH2 0x3F0 PUSH2 0x39C DUP10 DUP9 DUP8 DUP2 MLOAD DUP2 LT PUSH2 0x375 JUMPI PUSH2 0x374 PUSH2 0x2ADD JUMP JUMPDEST JUMPDEST PUSH1 0x20 MUL PUSH1 0x20 ADD ADD MLOAD DUP6 DUP2 MLOAD DUP2 LT PUSH2 0x38F JUMPI PUSH2 0x38E PUSH2 0x2ADD JUMP JUMPDEST JUMPDEST PUSH1 0x20 MUL PUSH1 0x20 ADD ADD MLOAD PUSH2 0xF40 JUMP JUMPDEST DUP12 DUP7 DUP2 MLOAD DUP2 LT PUSH2 0x3AF JUMPI PUSH2 0x3AE PUSH2 0x2ADD JUMP JUMPDEST JUMPDEST PUSH1 0x20 MUL PUSH1 0x20 ADD ADD MLOAD DUP5 DUP2 MLOAD DUP2 LT PUSH2 0x3C9 JUMPI PUSH2 0x3C8 PUSH2 0x2ADD JUMP JUMPDEST JUMPDEST PUSH1 0x20 MUL PUSH1 0x20 ADD ADD MLOAD DUP4 DUP2 MLOAD DUP2 LT PUSH2 0x3E3 JUMPI PUSH2 0x3E2 PUSH2 0x2ADD JUMP JUMPDEST JUMPDEST PUSH1 0x20 MUL PUSH1 0x20 ADD ADD MLOAD PUSH2 0xF40 JUMP JUMPDEST DUP11 DUP6 DUP2 MLOAD DUP2 LT PUSH2 0x403 JUMPI PUSH2 0x402 PUSH2 0x2ADD JUMP JUMPDEST JUMPDEST PUSH1 0x20 MUL PUSH1 0x20 ADD ADD MLOAD DUP4 DUP2 MLOAD DUP2 LT PUSH2 0x41D JUMPI PUSH2 0x41C PUSH2 0x2ADD JUMP JUMPDEST JUMPDEST PUSH1 0x20 MUL PUSH1 0x20 ADD ADD MLOAD DUP3 DUP2 MLOAD DUP2 LT PUSH2 0x437 JUMPI PUSH2 0x436 PUSH2 0x2ADD JUMP JUMPDEST JUMPDEST PUSH1 0x20 MUL PUSH1 0x20 ADD ADD MLOAD PUSH2 0x449 SWAP2 SWAP1 PUSH2 0x2BB7 JUMP JUMPDEST DUP11 DUP6 DUP2 MLOAD DUP2 LT PUSH2 0x45C JUMPI PUSH2 0x45B PUSH2 0x2ADD JUMP JUMPDEST JUMPDEST PUSH1 0x20 MUL PUSH1 0x20 ADD ADD MLOAD DUP4 DUP2 MLOAD DUP2 LT PUSH2 0x476 JUMPI PUSH2 0x475 PUSH2 0x2ADD JUMP JUMPDEST JUMPDEST PUSH1 0x20 MUL PUSH1 0x20 ADD ADD MLOAD DUP3 DUP2 MLOAD DUP2 LT PUSH2 0x490 JUMPI PUSH2 0x48F PUSH2 0x2ADD JUMP JUMPDEST JUMPDEST PUSH1 0x20 MUL PUSH1 0x20 ADD ADD DUP2 DUP2 MSTORE POP POP DUP1 DUP1 PUSH2 0x4A7 SWAP1 PUSH2 0x2B3B JUMP JUMPDEST SWAP2 POP POP PUSH2 0x31E JUMP JUMPDEST POP DUP1 DUP1 PUSH2 0x4BB SWAP1 PUSH2 0x2B3B JUMP JUMPDEST SWAP2 POP POP PUSH2 0x2F8 JUMP JUMPDEST POP POP DUP1 DUP1 PUSH2 0x4D0 SWAP1 PUSH2 0x2B3B JUMP JUMPDEST SWAP2 POP POP PUSH2 0x1D8 JUMP JUMPDEST POP SWAP6 SWAP5 POP POP POP POP POP JUMP JUMPDEST PUSH1 0x60 DUP1 PUSH1 0x0 DUP4 SWAP1 POP PUSH1 0x0 DUP6 MLOAD PUSH8 0xFFFFFFFFFFFFFFFF DUP2 GT ISZERO PUSH2 0x507 JUMPI PUSH2 0x506 PUSH2 0x1ED2 JUMP JUMPDEST JUMPDEST PUSH1 0x40 MLOAD SWAP1 DUP1 DUP3 MSTORE DUP1 PUSH1 0x20 MUL PUSH1 0x20 ADD DUP3 ADD PUSH1 0x40 MSTORE DUP1 ISZERO PUSH2 0x53A JUMPI DUP2 PUSH1 0x20 ADD JUMPDEST PUSH1 0x60 DUP2 MSTORE PUSH1 0x20 ADD SWAP1 PUSH1 0x1 SWAP1 SUB SWAP1 DUP2 PUSH2 0x525 JUMPI SWAP1 POP JUMPDEST POP SWAP1 POP PUSH1 0x0 JUMPDEST DUP7 MLOAD DUP2 LT ISZERO PUSH2 0x674 JUMPI PUSH1 0x0 JUMPDEST DUP8 DUP3 DUP2 MLOAD DUP2 LT PUSH2 0x55F JUMPI PUSH2 0x55E PUSH2 0x2ADD JUMP JUMPDEST JUMPDEST PUSH1 0x20 MUL PUSH1 0x20 ADD ADD MLOAD MLOAD DUP2 LT ISZERO PUSH2 0x5D2 JUMPI PUSH1 0x0 PUSH2 0x595 DUP10 DUP5 DUP2 MLOAD DUP2 LT PUSH2 0x587 JUMPI PUSH2 0x586 PUSH2 0x2ADD JUMP JUMPDEST JUMPDEST PUSH1 0x20 MUL PUSH1 0x20 ADD ADD MLOAD DUP7 PUSH2 0x6AA JUMP JUMPDEST SWAP1 POP PUSH2 0x5A0 DUP2 PUSH2 0xC25 JUMP JUMPDEST DUP5 DUP5 DUP2 MLOAD DUP2 LT PUSH2 0x5B3 JUMPI PUSH2 0x5B2 PUSH2 0x2ADD JUMP JUMPDEST JUMPDEST PUSH1 0x20 MUL PUSH1 0x20 ADD ADD DUP2 SWAP1 MSTORE POP POP DUP1 DUP1 PUSH2 0x5CA SWAP1 PUSH2 0x2B3B JUMP JUMPDEST SWAP2 POP POP PUSH2 0x54C JUMP JUMPDEST POP PUSH1 0x0 JUMPDEST DUP8 DUP3 DUP2 MLOAD DUP2 LT PUSH2 0x5E9 JUMPI PUSH2 0x5E8 PUSH2 0x2ADD JUMP JUMPDEST JUMPDEST PUSH1 0x20 MUL PUSH1 0x20 ADD ADD MLOAD MLOAD DUP2 LT ISZERO PUSH2 0x660 JUMPI DUP3 DUP3 DUP2 MLOAD DUP2 LT PUSH2 0x60C JUMPI PUSH2 0x60B PUSH2 0x2ADD JUMP JUMPDEST JUMPDEST PUSH1 0x20 MUL PUSH1 0x20 ADD ADD MLOAD DUP2 DUP2 MLOAD DUP2 LT PUSH2 0x626 JUMPI PUSH2 0x625 PUSH2 0x2ADD JUMP JUMPDEST JUMPDEST PUSH1 0x20 MUL PUSH1 0x20 ADD ADD MLOAD DUP5 DUP3 DUP2 MLOAD DUP2 LT PUSH2 0x641 JUMPI PUSH2 0x640 PUSH2 0x2ADD JUMP JUMPDEST JUMPDEST PUSH1 0x20 MUL PUSH1 0x20 ADD ADD DUP2 DUP2 MSTORE POP POP DUP1 DUP1 PUSH2 0x658 SWAP1 PUSH2 0x2B3B JUMP JUMPDEST SWAP2 POP POP PUSH2 0x5D6 JUMP JUMPDEST POP DUP1 DUP1 PUSH2 0x66C SWAP1 PUSH2 0x2B3B JUMP JUMPDEST SWAP2 POP POP PUSH2 0x540 JUMP JUMPDEST POP DUP2 DUP2 SWAP4 POP SWAP4 POP POP POP SWAP3 POP SWAP3 SWAP1 POP JUMP JUMPDEST PUSH1 0x0 PUSH2 0x6A3 DUP3 DUP4 PUSH8 0xDE0B6B3A7640000 PUSH2 0x69E SWAP2 SWAP1 PUSH2 0x2BB7 JUMP JUMPDEST PUSH2 0xF40 JUMP JUMPDEST SWAP1 POP SWAP2 SWAP1 POP JUMP JUMPDEST PUSH1 0x60 PUSH1 0x0 DUP4 MLOAD PUSH8 0xFFFFFFFFFFFFFFFF DUP2 GT ISZERO PUSH2 0x6C9 JUMPI PUSH2 0x6C8 PUSH2 0x1ED2 JUMP JUMPDEST JUMPDEST PUSH1 0x40 MLOAD SWAP1 DUP1 DUP3 MSTORE DUP1 PUSH1 0x20 MUL PUSH1 0x20 ADD DUP3 ADD PUSH1 0x40 MSTORE DUP1 ISZERO PUSH2 0x6F7 JUMPI DUP2 PUSH1 0x20 ADD PUSH1 0x20 DUP3 MUL DUP1 CALLDATASIZE DUP4 CALLDATACOPY DUP1 DUP3 ADD SWAP2 POP POP SWAP1 POP JUMPDEST POP SWAP1 POP PUSH1 0x0 JUMPDEST DUP5 MLOAD DUP2 LT ISZERO PUSH2 0x73A JUMPI PUSH1 0x0 DUP3 DUP3 DUP2 MLOAD DUP2 LT PUSH2 0x71B JUMPI PUSH2 0x71A PUSH2 0x2ADD JUMP JUMPDEST JUMPDEST PUSH1 0x20 MUL PUSH1 0x20 ADD ADD DUP2 DUP2 MSTORE POP POP DUP1 DUP1 PUSH2 0x732 SWAP1 PUSH2 0x2B3B JUMP JUMPDEST SWAP2 POP POP PUSH2 0x6FD JUMP JUMPDEST POP PUSH1 0x0 JUMPDEST DUP5 MLOAD DUP2 LT ISZERO PUSH2 0x830 JUMPI PUSH1 0x0 JUMPDEST DUP6 DUP3 DUP2 MLOAD DUP2 LT PUSH2 0x75D JUMPI PUSH2 0x75C PUSH2 0x2ADD JUMP JUMPDEST JUMPDEST PUSH1 0x20 MUL PUSH1 0x20 ADD ADD MLOAD MLOAD DUP2 LT ISZERO PUSH2 0x81C JUMPI PUSH2 0x7C5 DUP7 DUP4 DUP2 MLOAD DUP2 LT PUSH2 0x783 JUMPI PUSH2 0x782 PUSH2 0x2ADD JUMP JUMPDEST JUMPDEST PUSH1 0x20 MUL PUSH1 0x20 ADD ADD MLOAD DUP3 DUP2 MLOAD DUP2 LT PUSH2 0x79D JUMPI PUSH2 0x79C PUSH2 0x2ADD JUMP JUMPDEST JUMPDEST PUSH1 0x20 MUL PUSH1 0x20 ADD ADD MLOAD DUP7 DUP4 DUP2 MLOAD DUP2 LT PUSH2 0x7B8 JUMPI PUSH2 0x7B7 PUSH2 0x2ADD JUMP JUMPDEST JUMPDEST PUSH1 0x20 MUL PUSH1 0x20 ADD ADD MLOAD PUSH2 0xF40 JUMP JUMPDEST DUP4 DUP4 DUP2 MLOAD DUP2 LT PUSH2 0x7D8 JUMPI PUSH2 0x7D7 PUSH2 0x2ADD JUMP JUMPDEST JUMPDEST PUSH1 0x20 MUL PUSH1 0x20 ADD ADD MLOAD PUSH2 0x7EA SWAP2 SWAP1 PUSH2 0x2C4B JUMP JUMPDEST DUP4 DUP4 DUP2 MLOAD DUP2 LT PUSH2 0x7FD JUMPI PUSH2 0x7FC PUSH2 0x2ADD JUMP JUMPDEST JUMPDEST PUSH1 0x20 MUL PUSH1 0x20 ADD ADD DUP2 DUP2 MSTORE POP POP DUP1 DUP1 PUSH2 0x814 SWAP1 PUSH2 0x2B3B JUMP JUMPDEST SWAP2 POP POP PUSH2 0x74A JUMP JUMPDEST POP DUP1 DUP1 PUSH2 0x828 SWAP1 PUSH2 0x2B3B JUMP JUMPDEST SWAP2 POP POP PUSH2 0x73E JUMP JUMPDEST POP DUP1 SWAP2 POP POP SWAP3 SWAP2 POP POP JUMP JUMPDEST PUSH1 0x60 PUSH1 0x0 DUP5 MLOAD PUSH8 0xFFFFFFFFFFFFFFFF DUP2 GT ISZERO PUSH2 0x85A JUMPI PUSH2 0x859 PUSH2 0x1ED2 JUMP JUMPDEST JUMPDEST PUSH1 0x40 MLOAD SWAP1 DUP1 DUP3 MSTORE DUP1 PUSH1 0x20 MUL PUSH1 0x20 ADD DUP3 ADD PUSH1 0x40 MSTORE DUP1 ISZERO PUSH2 0x88D JUMPI DUP2 PUSH1 0x20 ADD JUMPDEST PUSH1 0x60 DUP2 MSTORE PUSH1 0x20 ADD SWAP1 PUSH1 0x1 SWAP1 SUB SWAP1 DUP2 PUSH2 0x878 JUMPI SWAP1 POP JUMPDEST POP SWAP1 POP PUSH1 0x0 DUP6 MLOAD SWAP1 POP JUMPDEST PUSH1 0x0 DUP2 GT ISZERO PUSH2 0xC19 JUMPI PUSH1 0x0 DUP7 PUSH1 0x1 DUP4 PUSH2 0x8B0 SWAP2 SWAP1 PUSH2 0x2B83 JUMP JUMPDEST DUP2 MLOAD DUP2 LT PUSH2 0x8C1 JUMPI PUSH2 0x8C0 PUSH2 0x2ADD JUMP JUMPDEST JUMPDEST PUSH1 0x20 MUL PUSH1 0x20 ADD ADD MLOAD SWAP1 POP PUSH1 0x0 DUP2 MLOAD PUSH8 0xFFFFFFFFFFFFFFFF DUP2 GT ISZERO PUSH2 0x8E8 JUMPI PUSH2 0x8E7 PUSH2 0x1ED2 JUMP JUMPDEST JUMPDEST PUSH1 0x40 MLOAD SWAP1 DUP1 DUP3 MSTORE DUP1 PUSH1 0x20 MUL PUSH1 0x20 ADD DUP3 ADD PUSH1 0x40 MSTORE DUP1 ISZERO PUSH2 0x916 JUMPI DUP2 PUSH1 0x20 ADD PUSH1 0x20 DUP3 MUL DUP1 CALLDATASIZE DUP4 CALLDATACOPY DUP1 DUP3 ADD SWAP2 POP POP SWAP1 POP JUMPDEST POP SWAP1 POP PUSH1 0x0 DUP3 MLOAD PUSH8 0xFFFFFFFFFFFFFFFF DUP2 GT ISZERO PUSH2 0x936 JUMPI PUSH2 0x935 PUSH2 0x1ED2 JUMP JUMPDEST JUMPDEST PUSH1 0x40 MLOAD SWAP1 DUP1 DUP3 MSTORE DUP1 PUSH1 0x20 MUL PUSH1 0x20 ADD DUP3 ADD PUSH1 0x40 MSTORE DUP1 ISZERO PUSH2 0x964 JUMPI DUP2 PUSH1 0x20 ADD PUSH1 0x20 DUP3 MUL DUP1 CALLDATASIZE DUP4 CALLDATACOPY DUP1 DUP3 ADD SWAP2 POP POP SWAP1 POP JUMPDEST POP SWAP1 POP DUP9 MLOAD DUP5 EQ PUSH2 0xA87 JUMPI PUSH1 0x0 JUMPDEST DUP4 MLOAD DUP2 LT ISZERO PUSH2 0xA81 JUMPI PUSH1 0x0 DUP1 JUMPDEST DUP12 PUSH1 0x1 DUP9 PUSH2 0x98D SWAP2 SWAP1 PUSH2 0x2B83 JUMP JUMPDEST DUP2 MLOAD DUP2 LT PUSH2 0x99E JUMPI PUSH2 0x99D PUSH2 0x2ADD JUMP JUMPDEST JUMPDEST PUSH1 0x20 MUL PUSH1 0x20 ADD ADD MLOAD MLOAD DUP2 LT ISZERO PUSH2 0xA4C JUMPI PUSH2 0xA2C DUP13 PUSH1 0x1 DUP10 PUSH2 0x9BF SWAP2 SWAP1 PUSH2 0x2B83 JUMP JUMPDEST DUP2 MLOAD DUP2 LT PUSH2 0x9D0 JUMPI PUSH2 0x9CF PUSH2 0x2ADD JUMP JUMPDEST JUMPDEST PUSH1 0x20 MUL PUSH1 0x20 ADD ADD MLOAD DUP3 DUP2 MLOAD DUP2 LT PUSH2 0x9EA JUMPI PUSH2 0x9E9 PUSH2 0x2ADD JUMP JUMPDEST JUMPDEST PUSH1 0x20 MUL PUSH1 0x20 ADD ADD MLOAD DUP5 DUP2 MLOAD DUP2 LT PUSH2 0xA04 JUMPI PUSH2 0xA03 PUSH2 0x2ADD JUMP JUMPDEST JUMPDEST PUSH1 0x20 MUL PUSH1 0x20 ADD ADD MLOAD DUP6 DUP4 DUP2 MLOAD DUP2 LT PUSH2 0xA1F JUMPI PUSH2 0xA1E PUSH2 0x2ADD JUMP JUMPDEST JUMPDEST PUSH1 0x20 MUL PUSH1 0x20 ADD ADD MLOAD PUSH2 0xF40 JUMP JUMPDEST DUP3 PUSH2 0xA37 SWAP2 SWAP1 PUSH2 0x2C4B JUMP JUMPDEST SWAP2 POP DUP1 DUP1 PUSH2 0xA44 SWAP1 PUSH2 0x2B3B JUMP JUMPDEST SWAP2 POP POP PUSH2 0x97F JUMP JUMPDEST POP DUP1 DUP5 DUP4 DUP2 MLOAD DUP2 LT PUSH2 0xA61 JUMPI PUSH2 0xA60 PUSH2 0x2ADD JUMP JUMPDEST JUMPDEST PUSH1 0x20 MUL PUSH1 0x20 ADD ADD DUP2 DUP2 MSTORE POP POP POP DUP1 DUP1 PUSH2 0xA79 SWAP1 PUSH2 0x2B3B JUMP JUMPDEST SWAP2 POP POP PUSH2 0x972 JUMP JUMPDEST POP PUSH2 0xB2D JUMP JUMPDEST PUSH1 0x0 JUMPDEST DUP4 MLOAD DUP2 LT ISZERO PUSH2 0xB2B JUMPI DUP9 DUP2 DUP2 MLOAD DUP2 LT PUSH2 0xAA6 JUMPI PUSH2 0xAA5 PUSH2 0x2ADD JUMP JUMPDEST JUMPDEST PUSH1 0x20 MUL PUSH1 0x20 ADD ADD MLOAD DUP9 PUSH1 0x1 DUP8 PUSH2 0xABC SWAP2 SWAP1 PUSH2 0x2B83 JUMP JUMPDEST DUP2 MLOAD DUP2 LT PUSH2 0xACD JUMPI PUSH2 0xACC PUSH2 0x2ADD JUMP JUMPDEST JUMPDEST PUSH1 0x20 MUL PUSH1 0x20 ADD ADD MLOAD DUP3 DUP2 MLOAD DUP2 LT PUSH2 0xAE7 JUMPI PUSH2 0xAE6 PUSH2 0x2ADD JUMP JUMPDEST JUMPDEST PUSH1 0x20 MUL PUSH1 0x20 ADD ADD MLOAD PUSH2 0xAF9 SWAP2 SWAP1 PUSH2 0x2BB7 JUMP JUMPDEST DUP4 DUP3 DUP2 MLOAD DUP2 LT PUSH2 0xB0C JUMPI PUSH2 0xB0B PUSH2 0x2ADD JUMP JUMPDEST JUMPDEST PUSH1 0x20 MUL PUSH1 0x20 ADD ADD DUP2 DUP2 MSTORE POP POP DUP1 DUP1 PUSH2 0xB23 SWAP1 PUSH2 0x2B3B JUMP JUMPDEST SWAP2 POP POP PUSH2 0xA8A JUMP JUMPDEST POP JUMPDEST PUSH1 0x0 JUMPDEST DUP4 MLOAD DUP2 LT ISZERO PUSH2 0xBD7 JUMPI PUSH2 0xBA5 DUP4 DUP3 DUP2 MLOAD DUP2 LT PUSH2 0xB4F JUMPI PUSH2 0xB4E PUSH2 0x2ADD JUMP JUMPDEST JUMPDEST PUSH1 0x20 MUL PUSH1 0x20 ADD ADD MLOAD PUSH2 0xBA0 DUP11 PUSH1 0x1 DUP10 PUSH2 0xB68 SWAP2 SWAP1 PUSH2 0x2B83 JUMP JUMPDEST DUP2 MLOAD DUP2 LT PUSH2 0xB79 JUMPI PUSH2 0xB78 PUSH2 0x2ADD JUMP JUMPDEST JUMPDEST PUSH1 0x20 MUL PUSH1 0x20 ADD ADD MLOAD DUP5 DUP2 MLOAD DUP2 LT PUSH2 0xB93 JUMPI PUSH2 0xB92 PUSH2 0x2ADD JUMP JUMPDEST JUMPDEST PUSH1 0x20 MUL PUSH1 0x20 ADD ADD MLOAD PUSH2 0x684 JUMP JUMPDEST PUSH2 0xF40 JUMP JUMPDEST DUP3 DUP3 DUP2 MLOAD DUP2 LT PUSH2 0xBB8 JUMPI PUSH2 0xBB7 PUSH2 0x2ADD JUMP JUMPDEST JUMPDEST PUSH1 0x20 MUL PUSH1 0x20 ADD ADD DUP2 DUP2 MSTORE POP POP DUP1 DUP1 PUSH2 0xBCF SWAP1 PUSH2 0x2B3B JUMP JUMPDEST SWAP2 POP POP PUSH2 0xB30 JUMP JUMPDEST POP DUP1 DUP6 PUSH1 0x1 DUP7 PUSH2 0xBE7 SWAP2 SWAP1 PUSH2 0x2B83 JUMP JUMPDEST DUP2 MLOAD DUP2 LT PUSH2 0xBF8 JUMPI PUSH2 0xBF7 PUSH2 0x2ADD JUMP JUMPDEST JUMPDEST PUSH1 0x20 MUL PUSH1 0x20 ADD ADD DUP2 SWAP1 MSTORE POP POP POP POP DUP1 DUP1 PUSH2 0xC11 SWAP1 PUSH2 0x2CDF JUMP JUMPDEST SWAP2 POP POP PUSH2 0x897 JUMP JUMPDEST POP DUP1 SWAP2 POP POP SWAP4 SWAP3 POP POP POP JUMP JUMPDEST PUSH1 0x60 PUSH1 0x0 DUP3 MLOAD PUSH8 0xFFFFFFFFFFFFFFFF DUP2 GT ISZERO PUSH2 0xC44 JUMPI PUSH2 0xC43 PUSH2 0x1ED2 JUMP JUMPDEST JUMPDEST PUSH1 0x40 MLOAD SWAP1 DUP1 DUP3 MSTORE DUP1 PUSH1 0x20 MUL PUSH1 0x20 ADD DUP3 ADD PUSH1 0x40 MSTORE DUP1 ISZERO PUSH2 0xC72 JUMPI DUP2 PUSH1 0x20 ADD PUSH1 0x20 DUP3 MUL DUP1 CALLDATASIZE DUP4 CALLDATACOPY DUP1 DUP3 ADD SWAP2 POP POP SWAP1 POP JUMPDEST POP SWAP1 POP PUSH1 0x0 JUMPDEST DUP4 MLOAD DUP2 LT ISZERO PUSH2 0xCF7 JUMPI PUSH2 0xCC5 PUSH1 0x0 SLOAD PUSH2 0xCB3 DUP7 DUP5 DUP2 MLOAD DUP2 LT PUSH2 0xC9D JUMPI PUSH2 0xC9C PUSH2 0x2ADD JUMP JUMPDEST JUMPDEST PUSH1 0x20 MUL PUSH1 0x20 ADD ADD MLOAD PUSH2 0xCAE SWAP1 PUSH2 0x2D08 JUMP JUMPDEST PUSH2 0x109D JUMP JUMPDEST PUSH1 0x0 SLOAD PUSH2 0xCC0 SWAP2 SWAP1 PUSH2 0x2C4B JUMP JUMPDEST PUSH2 0x1160 JUMP JUMPDEST DUP3 DUP3 DUP2 MLOAD DUP2 LT PUSH2 0xCD8 JUMPI PUSH2 0xCD7 PUSH2 0x2ADD JUMP JUMPDEST JUMPDEST PUSH1 0x20 MUL PUSH1 0x20 ADD ADD DUP2 DUP2 MSTORE POP POP DUP1 DUP1 PUSH2 0xCEF SWAP1 PUSH2 0x2B3B JUMP JUMPDEST SWAP2 POP POP PUSH2 0xC78 JUMP JUMPDEST POP DUP1 SWAP2 POP POP SWAP2 SWAP1 POP JUMP JUMPDEST PUSH1 0x60 PUSH1 0x0 JUMPDEST DUP4 DUP2 LT ISZERO PUSH2 0xF32 JUMPI PUSH1 0x0 PUSH1 0x60 DUP1 PUSH1 0x0 DUP7 PUSH8 0xFFFFFFFFFFFFFFFF DUP2 GT ISZERO PUSH2 0xD2F JUMPI PUSH2 0xD2E PUSH2 0x1ED2 JUMP JUMPDEST JUMPDEST PUSH1 0x40 MLOAD SWAP1 DUP1 DUP3 MSTORE DUP1 PUSH1 0x20 MUL PUSH1 0x20 ADD DUP3 ADD PUSH1 0x40 MSTORE DUP1 ISZERO PUSH2 0xD5D JUMPI DUP2 PUSH1 0x20 ADD PUSH1 0x20 DUP3 MUL DUP1 CALLDATASIZE DUP4 CALLDATACOPY DUP1 DUP3 ADD SWAP2 POP POP SWAP1 POP JUMPDEST POP SWAP1 POP PUSH1 0x60 PUSH1 0x0 JUMPDEST DUP13 MLOAD DUP2 LT ISZERO PUSH2 0xF19 JUMPI PUSH2 0xD92 DUP15 DUP15 DUP4 DUP2 MLOAD DUP2 LT PUSH2 0xD85 JUMPI PUSH2 0xD84 PUSH2 0x2ADD JUMP JUMPDEST JUMPDEST PUSH1 0x20 MUL PUSH1 0x20 ADD ADD MLOAD PUSH2 0x4E2 JUMP JUMPDEST DUP1 SWAP7 POP DUP2 SWAP4 POP POP POP PUSH1 0x0 JUMPDEST DUP10 DUP2 LT ISZERO PUSH2 0xDD9 JUMPI PUSH1 0x0 DUP5 DUP3 DUP2 MLOAD DUP2 LT PUSH2 0xDBA JUMPI PUSH2 0xDB9 PUSH2 0x2ADD JUMP JUMPDEST JUMPDEST PUSH1 0x20 MUL PUSH1 0x20 ADD ADD DUP2 DUP2 MSTORE POP POP DUP1 DUP1 PUSH2 0xDD1 SWAP1 PUSH2 0x2B3B JUMP JUMPDEST SWAP2 POP POP PUSH2 0xD9D JUMP JUMPDEST POP PUSH8 0xDE0B6B3A7640000 DUP4 DUP14 DUP4 DUP2 MLOAD DUP2 LT PUSH2 0xDF7 JUMPI PUSH2 0xDF6 PUSH2 0x2ADD JUMP JUMPDEST JUMPDEST PUSH1 0x20 MUL PUSH1 0x20 ADD ADD MLOAD DUP2 MLOAD DUP2 LT PUSH2 0xE10 JUMPI PUSH2 0xE0F PUSH2 0x2ADD JUMP JUMPDEST JUMPDEST PUSH1 0x20 MUL PUSH1 0x20 ADD ADD DUP2 DUP2 MSTORE POP POP PUSH1 0x0 JUMPDEST DUP4 MLOAD DUP2 LT ISZERO PUSH2 0xED0 JUMPI PUSH2 0xEB0 DUP4 DUP10 DUP2 MLOAD DUP2 LT PUSH2 0xE3E JUMPI PUSH2 0xE3D PUSH2 0x2ADD JUMP JUMPDEST JUMPDEST PUSH1 0x20 MUL PUSH1 0x20 ADD ADD MLOAD DUP6 DUP4 DUP2 MLOAD DUP2 LT PUSH2 0xE59 JUMPI PUSH2 0xE58 PUSH2 0x2ADD JUMP JUMPDEST JUMPDEST PUSH1 0x20 MUL PUSH1 0x20 ADD ADD MLOAD PUSH2 0xE6B SWAP2 SWAP1 PUSH2 0x2BB7 JUMP JUMPDEST DUP5 DUP11 DUP2 MLOAD DUP2 LT PUSH2 0xE7E JUMPI PUSH2 0xE7D PUSH2 0x2ADD JUMP JUMPDEST JUMPDEST PUSH1 0x20 MUL PUSH1 0x20 ADD ADD MLOAD DUP7 DUP5 DUP2 MLOAD DUP2 LT PUSH2 0xE99 JUMPI PUSH2 0xE98 PUSH2 0x2ADD JUMP JUMPDEST JUMPDEST PUSH1 0x20 MUL PUSH1 0x20 ADD ADD MLOAD PUSH2 0xEAB SWAP2 SWAP1 PUSH2 0x2BB7 JUMP JUMPDEST PUSH2 0xF40 JUMP JUMPDEST DUP8 PUSH2 0xEBB SWAP2 SWAP1 PUSH2 0x2C4B JUMP JUMPDEST SWAP7 POP DUP1 DUP1 PUSH2 0xEC8 SWAP1 PUSH2 0x2B3B JUMP JUMPDEST SWAP2 POP POP PUSH2 0xE1F JUMP JUMPDEST POP PUSH2 0xEDC DUP15 DUP5 DUP8 PUSH2 0x83B JUMP JUMPDEST SWAP4 POP PUSH2 0xF05 DUP15 DUP15 DUP4 DUP2 MLOAD DUP2 LT PUSH2 0xEF5 JUMPI PUSH2 0xEF4 PUSH2 0x2ADD JUMP JUMPDEST JUMPDEST PUSH1 0x20 MUL PUSH1 0x20 ADD ADD MLOAD DUP14 DUP9 DUP9 PUSH2 0x1D3 JUMP JUMPDEST POP DUP1 DUP1 PUSH2 0xF11 SWAP1 PUSH2 0x2B3B JUMP JUMPDEST SWAP2 POP POP PUSH2 0xD65 JUMP JUMPDEST POP POP POP POP POP POP DUP1 DUP1 PUSH2 0xF2A SWAP1 PUSH2 0x2B3B JUMP JUMPDEST SWAP2 POP POP PUSH2 0xD06 JUMP JUMPDEST POP DUP7 SWAP1 POP SWAP7 SWAP6 POP POP POP POP POP POP JUMP JUMPDEST PUSH1 0x0 PUSH32 0x8000000000000000000000000000000000000000000000000000000000000000 DUP4 EQ DUP1 PUSH2 0xF8F JUMPI POP PUSH32 0x8000000000000000000000000000000000000000000000000000000000000000 DUP3 EQ JUMPDEST ISZERO PUSH2 0xFC6 JUMPI PUSH1 0x40 MLOAD PUSH32 0x3406846C00000000000000000000000000000000000000000000000000000000 DUP2 MSTORE PUSH1 0x4 ADD PUSH1 0x40 MLOAD DUP1 SWAP2 SUB SWAP1 REVERT JUMPDEST PUSH1 0x0 DUP1 PUSH1 0x0 DUP6 SLT PUSH2 0xFD7 JUMPI DUP5 PUSH2 0xFDC JUMP JUMPDEST DUP5 PUSH1 0x0 SUB JUMPDEST SWAP2 POP PUSH1 0x0 DUP5 SLT PUSH2 0xFEC JUMPI DUP4 PUSH2 0xFF1 JUMP JUMPDEST DUP4 PUSH1 0x0 SUB JUMPDEST SWAP1 POP PUSH1 0x0 PUSH2 0xFFF DUP4 DUP4 PUSH2 0x12CC JUMP JUMPDEST SWAP1 POP PUSH32 0x7FFFFFFFFFFFFFFFFFFFFFFFFFFFFFFFFFFFFFFFFFFFFFFFFFFFFFFFFFFFFFFF DUP2 GT ISZERO PUSH2 0x1066 JUMPI DUP1 PUSH1 0x40 MLOAD PUSH32 0xBF79E8D900000000000000000000000000000000000000000000000000000000 DUP2 MSTORE PUSH1 0x4 ADD PUSH2 0x105D SWAP2 SWAP1 PUSH2 0x2D5F JUMP JUMPDEST PUSH1 0x40 MLOAD DUP1 SWAP2 SUB SWAP1 REVERT JUMPDEST PUSH1 0x0 DUP1 PUSH1 0x1 PUSH1 0x0 SUB DUP9 SGT SWAP2 POP PUSH1 0x1 PUSH1 0x0 SUB DUP8 SGT SWAP1 POP PUSH1 0x1 DUP2 DUP4 XOR EQ PUSH2 0x108B JUMPI DUP3 PUSH2 0x1090 JUMP JUMPDEST DUP3 PUSH1 0x0 SUB JUMPDEST SWAP6 POP POP POP POP POP POP SWAP3 SWAP2 POP POP JUMP JUMPDEST PUSH1 0x0 PUSH32 0xFFFFFFFFFFFFFFFFFFFFFFFFFFFFFFFFFFFFFFFFFFFFFFFDC0D0570925A462CE DUP3 SLT ISZERO PUSH2 0x10D0 JUMPI PUSH1 0x0 SWAP1 POP PUSH2 0x115B JUMP JUMPDEST PUSH9 0x736EA4425C11AC631 DUP3 SLT PUSH2 0x111D JUMPI DUP2 PUSH1 0x40 MLOAD PUSH32 0x99BB754100000000000000000000000000000000000000000000000000000000 DUP2 MSTORE PUSH1 0x4 ADD PUSH2 0x1114 SWAP2 SWAP1 PUSH2 0x25F4 JUMP JUMPDEST PUSH1 0x40 MLOAD DUP1 SWAP2 SUB SWAP1 REVERT JUMPDEST PUSH1 0x0 PUSH8 0x14057B7EF767814F DUP4 MUL SWAP1 POP PUSH2 0x1157 PUSH8 0xDE0B6B3A7640000 PUSH8 0x6F05B59D3B20000 DUP4 ADD DUP2 PUSH2 0x1151 JUMPI PUSH2 0x1150 PUSH2 0x2D7A JUMP JUMPDEST JUMPDEST SDIV PUSH2 0x13C9 JUMP JUMPDEST SWAP2 POP POP JUMPDEST SWAP2 SWAP1 POP JUMP JUMPDEST PUSH1 0x0 PUSH32 0x8000000000000000000000000000000000000000000000000000000000000000 DUP4 EQ DUP1 PUSH2 0x11AF JUMPI POP PUSH32 0x8000000000000000000000000000000000000000000000000000000000000000 DUP3 EQ JUMPDEST ISZERO PUSH2 0x11E6 JUMPI PUSH1 0x40 MLOAD PUSH32 0xB3C754A300000000000000000000000000000000000000000000000000000000 DUP2 MSTORE PUSH1 0x4 ADD PUSH1 0x40 MLOAD DUP1 SWAP2 SUB SWAP1 REVERT JUMPDEST PUSH1 0x0 DUP1 PUSH1 0x0 DUP6 SLT PUSH2 0x11F7 JUMPI DUP5 PUSH2 0x11FC JUMP JUMPDEST DUP5 PUSH1 0x0 SUB JUMPDEST SWAP2 POP PUSH1 0x0 DUP5 SLT PUSH2 0x120C JUMPI DUP4 PUSH2 0x1211 JUMP JUMPDEST DUP4 PUSH1 0x0 SUB JUMPDEST SWAP1 POP PUSH1 0x0 PUSH2 0x1228 DUP4 PUSH8 0xDE0B6B3A7640000 DUP5 PUSH2 0x14B7 JUMP JUMPDEST SWAP1 POP PUSH32 0x7FFFFFFFFFFFFFFFFFFFFFFFFFFFFFFFFFFFFFFFFFFFFFFFFFFFFFFFFFFFFFFF DUP2 GT ISZERO PUSH2 0x128F JUMPI DUP1 PUSH1 0x40 MLOAD PUSH32 0x7CB4BEF500000000000000000000000000000000000000000000000000000000 DUP2 MSTORE PUSH1 0x4 ADD PUSH2 0x1286 SWAP2 SWAP1 PUSH2 0x2D5F JUMP JUMPDEST PUSH1 0x40 MLOAD DUP1 SWAP2 SUB SWAP1 REVERT JUMPDEST PUSH1 0x0 DUP1 PUSH1 0x1 PUSH1 0x0 SUB DUP9 SGT SWAP2 POP PUSH1 0x1 PUSH1 0x0 SUB DUP8 SGT SWAP1 POP PUSH1 0x1 DUP2 DUP4 XOR EQ PUSH2 0x12B4 JUMPI DUP3 PUSH2 0x12BF JUMP JUMPDEST DUP3 PUSH2 0x12BE SWAP1 PUSH2 0x2D08 JUMP JUMPDEST JUMPDEST SWAP6 POP POP POP POP POP POP SWAP3 SWAP2 POP POP JUMP JUMPDEST PUSH1 0x0 DUP1 PUSH1 0x0 DUP1 NOT DUP5 DUP7 MULMOD DUP5 DUP7 MUL SWAP3 POP DUP3 DUP2 LT DUP4 DUP3 SUB SUB SWAP2 POP POP PUSH8 0xDE0B6B3A7640000 DUP2 LT PUSH2 0x1331 JUMPI DUP1 PUSH1 0x40 MLOAD PUSH32 0xD31B340200000000000000000000000000000000000000000000000000000000 DUP2 MSTORE PUSH1 0x4 ADD PUSH2 0x1328 SWAP2 SWAP1 PUSH2 0x2D5F JUMP JUMPDEST PUSH1 0x40 MLOAD DUP1 SWAP2 SUB SWAP1 REVERT JUMPDEST PUSH1 0x0 DUP1 PUSH8 0xDE0B6B3A7640000 DUP7 DUP9 MULMOD SWAP2 POP PUSH8 0x6F05B59D3B1FFFF DUP3 GT SWAP1 POP PUSH1 0x0 DUP4 SUB PUSH2 0x137D JUMPI DUP1 PUSH8 0xDE0B6B3A7640000 DUP6 DUP2 PUSH2 0x1370 JUMPI PUSH2 0x136F PUSH2 0x2D7A JUMP JUMPDEST JUMPDEST DIV ADD SWAP5 POP POP POP POP POP PUSH2 0x13C3 JUMP JUMPDEST DUP1 PUSH32 0xACCB18165BD6FE31AE1CF318DC5B51EEE0E1BA569B88CD74C1773B91FAC10669 PUSH1 0x1 PUSH3 0x40000 DUP1 PUSH1 0x0 SUB DIV ADD DUP7 DUP6 GT DUP7 SUB MUL PUSH3 0x40000 DUP6 DUP9 SUB DIV OR MUL ADD SWAP5 POP POP POP POP POP JUMPDEST SWAP3 SWAP2 POP POP JUMP JUMPDEST PUSH1 0x0 DUP1 DUP3 SLT ISZERO PUSH2 0x1436 JUMPI PUSH32 0xFFFFFFFFFFFFFFFFFFFFFFFFFFFFFFFFFFFFFFFFFFFFFFFCC22E87F6EB468EEB DUP3 SLT ISZERO PUSH2 0x1404 JUMPI PUSH1 0x0 SWAP1 POP PUSH2 0x14B2 JUMP JUMPDEST PUSH2 0x1410 DUP3 PUSH1 0x0 SUB PUSH2 0x13C9 JUMP JUMPDEST PUSH15 0xC097CE7BC90715B34B9F1000000000 DUP2 PUSH2 0x142E JUMPI PUSH2 0x142D PUSH2 0x2D7A JUMP JUMPDEST JUMPDEST SDIV SWAP1 POP PUSH2 0x14B1 JUMP JUMPDEST PUSH9 0xA688906BD8B000000 DUP3 SLT PUSH2 0x1483 JUMPI DUP2 PUSH1 0x40 MLOAD PUSH32 0xE69458F900000000000000000000000000000000000000000000000000000000 DUP2 MSTORE PUSH1 0x4 ADD PUSH2 0x147A SWAP2 SWAP1 PUSH2 0x25F4 JUMP JUMPDEST PUSH1 0x40 MLOAD DUP1 SWAP2 SUB SWAP1 REVERT JUMPDEST PUSH1 0x0 PUSH8 0xDE0B6B3A7640000 PUSH1 0x40 DUP5 SWAP1 SHL DUP2 PUSH2 0x14A1 JUMPI PUSH2 0x14A0 PUSH2 0x2D7A JUMP JUMPDEST JUMPDEST DIV SWAP1 POP PUSH2 0x14AD DUP2 PUSH2 0x15CC JUMP JUMPDEST SWAP2 POP POP JUMPDEST JUMPDEST SWAP2 SWAP1 POP JUMP JUMPDEST PUSH1 0x0 DUP1 PUSH1 0x0 DUP1 NOT DUP6 DUP8 MULMOD DUP6 DUP8 MUL SWAP3 POP DUP3 DUP2 LT DUP4 DUP3 SUB SUB SWAP2 POP POP PUSH1 0x0 DUP2 SUB PUSH2 0x14F2 JUMPI DUP4 DUP3 DUP2 PUSH2 0x14E8 JUMPI PUSH2 0x14E7 PUSH2 0x2D7A JUMP JUMPDEST JUMPDEST DIV SWAP3 POP POP POP PUSH2 0x15C5 JUMP JUMPDEST DUP4 DUP2 LT PUSH2 0x1538 JUMPI DUP1 DUP5 PUSH1 0x40 MLOAD PUSH32 0x773CC18C00000000000000000000000000000000000000000000000000000000 DUP2 MSTORE PUSH1 0x4 ADD PUSH2 0x152F SWAP3 SWAP2 SWAP1 PUSH2 0x2DA9 JUMP JUMPDEST PUSH1 0x40 MLOAD DUP1 SWAP2 SUB SWAP1 REVERT JUMPDEST PUSH1 0x0 DUP5 DUP7 DUP9 MULMOD SWAP1 POP DUP3 DUP2 GT DUP3 SUB SWAP2 POP DUP1 DUP4 SUB SWAP3 POP PUSH1 0x0 PUSH1 0x1 DUP7 NOT ADD DUP7 AND SWAP1 POP DUP1 DUP7 DIV SWAP6 POP DUP1 DUP5 DIV SWAP4 POP PUSH1 0x1 DUP2 DUP3 PUSH1 0x0 SUB DIV ADD SWAP1 POP DUP1 DUP4 MUL DUP5 OR SWAP4 POP PUSH1 0x0 PUSH1 0x2 DUP8 PUSH1 0x3 MUL XOR SWAP1 POP DUP1 DUP8 MUL PUSH1 0x2 SUB DUP2 MUL SWAP1 POP DUP1 DUP8 MUL PUSH1 0x2 SUB DUP2 MUL SWAP1 POP DUP1 DUP8 MUL PUSH1 0x2 SUB DUP2 MUL SWAP1 POP DUP1 DUP8 MUL PUSH1 0x2 SUB DUP2 MUL SWAP1 POP DUP1 DUP8 MUL PUSH1 0x2 SUB DUP2 MUL SWAP1 POP DUP1 DUP8 MUL PUSH1 0x2 SUB DUP2 MUL SWAP1 POP DUP1 DUP6 MUL SWAP6 POP POP POP POP POP POP JUMPDEST SWAP4 SWAP3 POP POP POP JUMP JUMPDEST PUSH1 0x0 PUSH24 0x800000000000000000000000000000000000000000000000 SWAP1 POP PUSH1 0x0 PUSH8 0x8000000000000000 DUP4 AND GT ISZERO PUSH2 0x160F JUMPI PUSH1 0x40 PUSH9 0x16A09E667F3BCC909 DUP3 MUL SWAP1 SHR SWAP1 POP JUMPDEST PUSH1 0x0 PUSH8 0x4000000000000000 DUP4 AND GT ISZERO PUSH2 0x1635 JUMPI PUSH1 0x40 PUSH9 0x1306FE0A31B7152DF DUP3 MUL SWAP1 SHR SWAP1 POP JUMPDEST PUSH1 0x0 PUSH8 0x2000000000000000 DUP4 AND GT ISZERO PUSH2 0x165B JUMPI PUSH1 0x40 PUSH9 0x1172B83C7D517ADCE DUP3 MUL SWAP1 SHR SWAP1 POP JUMPDEST PUSH1 0x0 PUSH8 0x1000000000000000 DUP4 AND GT ISZERO PUSH2 0x1681 JUMPI PUSH1 0x40 PUSH9 0x10B5586CF9890F62A DUP3 MUL SWAP1 SHR SWAP1 POP JUMPDEST PUSH1 0x0 PUSH8 0x800000000000000 DUP4 AND GT ISZERO PUSH2 0x16A7 JUMPI PUSH1 0x40 PUSH9 0x1059B0D31585743AE DUP3 MUL SWAP1 SHR SWAP1 POP JUMPDEST PUSH1 0x0 PUSH8 0x400000000000000 DUP4 AND GT ISZERO PUSH2 0x16CD JUMPI PUSH1 0x40 PUSH9 0x102C9A3E778060EE7 DUP3 MUL SWAP1 SHR SWAP1 POP JUMPDEST PUSH1 0x0 PUSH8 0x200000000000000 DUP4 AND GT ISZERO PUSH2 0x16F3 JUMPI PUSH1 0x40 PUSH9 0x10163DA9FB33356D8 DUP3 MUL SWAP1 SHR SWAP1 POP JUMPDEST PUSH1 0x0 PUSH8 0x100000000000000 DUP4 AND GT ISZERO PUSH2 0x1719 JUMPI PUSH1 0x40 PUSH9 0x100B1AFA5ABCBED61 DUP3 MUL SWAP1 SHR SWAP1 POP JUMPDEST PUSH1 0x0 PUSH7 0x80000000000000 DUP4 AND GT ISZERO PUSH2 0x173E JUMPI PUSH1 0x40 PUSH9 0x10058C86DA1C09EA2 DUP3 MUL SWAP1 SHR SWAP1 POP JUMPDEST PUSH1 0x0 PUSH7 0x40000000000000 DUP4 AND GT ISZERO PUSH2 0x1763 JUMPI PUSH1 0x40 PUSH9 0x1002C605E2E8CEC50 DUP3 MUL SWAP1 SHR SWAP1 POP JUMPDEST PUSH1 0x0 PUSH7 0x20000000000000 DUP4 AND GT ISZERO PUSH2 0x1788 JUMPI PUSH1 0x40 PUSH9 0x100162F3904051FA1 DUP3 MUL SWAP1 SHR SWAP1 POP JUMPDEST PUSH1 0x0 PUSH7 0x10000000000000 DUP4 AND GT ISZERO PUSH2 0x17AD JUMPI PUSH1 0x40 PUSH9 0x1000B175EFFDC76BA DUP3 MUL SWAP1 SHR SWAP1 POP JUMPDEST PUSH1 0x0 PUSH7 0x8000000000000 DUP4 AND GT ISZERO PUSH2 0x17D2 JUMPI PUSH1 0x40 PUSH9 0x100058BA01FB9F96D DUP3 MUL SWAP1 SHR SWAP1 POP JUMPDEST PUSH1 0x0 PUSH7 0x4000000000000 DUP4 AND GT ISZERO PUSH2 0x17F7 JUMPI PUSH1 0x40 PUSH9 0x10002C5CC37DA9492 DUP3 MUL SWAP1 SHR SWAP1 POP JUMPDEST PUSH1 0x0 PUSH7 0x2000000000000 DUP4 AND GT ISZERO PUSH2 0x181C JUMPI PUSH1 0x40 PUSH9 0x1000162E525EE0547 DUP3 MUL SWAP1 SHR SWAP1 POP JUMPDEST PUSH1 0x0 PUSH7 0x1000000000000 DUP4 AND GT ISZERO PUSH2 0x1841 JUMPI PUSH1 0x40 PUSH9 0x10000B17255775C04 DUP3 MUL SWAP1 SHR SWAP1 POP JUMPDEST PUSH1 0x0 PUSH6 0x800000000000 DUP4 AND GT ISZERO PUSH2 0x1865 JUMPI PUSH1 0x40 PUSH9 0x1000058B91B5BC9AE DUP3 MUL SWAP1 SHR SWAP1 POP JUMPDEST PUSH1 0x0 PUSH6 0x400000000000 DUP4 AND GT ISZERO PUSH2 0x1889 JUMPI PUSH1 0x40 PUSH9 0x100002C5C89D5EC6D DUP3 MUL SWAP1 SHR SWAP1 POP JUMPDEST PUSH1 0x0 PUSH6 0x200000000000 DUP4 AND GT ISZERO PUSH2 0x18AD JUMPI PUSH1 0x40 PUSH9 0x10000162E43F4F831 DUP3 MUL SWAP1 SHR SWAP1 POP JUMPDEST PUSH1 0x0 PUSH6 0x100000000000 DUP4 AND GT ISZERO PUSH2 0x18D1 JUMPI PUSH1 0x40 PUSH9 0x100000B1721BCFC9A DUP3 MUL SWAP1 SHR SWAP1 POP JUMPDEST PUSH1 0x0 PUSH6 0x80000000000 DUP4 AND GT ISZERO PUSH2 0x18F5 JUMPI PUSH1 0x40 PUSH9 0x10000058B90CF1E6E DUP3 MUL SWAP1 SHR SWAP1 POP JUMPDEST PUSH1 0x0 PUSH6 0x40000000000 DUP4 AND GT ISZERO PUSH2 0x1919 JUMPI PUSH1 0x40 PUSH9 0x1000002C5C863B73F DUP3 MUL SWAP1 SHR SWAP1 POP JUMPDEST PUSH1 0x0 PUSH6 0x20000000000 DUP4 AND GT ISZERO PUSH2 0x193D JUMPI PUSH1 0x40 PUSH9 0x100000162E430E5A2 DUP3 MUL SWAP1 SHR SWAP1 POP JUMPDEST PUSH1 0x0 PUSH6 0x10000000000 DUP4 AND GT ISZERO PUSH2 0x1961 JUMPI PUSH1 0x40 PUSH9 0x1000000B172183551 DUP3 MUL SWAP1 SHR SWAP1 POP JUMPDEST PUSH1 0x0 PUSH5 0x8000000000 DUP4 AND GT ISZERO PUSH2 0x1984 JUMPI PUSH1 0x40 PUSH9 0x100000058B90C0B49 DUP3 MUL SWAP1 SHR SWAP1 POP JUMPDEST PUSH1 0x0 PUSH5 0x4000000000 DUP4 AND GT ISZERO PUSH2 0x19A7 JUMPI PUSH1 0x40 PUSH9 0x10000002C5C8601CC DUP3 MUL SWAP1 SHR SWAP1 POP JUMPDEST PUSH1 0x0 PUSH5 0x2000000000 DUP4 AND GT ISZERO PUSH2 0x19CA JUMPI PUSH1 0x40 PUSH9 0x1000000162E42FFF0 DUP3 MUL SWAP1 SHR SWAP1 POP JUMPDEST PUSH1 0x0 PUSH5 0x1000000000 DUP4 AND GT ISZERO PUSH2 0x19ED JUMPI PUSH1 0x40 PUSH9 0x10000000B17217FBB DUP3 MUL SWAP1 SHR SWAP1 POP JUMPDEST PUSH1 0x0 PUSH5 0x800000000 DUP4 AND GT ISZERO PUSH2 0x1A10 JUMPI PUSH1 0x40 PUSH9 0x1000000058B90BFCE DUP3 MUL SWAP1 SHR SWAP1 POP JUMPDEST PUSH1 0x0 PUSH5 0x400000000 DUP4 AND GT ISZERO PUSH2 0x1A33 JUMPI PUSH1 0x40 PUSH9 0x100000002C5C85FE3 DUP3 MUL SWAP1 SHR SWAP1 POP JUMPDEST PUSH1 0x0 PUSH5 0x200000000 DUP4 AND GT ISZERO PUSH2 0x1A56 JUMPI PUSH1 0x40 PUSH9 0x10000000162E42FF1 DUP3 MUL SWAP1 SHR SWAP1 POP JUMPDEST PUSH1 0x0 PUSH5 0x100000000 DUP4 AND GT ISZERO PUSH2 0x1A79 JUMPI PUSH1 0x40 PUSH9 0x100000000B17217F8 DUP3 MUL SWAP1 SHR SWAP1 POP JUMPDEST PUSH1 0x0 PUSH4 0x80000000 DUP4 AND GT ISZERO PUSH2 0x1A9B JUMPI PUSH1 0x40 PUSH9 0x10000000058B90BFC DUP3 MUL SWAP1 SHR SWAP1 POP JUMPDEST PUSH1 0x0 PUSH4 0x40000000 DUP4 AND GT ISZERO PUSH2 0x1ABD JUMPI PUSH1 0x40 PUSH9 0x1000000002C5C85FE DUP3 MUL SWAP1 SHR SWAP1 POP JUMPDEST PUSH1 0x0 PUSH4 0x20000000 DUP4 AND GT ISZERO PUSH2 0x1ADF JUMPI PUSH1 0x40 PUSH9 0x100000000162E42FF DUP3 MUL SWAP1 SHR SWAP1 POP JUMPDEST PUSH1 0x0 PUSH4 0x10000000 DUP4 AND GT ISZERO PUSH2 0x1B01 JUMPI PUSH1 0x40 PUSH9 0x1000000000B17217F DUP3 MUL SWAP1 SHR SWAP1 POP JUMPDEST PUSH1 0x0 PUSH4 0x8000000 DUP4 AND GT ISZERO PUSH2 0x1B23 JUMPI PUSH1 0x40 PUSH9 0x100000000058B90C0 DUP3 MUL SWAP1 SHR SWAP1 POP JUMPDEST PUSH1 0x0 PUSH4 0x4000000 DUP4 AND GT ISZERO PUSH2 0x1B45 JUMPI PUSH1 0x40 PUSH9 0x10000000002C5C860 DUP3 MUL SWAP1 SHR SWAP1 POP JUMPDEST PUSH1 0x0 PUSH4 0x2000000 DUP4 AND GT ISZERO PUSH2 0x1B67 JUMPI PUSH1 0x40 PUSH9 0x1000000000162E430 DUP3 MUL SWAP1 SHR SWAP1 POP JUMPDEST PUSH1 0x0 PUSH4 0x1000000 DUP4 AND GT ISZERO PUSH2 0x1B89 JUMPI PUSH1 0x40 PUSH9 0x10000000000B17218 DUP3 MUL SWAP1 SHR SWAP1 POP JUMPDEST PUSH1 0x0 PUSH3 0x800000 DUP4 AND GT ISZERO PUSH2 0x1BAA JUMPI PUSH1 0x40 PUSH9 0x1000000000058B90C DUP3 MUL SWAP1 SHR SWAP1 POP JUMPDEST PUSH1 0x0 PUSH3 0x400000 DUP4 AND GT ISZERO PUSH2 0x1BCB JUMPI PUSH1 0x40 PUSH9 0x100000000002C5C86 DUP3 MUL SWAP1 SHR SWAP1 POP JUMPDEST PUSH1 0x0 PUSH3 0x200000 DUP4 AND GT ISZERO PUSH2 0x1BEC JUMPI PUSH1 0x40 PUSH9 0x10000000000162E43 DUP3 MUL SWAP1 SHR SWAP1 POP JUMPDEST PUSH1 0x0 PUSH3 0x100000 DUP4 AND GT ISZERO PUSH2 0x1C0D JUMPI PUSH1 0x40 PUSH9 0x100000000000B1721 DUP3 MUL SWAP1 SHR SWAP1 POP JUMPDEST PUSH1 0x0 PUSH3 0x80000 DUP4 AND GT ISZERO PUSH2 0x1C2E JUMPI PUSH1 0x40 PUSH9 0x10000000000058B91 DUP3 MUL SWAP1 SHR SWAP1 POP JUMPDEST PUSH1 0x0 PUSH3 0x40000 DUP4 AND GT ISZERO PUSH2 0x1C4F JUMPI PUSH1 0x40 PUSH9 0x1000000000002C5C8 DUP3 MUL SWAP1 SHR SWAP1 POP JUMPDEST PUSH1 0x0 PUSH3 0x20000 DUP4 AND GT ISZERO PUSH2 0x1C70 JUMPI PUSH1 0x40 PUSH9 0x100000000000162E4 DUP3 MUL SWAP1 SHR SWAP1 POP JUMPDEST PUSH1 0x0 PUSH3 0x10000 DUP4 AND GT ISZERO PUSH2 0x1C91 JUMPI PUSH1 0x40 PUSH9 0x1000000000000B172 DUP3 MUL SWAP1 SHR SWAP1 POP JUMPDEST PUSH1 0x0 PUSH2 0x8000 DUP4 AND GT ISZERO PUSH2 0x1CB1 JUMPI PUSH1 0x40 PUSH9 0x100000000000058B9 DUP3 MUL SWAP1 SHR SWAP1 POP JUMPDEST PUSH1 0x0 PUSH2 0x4000 DUP4 AND GT ISZERO PUSH2 0x1CD1 JUMPI PUSH1 0x40 PUSH9 0x10000000000002C5D DUP3 MUL SWAP1 SHR SWAP1 POP JUMPDEST PUSH1 0x0 PUSH2 0x2000 DUP4 AND GT ISZERO PUSH2 0x1CF1 JUMPI PUSH1 0x40 PUSH9 0x1000000000000162E DUP3 MUL SWAP1 SHR SWAP1 POP JUMPDEST PUSH1 0x0 PUSH2 0x1000 DUP4 AND GT ISZERO PUSH2 0x1D11 JUMPI PUSH1 0x40 PUSH9 0x10000000000000B17 DUP3 MUL SWAP1 SHR SWAP1 POP JUMPDEST PUSH1 0x0 PUSH2 0x800 DUP4 AND GT ISZERO PUSH2 0x1D31 JUMPI PUSH1 0x40 PUSH9 0x1000000000000058C DUP3 MUL SWAP1 SHR SWAP1 POP JUMPDEST PUSH1 0x0 PUSH2 0x400 DUP4 AND GT ISZERO PUSH2 0x1D51 JUMPI PUSH1 0x40 PUSH9 0x100000000000002C6 DUP3 MUL SWAP1 SHR SWAP1 POP JUMPDEST PUSH1 0x0 PUSH2 0x200 DUP4 AND GT ISZERO PUSH2 0x1D71 JUMPI PUSH1 0x40 PUSH9 0x10000000000000163 DUP3 MUL SWAP1 SHR SWAP1 POP JUMPDEST PUSH1 0x0 PUSH2 0x100 DUP4 AND GT ISZERO PUSH2 0x1D91 JUMPI PUSH1 0x40 PUSH9 0x100000000000000B1 DUP3 MUL SWAP1 SHR SWAP1 POP JUMPDEST PUSH1 0x0 PUSH1 0x80 DUP4 AND GT ISZERO PUSH2 0x1DB0 JUMPI PUSH1 0x40 PUSH9 0x10000000000000059 DUP3 MUL SWAP1 SHR SWAP1 POP JUMPDEST PUSH1 0x0 PUSH1 0x40 DUP4 AND GT ISZERO PUSH2 0x1DCF JUMPI PUSH1 0x40 PUSH9 0x1000000000000002C DUP3 MUL SWAP1 SHR SWAP1 POP JUMPDEST PUSH1 0x0 PUSH1 0x20 DUP4 AND GT ISZERO PUSH2 0x1DEE JUMPI PUSH1 0x40 PUSH9 0x10000000000000016 DUP3 MUL SWAP1 SHR SWAP1 POP JUMPDEST PUSH1 0x0 PUSH1 0x10 DUP4 AND GT ISZERO PUSH2 0x1E0D JUMPI PUSH1 0x40 PUSH9 0x1000000000000000B DUP3 MUL SWAP1 SHR SWAP1 POP JUMPDEST PUSH1 0x0 PUSH1 0x8 DUP4 AND GT ISZERO PUSH2 0x1E2C JUMPI PUSH1 0x40 PUSH9 0x10000000000000006 DUP3 MUL SWAP1 SHR SWAP1 POP JUMPDEST PUSH1 0x0 PUSH1 0x4 DUP4 AND GT ISZERO PUSH2 0x1E4B JUMPI PUSH1 0x40 PUSH9 0x10000000000000003 DUP3 MUL SWAP1 SHR SWAP1 POP JUMPDEST PUSH1 0x0 PUSH1 0x2 DUP4 AND GT ISZERO PUSH2 0x1E6A JUMPI PUSH1 0x40 PUSH9 0x10000000000000001 DUP3 MUL SWAP1 SHR SWAP1 POP JUMPDEST PUSH1 0x0 PUSH1 0x1 DUP4 AND GT ISZERO PUSH2 0x1E89 JUMPI PUSH1 0x40 PUSH9 0x10000000000000001 DUP3 MUL SWAP1 SHR SWAP1 POP JUMPDEST PUSH8 0xDE0B6B3A7640000 DUP2 MUL SWAP1 POP PUSH1 0x40 DUP3 SWAP1 SHR PUSH1 0xBF SUB DUP2 SWAP1 SHR SWAP1 POP SWAP2 SWAP1 POP JUMP JUMPDEST PUSH1 0x0 PUSH1 0x40 MLOAD SWAP1 POP SWAP1 JUMP JUMPDEST PUSH1 0x0 DUP1 REVERT JUMPDEST PUSH1 0x0 DUP1 REVERT JUMPDEST PUSH1 0x0 DUP1 REVERT JUMPDEST PUSH1 0x0 PUSH1 0x1F NOT PUSH1 0x1F DUP4 ADD AND SWAP1 POP SWAP2 SWAP1 POP JUMP JUMPDEST PUSH32 0x4E487B7100000000000000000000000000000000000000000000000000000000 PUSH1 0x0 MSTORE PUSH1 0x41 PUSH1 0x4 MSTORE PUSH1 0x24 PUSH1 0x0 REVERT JUMPDEST PUSH2 0x1F0A DUP3 PUSH2 0x1EC1 JUMP JUMPDEST DUP2 ADD DUP2 DUP2 LT PUSH8 0xFFFFFFFFFFFFFFFF DUP3 GT OR ISZERO PUSH2 0x1F29 JUMPI PUSH2 0x1F28 PUSH2 0x1ED2 JUMP JUMPDEST JUMPDEST DUP1 PUSH1 0x40 MSTORE POP POP POP JUMP JUMPDEST PUSH1 0x0 PUSH2 0x1F3C PUSH2 0x1EA8 JUMP JUMPDEST SWAP1 POP PUSH2 0x1F48 DUP3 DUP3 PUSH2 0x1F01 JUMP JUMPDEST SWAP2 SWAP1 POP JUMP JUMPDEST PUSH1 0x0 PUSH8 0xFFFFFFFFFFFFFFFF DUP3 GT ISZERO PUSH2 0x1F68 JUMPI PUSH2 0x1F67 PUSH2 0x1ED2 JUMP JUMPDEST JUMPDEST PUSH1 0x20 DUP3 MUL SWAP1 POP PUSH1 0x20 DUP2 ADD SWAP1 POP SWAP2 SWAP1 POP JUMP JUMPDEST PUSH1 0x0 DUP1 REVERT JUMPDEST PUSH1 0x0 PUSH8 0xFFFFFFFFFFFFFFFF DUP3 GT ISZERO PUSH2 0x1F99 JUMPI PUSH2 0x1F98 PUSH2 0x1ED2 JUMP JUMPDEST JUMPDEST PUSH1 0x20 DUP3 MUL SWAP1 POP PUSH1 0x20 DUP2 ADD SWAP1 POP SWAP2 SWAP1 POP JUMP JUMPDEST PUSH1 0x0 PUSH8 0xFFFFFFFFFFFFFFFF DUP3 GT ISZERO PUSH2 0x1FC5 JUMPI PUSH2 0x1FC4 PUSH2 0x1ED2 JUMP JUMPDEST JUMPDEST PUSH1 0x20 DUP3 MUL SWAP1 POP PUSH1 0x20 DUP2 ADD SWAP1 POP SWAP2 SWAP1 POP JUMP JUMPDEST PUSH1 0x0 DUP2 SWAP1 POP SWAP2 SWAP1 POP JUMP JUMPDEST PUSH2 0x1FE9 DUP2 PUSH2 0x1FD6 JUMP JUMPDEST DUP2 EQ PUSH2 0x1FF4 JUMPI PUSH1 0x0 DUP1 REVERT JUMPDEST POP JUMP JUMPDEST PUSH1 0x0 DUP2 CALLDATALOAD SWAP1 POP PUSH2 0x2006 DUP2 PUSH2 0x1FE0 JUMP JUMPDEST SWAP3 SWAP2 POP POP JUMP JUMPDEST PUSH1 0x0 PUSH2 0x201F PUSH2 0x201A DUP5 PUSH2 0x1FAA JUMP JUMPDEST PUSH2 0x1F32 JUMP JUMPDEST SWAP1 POP DUP1 DUP4 DUP3 MSTORE PUSH1 0x20 DUP3 ADD SWAP1 POP PUSH1 0x20 DUP5 MUL DUP4 ADD DUP6 DUP2 GT ISZERO PUSH2 0x2042 JUMPI PUSH2 0x2041 PUSH2 0x1F79 JUMP JUMPDEST JUMPDEST DUP4 JUMPDEST DUP2 DUP2 LT ISZERO PUSH2 0x206B JUMPI DUP1 PUSH2 0x2057 DUP9 DUP3 PUSH2 0x1FF7 JUMP JUMPDEST DUP5 MSTORE PUSH1 0x20 DUP5 ADD SWAP4 POP POP PUSH1 0x20 DUP2 ADD SWAP1 POP PUSH2 0x2044 JUMP JUMPDEST POP POP POP SWAP4 SWAP3 POP POP POP JUMP JUMPDEST PUSH1 0x0 DUP3 PUSH1 0x1F DUP4 ADD SLT PUSH2 0x208A JUMPI PUSH2 0x2089 PUSH2 0x1EBC JUMP JUMPDEST JUMPDEST DUP2 CALLDATALOAD PUSH2 0x209A DUP5 DUP3 PUSH1 0x20 DUP7 ADD PUSH2 0x200C JUMP JUMPDEST SWAP2 POP POP SWAP3 SWAP2 POP POP JUMP JUMPDEST PUSH1 0x0 PUSH2 0x20B6 PUSH2 0x20B1 DUP5 PUSH2 0x1F7E JUMP JUMPDEST PUSH2 0x1F32 JUMP JUMPDEST SWAP1 POP DUP1 DUP4 DUP3 MSTORE PUSH1 0x20 DUP3 ADD SWAP1 POP PUSH1 0x20 DUP5 MUL DUP4 ADD DUP6 DUP2 GT ISZERO PUSH2 0x20D9 JUMPI PUSH2 0x20D8 PUSH2 0x1F79 JUMP JUMPDEST JUMPDEST DUP4 JUMPDEST DUP2 DUP2 LT ISZERO PUSH2 0x2120 JUMPI DUP1 CALLDATALOAD PUSH8 0xFFFFFFFFFFFFFFFF DUP2 GT ISZERO PUSH2 0x20FE JUMPI PUSH2 0x20FD PUSH2 0x1EBC JUMP JUMPDEST JUMPDEST DUP1 DUP7 ADD PUSH2 0x210B DUP10 DUP3 PUSH2 0x2075 JUMP JUMPDEST DUP6 MSTORE PUSH1 0x20 DUP6 ADD SWAP5 POP POP POP PUSH1 0x20 DUP2 ADD SWAP1 POP PUSH2 0x20DB JUMP JUMPDEST POP POP POP SWAP4 SWAP3 POP POP POP JUMP JUMPDEST PUSH1 0x0 DUP3 PUSH1 0x1F DUP4 ADD SLT PUSH2 0x213F JUMPI PUSH2 0x213E PUSH2 0x1EBC JUMP JUMPDEST JUMPDEST DUP2 CALLDATALOAD PUSH2 0x214F DUP5 DUP3 PUSH1 0x20 DUP7 ADD PUSH2 0x20A3 JUMP JUMPDEST SWAP2 POP POP SWAP3 SWAP2 POP POP JUMP JUMPDEST PUSH1 0x0 PUSH2 0x216B PUSH2 0x2166 DUP5 PUSH2 0x1F4D JUMP JUMPDEST PUSH2 0x1F32 JUMP JUMPDEST SWAP1 POP DUP1 DUP4 DUP3 MSTORE PUSH1 0x20 DUP3 ADD SWAP1 POP PUSH1 0x20 DUP5 MUL DUP4 ADD DUP6 DUP2 GT ISZERO PUSH2 0x218E JUMPI PUSH2 0x218D PUSH2 0x1F79 JUMP JUMPDEST JUMPDEST DUP4 JUMPDEST DUP2 DUP2 LT ISZERO PUSH2 0x21D5 JUMPI DUP1 CALLDATALOAD PUSH8 0xFFFFFFFFFFFFFFFF DUP2 GT ISZERO PUSH2 0x21B3 JUMPI PUSH2 0x21B2 PUSH2 0x1EBC JUMP JUMPDEST JUMPDEST DUP1 DUP7 ADD PUSH2 0x21C0 DUP10 DUP3 PUSH2 0x212A JUMP JUMPDEST DUP6 MSTORE PUSH1 0x20 DUP6 ADD SWAP5 POP POP POP PUSH1 0x20 DUP2 ADD SWAP1 POP PUSH2 0x2190 JUMP JUMPDEST POP POP POP SWAP4 SWAP3 POP POP POP JUMP JUMPDEST PUSH1 0x0 DUP3 PUSH1 0x1F DUP4 ADD SLT PUSH2 0x21F4 JUMPI PUSH2 0x21F3 PUSH2 0x1EBC JUMP JUMPDEST JUMPDEST DUP2 CALLDATALOAD PUSH2 0x2204 DUP5 DUP3 PUSH1 0x20 DUP7 ADD PUSH2 0x2158 JUMP JUMPDEST SWAP2 POP POP SWAP3 SWAP2 POP POP JUMP JUMPDEST PUSH1 0x0 DUP1 PUSH1 0x0 DUP1 PUSH1 0x0 PUSH1 0xA0 DUP7 DUP9 SUB SLT ISZERO PUSH2 0x2229 JUMPI PUSH2 0x2228 PUSH2 0x1EB2 JUMP JUMPDEST JUMPDEST PUSH1 0x0 DUP7 ADD CALLDATALOAD PUSH8 0xFFFFFFFFFFFFFFFF DUP2 GT ISZERO PUSH2 0x2247 JUMPI PUSH2 0x2246 PUSH2 0x1EB7 JUMP JUMPDEST JUMPDEST PUSH2 0x2253 DUP9 DUP3 DUP10 ADD PUSH2 0x21DF JUMP JUMPDEST SWAP6 POP POP PUSH1 0x20 DUP7 ADD CALLDATALOAD PUSH8 0xFFFFFFFFFFFFFFFF DUP2 GT ISZERO PUSH2 0x2274 JUMPI PUSH2 0x2273 PUSH2 0x1EB7 JUMP JUMPDEST JUMPDEST PUSH2 0x2280 DUP9 DUP3 DUP10 ADD PUSH2 0x2075 JUMP JUMPDEST SWAP5 POP POP PUSH1 0x40 PUSH2 0x2291 DUP9 DUP3 DUP10 ADD PUSH2 0x1FF7 JUMP JUMPDEST SWAP4 POP POP PUSH1 0x60 DUP7 ADD CALLDATALOAD PUSH8 0xFFFFFFFFFFFFFFFF DUP2 GT ISZERO PUSH2 0x22B2 JUMPI PUSH2 0x22B1 PUSH2 0x1EB7 JUMP JUMPDEST JUMPDEST PUSH2 0x22BE DUP9 DUP3 DUP10 ADD PUSH2 0x212A JUMP JUMPDEST SWAP3 POP POP PUSH1 0x80 DUP7 ADD CALLDATALOAD PUSH8 0xFFFFFFFFFFFFFFFF DUP2 GT ISZERO PUSH2 0x22DF JUMPI PUSH2 0x22DE PUSH2 0x1EB7 JUMP JUMPDEST JUMPDEST PUSH2 0x22EB DUP9 DUP3 DUP10 ADD PUSH2 0x212A JUMP JUMPDEST SWAP2 POP POP SWAP3 SWAP6 POP SWAP3 SWAP6 SWAP1 SWAP4 POP JUMP JUMPDEST PUSH1 0x0 DUP2 MLOAD SWAP1 POP SWAP2 SWAP1 POP JUMP JUMPDEST PUSH1 0x0 DUP3 DUP3 MSTORE PUSH1 0x20 DUP3 ADD SWAP1 POP SWAP3 SWAP2 POP POP JUMP JUMPDEST PUSH1 0x0 DUP2 SWAP1 POP PUSH1 0x20 DUP3 ADD SWAP1 POP SWAP2 SWAP1 POP JUMP JUMPDEST PUSH2 0x232D DUP2 PUSH2 0x1FD6 JUMP JUMPDEST DUP3 MSTORE POP POP JUMP JUMPDEST PUSH1 0x0 PUSH2 0x233F DUP4 DUP4 PUSH2 0x2324 JUMP JUMPDEST PUSH1 0x20 DUP4 ADD SWAP1 POP SWAP3 SWAP2 POP POP JUMP JUMPDEST PUSH1 0x0 PUSH1 0x20 DUP3 ADD SWAP1 POP SWAP2 SWAP1 POP JUMP JUMPDEST PUSH1 0x0 PUSH2 0x2363 DUP3 PUSH2 0x22F8 JUMP JUMPDEST PUSH2 0x236D DUP2 DUP6 PUSH2 0x2303 JUMP JUMPDEST SWAP4 POP PUSH2 0x2378 DUP4 PUSH2 0x2314 JUMP JUMPDEST DUP1 PUSH1 0x0 JUMPDEST DUP4 DUP2 LT ISZERO PUSH2 0x23A9 JUMPI DUP2 MLOAD PUSH2 0x2390 DUP9 DUP3 PUSH2 0x2333 JUMP JUMPDEST SWAP8 POP PUSH2 0x239B DUP4 PUSH2 0x234B JUMP JUMPDEST SWAP3 POP POP PUSH1 0x1 DUP2 ADD SWAP1 POP PUSH2 0x237C JUMP JUMPDEST POP DUP6 SWAP4 POP POP POP POP SWAP3 SWAP2 POP POP JUMP JUMPDEST PUSH1 0x0 PUSH1 0x20 DUP3 ADD SWAP1 POP DUP2 DUP2 SUB PUSH1 0x0 DUP4 ADD MSTORE PUSH2 0x23D0 DUP2 DUP5 PUSH2 0x2358 JUMP JUMPDEST SWAP1 POP SWAP3 SWAP2 POP POP JUMP JUMPDEST PUSH1 0x0 DUP1 PUSH1 0x40 DUP4 DUP6 SUB SLT ISZERO PUSH2 0x23EF JUMPI PUSH2 0x23EE PUSH2 0x1EB2 JUMP JUMPDEST JUMPDEST PUSH1 0x0 DUP4 ADD CALLDATALOAD PUSH8 0xFFFFFFFFFFFFFFFF DUP2 GT ISZERO PUSH2 0x240D JUMPI PUSH2 0x240C PUSH2 0x1EB7 JUMP JUMPDEST JUMPDEST PUSH2 0x2419 DUP6 DUP3 DUP7 ADD PUSH2 0x21DF JUMP JUMPDEST SWAP3 POP POP PUSH1 0x20 DUP4 ADD CALLDATALOAD PUSH8 0xFFFFFFFFFFFFFFFF DUP2 GT ISZERO PUSH2 0x243A JUMPI PUSH2 0x2439 PUSH2 0x1EB7 JUMP JUMPDEST JUMPDEST PUSH2 0x2446 DUP6 DUP3 DUP7 ADD PUSH2 0x2075 JUMP JUMPDEST SWAP2 POP POP SWAP3 POP SWAP3 SWAP1 POP JUMP JUMPDEST PUSH1 0x0 DUP2 MLOAD SWAP1 POP SWAP2 SWAP1 POP JUMP JUMPDEST PUSH1 0x0 DUP3 DUP3 MSTORE PUSH1 0x20 DUP3 ADD SWAP1 POP SWAP3 SWAP2 POP POP JUMP JUMPDEST PUSH1 0x0 DUP2 SWAP1 POP PUSH1 0x20 DUP3 ADD SWAP1 POP SWAP2 SWAP1 POP JUMP JUMPDEST PUSH1 0x0 DUP3 DUP3 MSTORE PUSH1 0x20 DUP3 ADD SWAP1 POP SWAP3 SWAP2 POP POP JUMP JUMPDEST PUSH1 0x0 PUSH2 0x2498 DUP3 PUSH2 0x22F8 JUMP JUMPDEST PUSH2 0x24A2 DUP2 DUP6 PUSH2 0x247C JUMP JUMPDEST SWAP4 POP PUSH2 0x24AD DUP4 PUSH2 0x2314 JUMP JUMPDEST DUP1 PUSH1 0x0 JUMPDEST DUP4 DUP2 LT ISZERO PUSH2 0x24DE JUMPI DUP2 MLOAD PUSH2 0x24C5 DUP9 DUP3 PUSH2 0x2333 JUMP JUMPDEST SWAP8 POP PUSH2 0x24D0 DUP4 PUSH2 0x234B JUMP JUMPDEST SWAP3 POP POP PUSH1 0x1 DUP2 ADD SWAP1 POP PUSH2 0x24B1 JUMP JUMPDEST POP DUP6 SWAP4 POP POP POP POP SWAP3 SWAP2 POP POP JUMP JUMPDEST PUSH1 0x0 PUSH2 0x24F7 DUP4 DUP4 PUSH2 0x248D JUMP JUMPDEST SWAP1 POP SWAP3 SWAP2 POP POP JUMP JUMPDEST PUSH1 0x0 PUSH1 0x20 DUP3 ADD SWAP1 POP SWAP2 SWAP1 POP JUMP JUMPDEST PUSH1 0x0 PUSH2 0x2517 DUP3 PUSH2 0x2450 JUMP JUMPDEST PUSH2 0x2521 DUP2 DUP6 PUSH2 0x245B JUMP JUMPDEST SWAP4 POP DUP4 PUSH1 0x20 DUP3 MUL DUP6 ADD PUSH2 0x2533 DUP6 PUSH2 0x246C JUMP JUMPDEST DUP1 PUSH1 0x0 JUMPDEST DUP6 DUP2 LT ISZERO PUSH2 0x256F JUMPI DUP5 DUP5 SUB DUP10 MSTORE DUP2 MLOAD PUSH2 0x2550 DUP6 DUP3 PUSH2 0x24EB JUMP JUMPDEST SWAP5 POP PUSH2 0x255B DUP4 PUSH2 0x24FF JUMP JUMPDEST SWAP3 POP PUSH1 0x20 DUP11 ADD SWAP10 POP POP PUSH1 0x1 DUP2 ADD SWAP1 POP PUSH2 0x2537 JUMP JUMPDEST POP DUP3 SWAP8 POP DUP8 SWAP6 POP POP POP POP POP POP SWAP3 SWAP2 POP POP JUMP JUMPDEST PUSH1 0x0 PUSH1 0x40 DUP3 ADD SWAP1 POP DUP2 DUP2 SUB PUSH1 0x0 DUP4 ADD MSTORE PUSH2 0x259B DUP2 DUP6 PUSH2 0x2358 JUMP JUMPDEST SWAP1 POP DUP2 DUP2 SUB PUSH1 0x20 DUP4 ADD MSTORE PUSH2 0x25AF DUP2 DUP5 PUSH2 0x250C JUMP JUMPDEST SWAP1 POP SWAP4 SWAP3 POP POP POP JUMP JUMPDEST PUSH1 0x0 PUSH1 0x20 DUP3 DUP5 SUB SLT ISZERO PUSH2 0x25CE JUMPI PUSH2 0x25CD PUSH2 0x1EB2 JUMP JUMPDEST JUMPDEST PUSH1 0x0 PUSH2 0x25DC DUP5 DUP3 DUP6 ADD PUSH2 0x1FF7 JUMP JUMPDEST SWAP2 POP POP SWAP3 SWAP2 POP POP JUMP JUMPDEST PUSH2 0x25EE DUP2 PUSH2 0x1FD6 JUMP JUMPDEST DUP3 MSTORE POP POP JUMP JUMPDEST PUSH1 0x0 PUSH1 0x20 DUP3 ADD SWAP1 POP PUSH2 0x2609 PUSH1 0x0 DUP4 ADD DUP5 PUSH2 0x25E5 JUMP JUMPDEST SWAP3 SWAP2 POP POP JUMP JUMPDEST PUSH1 0x0 DUP1 PUSH1 0x40 DUP4 DUP6 SUB SLT ISZERO PUSH2 0x2626 JUMPI PUSH2 0x2625 PUSH2 0x1EB2 JUMP JUMPDEST JUMPDEST PUSH1 0x0 DUP4 ADD CALLDATALOAD PUSH8 0xFFFFFFFFFFFFFFFF DUP2 GT ISZERO PUSH2 0x2644 JUMPI PUSH2 0x2643 PUSH2 0x1EB7 JUMP JUMPDEST JUMPDEST PUSH2 0x2650 DUP6 DUP3 DUP7 ADD PUSH2 0x212A JUMP JUMPDEST SWAP3 POP POP PUSH1 0x20 DUP4 ADD CALLDATALOAD PUSH8 0xFFFFFFFFFFFFFFFF DUP2 GT ISZERO PUSH2 0x2671 JUMPI PUSH2 0x2670 PUSH2 0x1EB7 JUMP JUMPDEST JUMPDEST PUSH2 0x267D DUP6 DUP3 DUP7 ADD PUSH2 0x2075 JUMP JUMPDEST SWAP2 POP POP SWAP3 POP SWAP3 SWAP1 POP JUMP JUMPDEST PUSH1 0x0 DUP1 PUSH1 0x0 PUSH1 0x60 DUP5 DUP7 SUB SLT ISZERO PUSH2 0x26A0 JUMPI PUSH2 0x269F PUSH2 0x1EB2 JUMP JUMPDEST JUMPDEST PUSH1 0x0 DUP5 ADD CALLDATALOAD PUSH8 0xFFFFFFFFFFFFFFFF DUP2 GT ISZERO PUSH2 0x26BE JUMPI PUSH2 0x26BD PUSH2 0x1EB7 JUMP JUMPDEST JUMPDEST PUSH2 0x26CA DUP7 DUP3 DUP8 ADD PUSH2 0x21DF JUMP JUMPDEST SWAP4 POP POP PUSH1 0x20 DUP5 ADD CALLDATALOAD PUSH8 0xFFFFFFFFFFFFFFFF DUP2 GT ISZERO PUSH2 0x26EB JUMPI PUSH2 0x26EA PUSH2 0x1EB7 JUMP JUMPDEST JUMPDEST PUSH2 0x26F7 DUP7 DUP3 DUP8 ADD PUSH2 0x2075 JUMP JUMPDEST SWAP3 POP POP PUSH1 0x40 DUP5 ADD CALLDATALOAD PUSH8 0xFFFFFFFFFFFFFFFF DUP2 GT ISZERO PUSH2 0x2718 JUMPI PUSH2 0x2717 PUSH2 0x1EB7 JUMP JUMPDEST JUMPDEST PUSH2 0x2724 DUP7 DUP3 DUP8 ADD PUSH2 0x212A JUMP JUMPDEST SWAP2 POP POP SWAP3 POP SWAP3 POP SWAP3 JUMP JUMPDEST PUSH1 0x0 PUSH1 0x20 DUP3 ADD SWAP1 POP DUP2 DUP2 SUB PUSH1 0x0 DUP4 ADD MSTORE PUSH2 0x2748 DUP2 DUP5 PUSH2 0x250C JUMP JUMPDEST SWAP1 POP SWAP3 SWAP2 POP POP JUMP JUMPDEST PUSH1 0x0 PUSH1 0x20 DUP3 DUP5 SUB SLT ISZERO PUSH2 0x2766 JUMPI PUSH2 0x2765 PUSH2 0x1EB2 JUMP JUMPDEST JUMPDEST PUSH1 0x0 DUP3 ADD CALLDATALOAD PUSH8 0xFFFFFFFFFFFFFFFF DUP2 GT ISZERO PUSH2 0x2784 JUMPI PUSH2 0x2783 PUSH2 0x1EB7 JUMP JUMPDEST JUMPDEST PUSH2 0x2790 DUP5 DUP3 DUP6 ADD PUSH2 0x2075 JUMP JUMPDEST SWAP2 POP POP SWAP3 SWAP2 POP POP JUMP JUMPDEST PUSH1 0x0 PUSH8 0xFFFFFFFFFFFFFFFF DUP3 GT ISZERO PUSH2 0x27B4 JUMPI PUSH2 0x27B3 PUSH2 0x1ED2 JUMP JUMPDEST JUMPDEST PUSH1 0x20 DUP3 MUL SWAP1 POP PUSH1 0x20 DUP2 ADD SWAP1 POP SWAP2 SWAP1 POP JUMP JUMPDEST PUSH1 0x0 DUP2 SWAP1 POP SWAP2 SWAP1 POP JUMP JUMPDEST PUSH2 0x27D8 DUP2 PUSH2 0x27C5 JUMP JUMPDEST DUP2 EQ PUSH2 0x27E3 JUMPI PUSH1 0x0 DUP1 REVERT JUMPDEST POP JUMP JUMPDEST PUSH1 0x0 DUP2 CALLDATALOAD SWAP1 POP PUSH2 0x27F5 DUP2 PUSH2 0x27CF JUMP JUMPDEST SWAP3 SWAP2 POP POP JUMP JUMPDEST PUSH1 0x0 PUSH2 0x280E PUSH2 0x2809 DUP5 PUSH2 0x2799 JUMP JUMPDEST PUSH2 0x1F32 JUMP JUMPDEST SWAP1 POP DUP1 DUP4 DUP3 MSTORE PUSH1 0x20 DUP3 ADD SWAP1 POP PUSH1 0x20 DUP5 MUL DUP4 ADD DUP6 DUP2 GT ISZERO PUSH2 0x2831 JUMPI PUSH2 0x2830 PUSH2 0x1F79 JUMP JUMPDEST JUMPDEST DUP4 JUMPDEST DUP2 DUP2 LT ISZERO PUSH2 0x285A JUMPI DUP1 PUSH2 0x2846 DUP9 DUP3 PUSH2 0x27E6 JUMP JUMPDEST DUP5 MSTORE PUSH1 0x20 DUP5 ADD SWAP4 POP POP PUSH1 0x20 DUP2 ADD SWAP1 POP PUSH2 0x2833 JUMP JUMPDEST POP POP POP SWAP4 SWAP3 POP POP POP JUMP JUMPDEST PUSH1 0x0 DUP3 PUSH1 0x1F DUP4 ADD SLT PUSH2 0x2879 JUMPI PUSH2 0x2878 PUSH2 0x1EBC JUMP JUMPDEST JUMPDEST DUP2 CALLDATALOAD PUSH2 0x2889 DUP5 DUP3 PUSH1 0x20 DUP7 ADD PUSH2 0x27FB JUMP JUMPDEST SWAP2 POP POP SWAP3 SWAP2 POP POP JUMP JUMPDEST PUSH1 0x0 DUP1 PUSH1 0x0 DUP1 PUSH1 0x0 DUP1 PUSH1 0xC0 DUP8 DUP10 SUB SLT ISZERO PUSH2 0x28AF JUMPI PUSH2 0x28AE PUSH2 0x1EB2 JUMP JUMPDEST JUMPDEST PUSH1 0x0 DUP8 ADD CALLDATALOAD PUSH8 0xFFFFFFFFFFFFFFFF DUP2 GT ISZERO PUSH2 0x28CD JUMPI PUSH2 0x28CC PUSH2 0x1EB7 JUMP JUMPDEST JUMPDEST PUSH2 0x28D9 DUP10 DUP3 DUP11 ADD PUSH2 0x21DF JUMP JUMPDEST SWAP7 POP POP PUSH1 0x20 DUP8 ADD CALLDATALOAD PUSH8 0xFFFFFFFFFFFFFFFF DUP2 GT ISZERO PUSH2 0x28FA JUMPI PUSH2 0x28F9 PUSH2 0x1EB7 JUMP JUMPDEST JUMPDEST PUSH2 0x2906 DUP10 DUP3 DUP11 ADD PUSH2 0x212A JUMP JUMPDEST SWAP6 POP POP PUSH1 0x40 DUP8 ADD CALLDATALOAD PUSH8 0xFFFFFFFFFFFFFFFF DUP2 GT ISZERO PUSH2 0x2927 JUMPI PUSH2 0x2926 PUSH2 0x1EB7 JUMP JUMPDEST JUMPDEST PUSH2 0x2933 DUP10 DUP3 DUP11 ADD PUSH2 0x2864 JUMP JUMPDEST SWAP5 POP POP PUSH1 0x60 PUSH2 0x2944 DUP10 DUP3 DUP11 ADD PUSH2 0x1FF7 JUMP JUMPDEST SWAP4 POP POP PUSH1 0x80 PUSH2 0x2955 DUP10 DUP3 DUP11 ADD PUSH2 0x27E6 JUMP JUMPDEST SWAP3 POP POP PUSH1 0xA0 PUSH2 0x2966 DUP10 DUP3 DUP11 ADD PUSH2 0x27E6 JUMP JUMPDEST SWAP2 POP POP SWAP3 SWAP6 POP SWAP3 SWAP6 POP SWAP3 SWAP6 JUMP JUMPDEST PUSH1 0x0 DUP2 MLOAD SWAP1 POP SWAP2 SWAP1 POP JUMP JUMPDEST PUSH1 0x0 DUP3 DUP3 MSTORE PUSH1 0x20 DUP3 ADD SWAP1 POP SWAP3 SWAP2 POP POP JUMP JUMPDEST PUSH1 0x0 DUP2 SWAP1 POP PUSH1 0x20 DUP3 ADD SWAP1 POP SWAP2 SWAP1 POP JUMP JUMPDEST PUSH1 0x0 DUP3 DUP3 MSTORE PUSH1 0x20 DUP3 ADD SWAP1 POP SWAP3 SWAP2 POP POP JUMP JUMPDEST PUSH1 0x0 PUSH2 0x29BB DUP3 PUSH2 0x2450 JUMP JUMPDEST PUSH2 0x29C5 DUP2 DUP6 PUSH2 0x299F JUMP JUMPDEST SWAP4 POP DUP4 PUSH1 0x20 DUP3 MUL DUP6 ADD PUSH2 0x29D7 DUP6 PUSH2 0x246C JUMP JUMPDEST DUP1 PUSH1 0x0 JUMPDEST DUP6 DUP2 LT ISZERO PUSH2 0x2A13 JUMPI DUP5 DUP5 SUB DUP10 MSTORE DUP2 MLOAD PUSH2 0x29F4 DUP6 DUP3 PUSH2 0x24EB JUMP JUMPDEST SWAP5 POP PUSH2 0x29FF DUP4 PUSH2 0x24FF JUMP JUMPDEST SWAP3 POP PUSH1 0x20 DUP11 ADD SWAP10 POP POP PUSH1 0x1 DUP2 ADD SWAP1 POP PUSH2 0x29DB JUMP JUMPDEST POP DUP3 SWAP8 POP DUP8 SWAP6 POP POP POP POP POP POP SWAP3 SWAP2 POP POP JUMP JUMPDEST PUSH1 0x0 PUSH2 0x2A31 DUP4 DUP4 PUSH2 0x29B0 JUMP JUMPDEST SWAP1 POP SWAP3 SWAP2 POP POP JUMP JUMPDEST PUSH1 0x0 PUSH1 0x20 DUP3 ADD SWAP1 POP SWAP2 SWAP1 POP JUMP JUMPDEST PUSH1 0x0 PUSH2 0x2A51 DUP3 PUSH2 0x2973 JUMP JUMPDEST PUSH2 0x2A5B DUP2 DUP6 PUSH2 0x297E JUMP JUMPDEST SWAP4 POP DUP4 PUSH1 0x20 DUP3 MUL DUP6 ADD PUSH2 0x2A6D DUP6 PUSH2 0x298F JUMP JUMPDEST DUP1 PUSH1 0x0 JUMPDEST DUP6 DUP2 LT ISZERO PUSH2 0x2AA9 JUMPI DUP5 DUP5 SUB DUP10 MSTORE DUP2 MLOAD PUSH2 0x2A8A DUP6 DUP3 PUSH2 0x2A25 JUMP JUMPDEST SWAP5 POP PUSH2 0x2A95 DUP4 PUSH2 0x2A39 JUMP JUMPDEST SWAP3 POP PUSH1 0x20 DUP11 ADD SWAP10 POP POP PUSH1 0x1 DUP2 ADD SWAP1 POP PUSH2 0x2A71 JUMP JUMPDEST POP DUP3 SWAP8 POP DUP8 SWAP6 POP POP POP POP POP POP SWAP3 SWAP2 POP POP JUMP JUMPDEST PUSH1 0x0 PUSH1 0x20 DUP3 ADD SWAP1 POP DUP2 DUP2 SUB PUSH1 0x0 DUP4 ADD MSTORE PUSH2 0x2AD5 DUP2 DUP5 PUSH2 0x2A46 JUMP JUMPDEST SWAP1 POP SWAP3 SWAP2 POP POP JUMP JUMPDEST PUSH32 0x4E487B7100000000000000000000000000000000000000000000000000000000 PUSH1 0x0 MSTORE PUSH1 0x32 PUSH1 0x4 MSTORE PUSH1 0x24 PUSH1 0x0 REVERT JUMPDEST PUSH32 0x4E487B7100000000000000000000000000000000000000000000000000000000 PUSH1 0x0 MSTORE PUSH1 0x11 PUSH1 0x4 MSTORE PUSH1 0x24 PUSH1 0x0 REVERT JUMPDEST PUSH1 0x0 PUSH2 0x2B46 DUP3 PUSH2 0x27C5 JUMP JUMPDEST SWAP2 POP PUSH32 0xFFFFFFFFFFFFFFFFFFFFFFFFFFFFFFFFFFFFFFFFFFFFFFFFFFFFFFFFFFFFFFFF DUP3 SUB PUSH2 0x2B78 JUMPI PUSH2 0x2B77 PUSH2 0x2B0C JUMP JUMPDEST JUMPDEST PUSH1 0x1 DUP3 ADD SWAP1 POP SWAP2 SWAP1 POP JUMP JUMPDEST PUSH1 0x0 PUSH2 0x2B8E DUP3 PUSH2 0x27C5 JUMP JUMPDEST SWAP2 POP PUSH2 0x2B99 DUP4 PUSH2 0x27C5 JUMP JUMPDEST SWAP3 POP DUP3 DUP3 LT ISZERO PUSH2 0x2BAC JUMPI PUSH2 0x2BAB PUSH2 0x2B0C JUMP JUMPDEST JUMPDEST DUP3 DUP3 SUB SWAP1 POP SWAP3 SWAP2 POP POP JUMP JUMPDEST PUSH1 0x0 PUSH2 0x2BC2 DUP3 PUSH2 0x1FD6 JUMP JUMPDEST SWAP2 POP PUSH2 0x2BCD DUP4 PUSH2 0x1FD6 JUMP JUMPDEST SWAP3 POP DUP3 PUSH32 0x8000000000000000000000000000000000000000000000000000000000000000 ADD DUP3 SLT PUSH1 0x0 DUP5 SLT ISZERO AND ISZERO PUSH2 0x2C08 JUMPI PUSH2 0x2C07 PUSH2 0x2B0C JUMP JUMPDEST JUMPDEST DUP3 PUSH32 0x7FFFFFFFFFFFFFFFFFFFFFFFFFFFFFFFFFFFFFFFFFFFFFFFFFFFFFFFFFFFFFFF ADD DUP3 SGT PUSH1 0x0 DUP5 SLT AND ISZERO PUSH2 0x2C40 JUMPI PUSH2 0x2C3F PUSH2 0x2B0C JUMP JUMPDEST JUMPDEST DUP3 DUP3 SUB SWAP1 POP SWAP3 SWAP2 POP POP JUMP JUMPDEST PUSH1 0x0 PUSH2 0x2C56 DUP3 PUSH2 0x1FD6 JUMP JUMPDEST SWAP2 POP PUSH2 0x2C61 DUP4 PUSH2 0x1FD6 JUMP JUMPDEST SWAP3 POP DUP2 PUSH32 0x7FFFFFFFFFFFFFFFFFFFFFFFFFFFFFFFFFFFFFFFFFFFFFFFFFFFFFFFFFFFFFFF SUB DUP4 SGT PUSH1 0x0 DUP4 SLT ISZERO AND ISZERO PUSH2 0x2C9C JUMPI PUSH2 0x2C9B PUSH2 0x2B0C JUMP JUMPDEST JUMPDEST DUP2 PUSH32 0x8000000000000000000000000000000000000000000000000000000000000000 SUB DUP4 SLT PUSH1 0x0 DUP4 SLT AND ISZERO PUSH2 0x2CD4 JUMPI PUSH2 0x2CD3 PUSH2 0x2B0C JUMP JUMPDEST JUMPDEST DUP3 DUP3 ADD SWAP1 POP SWAP3 SWAP2 POP POP JUMP JUMPDEST PUSH1 0x0 PUSH2 0x2CEA DUP3 PUSH2 0x27C5 JUMP JUMPDEST SWAP2 POP PUSH1 0x0 DUP3 SUB PUSH2 0x2CFD JUMPI PUSH2 0x2CFC PUSH2 0x2B0C JUMP JUMPDEST JUMPDEST PUSH1 0x1 DUP3 SUB SWAP1 POP SWAP2 SWAP1 POP JUMP JUMPDEST PUSH1 0x0 PUSH2 0x2D13 DUP3 PUSH2 0x1FD6 JUMP JUMPDEST SWAP2 POP PUSH32 0x8000000000000000000000000000000000000000000000000000000000000000 DUP3 SUB PUSH2 0x2D45 JUMPI PUSH2 0x2D44 PUSH2 0x2B0C JUMP JUMPDEST JUMPDEST DUP2 PUSH1 0x0 SUB SWAP1 POP SWAP2 SWAP1 POP JUMP JUMPDEST PUSH2 0x2D59 DUP2 PUSH2 0x27C5 JUMP JUMPDEST DUP3 MSTORE POP POP JUMP JUMPDEST PUSH1 0x0 PUSH1 0x20 DUP3 ADD SWAP1 POP PUSH2 0x2D74 PUSH1 0x0 DUP4 ADD DUP5 PUSH2 0x2D50 JUMP JUMPDEST SWAP3 SWAP2 POP POP JUMP JUMPDEST PUSH32 0x4E487B7100000000000000000000000000000000000000000000000000000000 PUSH1 0x0 MSTORE PUSH1 0x12 PUSH1 0x4 MSTORE PUSH1 0x24 PUSH1 0x0 REVERT JUMPDEST PUSH1 0x0 PUSH1 0x40 DUP3 ADD SWAP1 POP PUSH2 0x2DBE PUSH1 0x0 DUP4 ADD DUP6 PUSH2 0x2D50 JUMP JUMPDEST PUSH2 0x2DCB PUSH1 0x20 DUP4 ADD DUP5 PUSH2 0x2D50 JUMP JUMPDEST SWAP4 SWAP3 POP POP POP JUMP INVALID LOG2 PUSH5 0x6970667358 0x22 SLT KECCAK256 0xFC EXTCODESIZE SWAP2 ISZERO 0xE7 DUP2 CODESIZE SIGNEXTEND LOG3 0xC9 BLOCKHASH CALLDATASIZE 0xD0 BALANCE SWAP1 PUSH26 0x89883DD11C2C5A43BF533FBBEBE4393064736F6C634300080D00 CALLER "
		},
		"gasEstimates": {
			"creation": {
				"codeDepositCost": "2356800",
				"executionCost": "46742",
				"totalCost": "2403542"
			},
			"external": {
				"activate(int256[][],int256[])": "infinite",
				"backward_propagate_error(int256[][][],int256[],int256[][])": "infinite",
				"forward_propagate(int256[][][],int256[])": "infinite",
				"train_network(int256[][][],int256[][],uint256[],int256,uint256,uint256)": "infinite",
				"transfer(int256[])": "infinite",
				"transfer_derivative(int256)": "infinite",
				"update_weights(int256[][][],int256[],int256,int256[][],int256[][])": "infinite"
			}
		},
		"methodIdentifiers": {
			"activate(int256[][],int256[])": "71412446",
			"backward_propagate_error(int256[][][],int256[],int256[][])": "8ab4aa4e",
			"forward_propagate(int256[][][],int256[])": "2b013ad9",
			"train_network(int256[][][],int256[][],uint256[],int256,uint256,uint256)": "e4762499",
			"transfer(int256[])": "91011166",
			"transfer_derivative(int256)": "3e73e217",
			"update_weights(int256[][][],int256[],int256,int256[][],int256[][])": "0f4475e5"
		}
	},
	"abi": [
		{
			"inputs": [],
			"name": "PRBMathSD59x18__DivInputTooSmall",
			"type": "error"
		},
		{
			"inputs": [
				{
					"internalType": "uint256",
					"name": "rAbs",
					"type": "uint256"
				}
			],
			"name": "PRBMathSD59x18__DivOverflow",
			"type": "error"
		},
		{
			"inputs": [
				{
					"internalType": "int256",
					"name": "x",
					"type": "int256"
				}
			],
			"name": "PRBMathSD59x18__Exp2InputTooBig",
			"type": "error"
		},
		{
			"inputs": [
				{
					"internalType": "int256",
					"name": "x",
					"type": "int256"
				}
			],
			"name": "PRBMathSD59x18__ExpInputTooBig",
			"type": "error"
		},
		{
			"inputs": [],
			"name": "PRBMathSD59x18__MulInputTooSmall",
			"type": "error"
		},
		{
			"inputs": [
				{
					"internalType": "uint256",
					"name": "rAbs",
					"type": "uint256"
				}
			],
			"name": "PRBMathSD59x18__MulOverflow",
			"type": "error"
		},
		{
			"inputs": [
				{
					"internalType": "uint256",
					"name": "prod1",
					"type": "uint256"
				}
			],
			"name": "PRBMath__MulDivFixedPointOverflow",
			"type": "error"
		},
		{
			"inputs": [
				{
					"internalType": "uint256",
					"name": "prod1",
					"type": "uint256"
				},
				{
					"internalType": "uint256",
					"name": "denominator",
					"type": "uint256"
				}
			],
			"name": "PRBMath__MulDivOverflow",
			"type": "error"
		},
		{
			"inputs": [
				{
					"internalType": "int256[][]",
					"name": "weights",
					"type": "int256[][]"
				},
				{
					"internalType": "int256[]",
					"name": "input",
					"type": "int256[]"
				}
			],
			"name": "activate",
			"outputs": [
				{
					"internalType": "int256[]",
					"name": "",
					"type": "int256[]"
				}
			],
			"stateMutability": "pure",
			"type": "function"
		},
		{
			"inputs": [
				{
					"internalType": "int256[][][]",
					"name": "network",
					"type": "int256[][][]"
				},
				{
					"internalType": "int256[]",
					"name": "expected",
					"type": "int256[]"
				},
				{
					"internalType": "int256[][]",
					"name": "neuron_output",
					"type": "int256[][]"
				}
			],
			"name": "backward_propagate_error",
			"outputs": [
				{
					"internalType": "int256[][]",
					"name": "",
					"type": "int256[][]"
				}
			],
			"stateMutability": "view",
			"type": "function"
		},
		{
			"inputs": [
				{
					"internalType": "int256[][][]",
					"name": "network",
					"type": "int256[][][]"
				},
				{
					"internalType": "int256[]",
					"name": "row",
					"type": "int256[]"
				}
			],
			"name": "forward_propagate",
			"outputs": [
				{
					"internalType": "int256[]",
					"name": "",
					"type": "int256[]"
				},
				{
					"internalType": "int256[][]",
					"name": "",
					"type": "int256[][]"
				}
			],
			"stateMutability": "view",
			"type": "function"
		},
		{
			"inputs": [
				{
					"internalType": "int256[][][]",
					"name": "network",
					"type": "int256[][][]"
				},
				{
					"internalType": "int256[][]",
					"name": "train",
					"type": "int256[][]"
				},
				{
					"internalType": "uint256[]",
					"name": "label",
					"type": "uint256[]"
				},
				{
					"internalType": "int256",
					"name": "l_rate",
					"type": "int256"
				},
				{
					"internalType": "uint256",
					"name": "n_epoch",
					"type": "uint256"
				},
				{
					"internalType": "uint256",
					"name": "n_outputs",
					"type": "uint256"
				}
			],
			"name": "train_network",
			"outputs": [
				{
					"internalType": "int256[][][]",
					"name": "",
					"type": "int256[][][]"
				}
			],
			"stateMutability": "view",
			"type": "function"
		},
		{
			"inputs": [
				{
					"internalType": "int256[]",
					"name": "activation",
					"type": "int256[]"
				}
			],
			"name": "transfer",
			"outputs": [
				{
					"internalType": "int256[]",
					"name": "",
					"type": "int256[]"
				}
			],
			"stateMutability": "view",
			"type": "function"
		},
		{
			"inputs": [
				{
					"internalType": "int256",
					"name": "output",
					"type": "int256"
				}
			],
			"name": "transfer_derivative",
			"outputs": [
				{
					"internalType": "int256",
					"name": "",
					"type": "int256"
				}
			],
			"stateMutability": "pure",
			"type": "function"
		},
		{
			"inputs": [
				{
					"internalType": "int256[][][]",
					"name": "network",
					"type": "int256[][][]"
				},
				{
					"internalType": "int256[]",
					"name": "row",
					"type": "int256[]"
				},
				{
					"internalType": "int256",
					"name": "l_rate",
					"type": "int256"
				},
				{
					"internalType": "int256[][]",
					"name": "neuron_output",
					"type": "int256[][]"
				},
				{
					"internalType": "int256[][]",
					"name": "neuron_delta",
					"type": "int256[][]"
				}
			],
			"name": "update_weights",
			"outputs": [
				{
					"internalType": "int256[]",
					"name": "",
					"type": "int256[]"
				}
			],
			"stateMutability": "view",
			"type": "function"
		}
	]
}